{
  "_format": "hh-sol-artifact-1",
  "contractName": "ValidatorMock",
  "sourceName": "contracts/mocks/ValidatorMock.sol",
  "abi": [
    {
      "inputs": [
        {
          "internalType": "uint256",
          "name": "_dropID",
          "type": "uint256"
        },
        {
          "internalType": "address",
          "name": "bidder",
          "type": "address"
        }
      ],
      "name": "addBid",
      "outputs": [],
      "stateMutability": "payable",
      "type": "function"
    },
    {
      "inputs": [
        {
          "internalType": "uint256",
          "name": "_dropID",
          "type": "uint256"
        }
      ],
      "name": "addBid",
      "outputs": [],
      "stateMutability": "payable",
      "type": "function"
    },
    {
      "inputs": [
        {
          "internalType": "uint256",
          "name": "_dropID",
          "type": "uint256"
        }
      ],
      "name": "addDeposit",
      "outputs": [],
      "stateMutability": "payable",
      "type": "function"
    },
    {
      "inputs": [
        {
          "internalType": "uint256",
          "name": "_dropID",
          "type": "uint256"
        },
        {
          "internalType": "address",
          "name": "recipient",
          "type": "address"
        }
      ],
      "name": "addDeposit",
      "outputs": [],
      "stateMutability": "payable",
      "type": "function"
    },
    {
      "inputs": [],
      "name": "auctionClaimed",
      "outputs": [
        {
          "internalType": "bool",
          "name": "",
          "type": "bool"
        }
      ],
      "stateMutability": "view",
      "type": "function"
    },
    {
      "inputs": [
        {
          "internalType": "uint256",
          "name": "_dropID",
          "type": "uint256"
        }
      ],
      "name": "claimAuction",
      "outputs": [],
      "stateMutability": "nonpayable",
      "type": "function"
    },
    {
      "inputs": [
        {
          "internalType": "uint256",
          "name": "_dropID",
          "type": "uint256"
        },
        {
          "internalType": "address",
          "name": "recipient",
          "type": "address"
        }
      ],
      "name": "claimAuction",
      "outputs": [],
      "stateMutability": "nonpayable",
      "type": "function"
    },
    {
      "inputs": [
        {
          "internalType": "uint256",
          "name": "_dropID",
          "type": "uint256"
        },
        {
          "internalType": "address",
          "name": "recipient",
          "type": "address"
        }
      ],
      "name": "claimExchange",
      "outputs": [],
      "stateMutability": "nonpayable",
      "type": "function"
    },
    {
      "inputs": [
        {
          "internalType": "uint256",
          "name": "_dropID",
          "type": "uint256"
        },
        {
          "internalType": "address",
          "name": "recipient",
          "type": "address"
        }
      ],
      "name": "claimRaffle",
      "outputs": [],
      "stateMutability": "nonpayable",
      "type": "function"
    },
    {
      "inputs": [],
      "name": "deposit",
      "outputs": [
        {
          "internalType": "uint256",
          "name": "",
          "type": "uint256"
        }
      ],
      "stateMutability": "view",
      "type": "function"
    },
    {
      "inputs": [],
      "name": "depositMin",
      "outputs": [
        {
          "internalType": "uint256",
          "name": "",
          "type": "uint256"
        }
      ],
      "stateMutability": "view",
      "type": "function"
    },
    {
      "inputs": [],
      "name": "depositor",
      "outputs": [
        {
          "internalType": "address",
          "name": "",
          "type": "address"
        }
      ],
      "stateMutability": "view",
      "type": "function"
    },
    {
      "inputs": [],
      "name": "exchangeClaimed",
      "outputs": [
        {
          "internalType": "bool",
          "name": "",
          "type": "bool"
        }
      ],
      "stateMutability": "view",
      "type": "function"
    },
    {
      "inputs": [
        {
          "internalType": "uint256",
          "name": "_dropID",
          "type": "uint256"
        },
        {
          "internalType": "address",
          "name": "bidder",
          "type": "address"
        }
      ],
      "name": "getBid",
      "outputs": [
        {
          "internalType": "uint256",
          "name": "",
          "type": "uint256"
        }
      ],
      "stateMutability": "view",
      "type": "function"
    },
    {
      "inputs": [
        {
          "internalType": "uint256",
          "name": "_dropID",
          "type": "uint256"
        },
        {
          "internalType": "address",
          "name": "recipient",
          "type": "address"
        }
      ],
      "name": "getDeposit",
      "outputs": [
        {
          "internalType": "uint256",
          "name": "",
          "type": "uint256"
        }
      ],
      "stateMutability": "view",
      "type": "function"
    },
    {
      "inputs": [
        {
          "internalType": "uint256",
          "name": "_dropID",
          "type": "uint256"
        }
      ],
      "name": "getDeposit",
      "outputs": [
        {
          "internalType": "uint256",
          "name": "",
          "type": "uint256"
        }
      ],
      "stateMutability": "view",
      "type": "function"
    },
    {
      "inputs": [
        {
          "internalType": "uint256",
          "name": "_dropID",
          "type": "uint256"
        }
      ],
      "name": "getDepositMin",
      "outputs": [
        {
          "internalType": "uint256",
          "name": "",
          "type": "uint256"
        }
      ],
      "stateMutability": "view",
      "type": "function"
    },
    {
      "inputs": [
        {
          "internalType": "uint256",
          "name": "_dropID",
          "type": "uint256"
        }
      ],
      "name": "getDropSize",
      "outputs": [
        {
          "internalType": "uint256",
          "name": "",
          "type": "uint256"
        }
      ],
      "stateMutability": "view",
      "type": "function"
    },
    {
      "inputs": [
        {
          "internalType": "uint256",
          "name": "_dropID",
          "type": "uint256"
        },
        {
          "internalType": "address",
          "name": "participant",
          "type": "address"
        }
      ],
      "name": "getTicketsCount",
      "outputs": [
        {
          "internalType": "uint256",
          "name": "",
          "type": "uint256"
        }
      ],
      "stateMutability": "view",
      "type": "function"
    },
    {
      "inputs": [
        {
          "internalType": "uint256",
          "name": "_dropID",
          "type": "uint256"
        }
      ],
      "name": "getTotalTicketsCount",
      "outputs": [
        {
          "internalType": "uint256",
          "name": "",
          "type": "uint256"
        }
      ],
      "stateMutability": "view",
      "type": "function"
    },
    {
      "inputs": [
        {
          "internalType": "uint256",
          "name": "_dropID",
          "type": "uint256"
        },
        {
          "internalType": "address",
          "name": "recipient",
          "type": "address"
        }
      ],
      "name": "hasClaimed",
      "outputs": [
        {
          "internalType": "bool",
          "name": "",
          "type": "bool"
        }
      ],
      "stateMutability": "view",
      "type": "function"
    },
    {
      "inputs": [],
      "name": "raffleClaimed",
      "outputs": [
        {
          "internalType": "bool",
          "name": "",
          "type": "bool"
        }
      ],
      "stateMutability": "view",
      "type": "function"
    },
    {
      "inputs": [
        {
          "internalType": "uint256",
          "name": "_dropID",
          "type": "uint256"
        },
        {
          "internalType": "address",
          "name": "recipient",
          "type": "address"
        }
      ],
      "name": "removeBid",
      "outputs": [],
      "stateMutability": "nonpayable",
      "type": "function"
    },
    {
      "inputs": [
        {
          "internalType": "uint256",
          "name": "_dropID",
          "type": "uint256"
        },
        {
          "internalType": "address payable",
          "name": "recipient",
          "type": "address"
        }
      ],
      "name": "removeDeposit",
      "outputs": [],
      "stateMutability": "nonpayable",
      "type": "function"
    },
    {
      "inputs": [
        {
          "internalType": "uint256",
          "name": "_dropID",
          "type": "uint256"
        },
        {
          "internalType": "uint256",
          "name": "_deadline",
          "type": "uint256"
        }
      ],
      "name": "setDeadline",
      "outputs": [],
      "stateMutability": "nonpayable",
      "type": "function"
    },
    {
      "inputs": [
        {
          "internalType": "uint256",
          "name": "_dropID",
          "type": "uint256"
        }
      ],
      "name": "timeRemaining",
      "outputs": [
        {
          "internalType": "uint256",
          "name": "",
          "type": "uint256"
        }
      ],
      "stateMutability": "view",
      "type": "function"
    }
  ],
  "bytecode": "0x608060405260008060006101000a81548173ffffffffffffffffffffffffffffffffffffffff021916908373ffffffffffffffffffffffffffffffffffffffff160217905550600060015567011c37937e0800006002556000600360006101000a81548160ff0219169083151502179055506000600360016101000a81548160ff0219169083151502179055506000600360026101000a81548160ff02191690831515021790555060006004556000600560006101000a81548173ffffffffffffffffffffffffffffffffffffffff021916908373ffffffffffffffffffffffffffffffffffffffff1602179055506000600655614e2060075534801561010557600080fd5b50610dbb806101156000396000f3fe6080604052600436106101805760003560e01c806399067c88116100d1578063bfdeb6491161008a578063ea3d902011610064578063ea3d90201461056d578063eba1b60b146105aa578063ed87cf46146105e7578063fbe7b4291461061257610180565b8063bfdeb649146104fb578063c7c4ff4614610517578063d0e30db01461054257610180565b806399067c88146103d65780639aafc6c9146104135780639f489e4e1461043c5780639f9fb96814610479578063a6f1fd51146104b6578063be5fe1d4146104d257610180565b80634cf8873e1161013e578063776a083511610118578063776a0835146103085780637d38b6091461033157806382708cf91461035c578063873f6f9e1461039957610180565b80634cf8873e146102655780635ab41a92146102a25780635b55163b146102cb57610180565b80629a0b3014610185578063056e5e81146101ae57806307b0501d146101ca578063095e8918146101f357806314b0e2661461021e5780633f37fef41461023a575b600080fd5b34801561019157600080fd5b506101ac60048036038101906101a79190610a32565b61063b565b005b6101c860048036038101906101c39190610ad0565b610646565b005b3480156101d657600080fd5b506101f160048036038101906101ec9190610b4e565b610651565b005b3480156101ff57600080fd5b5061020861069e565b6040516102159190610ba9565b60405180910390f35b61023860048036038101906102339190610bc4565b6106b1565b005b34801561024657600080fd5b5061024f6106fc565b60405161025c9190610ba9565b60405180910390f35b34801561027157600080fd5b5061028c60048036038101906102879190610bc4565b61070f565b6040516102999190610c00565b60405180910390f35b3480156102ae57600080fd5b506102c960048036038101906102c49190610ad0565b61071b565b005b3480156102d757600080fd5b506102f260048036038101906102ed9190610ad0565b61071f565b6040516102ff9190610c00565b60405180910390f35b34801561031457600080fd5b5061032f600480360381019061032a9190610ad0565b610739565b005b34801561033d57600080fd5b50610346610787565b6040516103539190610ba9565b60405180910390f35b34801561036857600080fd5b50610383600480360381019061037e9190610bc4565b61079a565b6040516103909190610c00565b60405180910390f35b3480156103a557600080fd5b506103c060048036038101906103bb9190610ad0565b6107b3565b6040516103cd9190610ba9565b60405180910390f35b3480156103e257600080fd5b506103fd60048036038101906103f89190610bc4565b6107cd565b60405161040a9190610c00565b60405180910390f35b34801561041f57600080fd5b5061043a60048036038101906104359190610bc4565b6107d9565b005b34801561044857600080fd5b50610463600480360381019061045e9190610ad0565b6107f7565b6040516104709190610c00565b60405180910390f35b34801561048557600080fd5b506104a0600480360381019061049b9190610bc4565b610804565b6040516104ad9190610c00565b60405180910390f35b6104d060048036038101906104cb9190610bc4565b610810565b005b3480156104de57600080fd5b506104f960048036038101906104f49190610ad0565b6108ba565b005b61051560048036038101906105109190610ad0565b6108d9565b005b34801561052357600080fd5b5061052c610984565b6040516105399190610c2a565b60405180910390f35b34801561054e57600080fd5b506105576109a8565b6040516105649190610c00565b60405180910390f35b34801561057957600080fd5b50610594600480360381019061058f9190610bc4565b6109ae565b6040516105a19190610c00565b60405180910390f35b3480156105b657600080fd5b506105d160048036038101906105cc9190610ad0565b6109c5565b6040516105de9190610c00565b60405180910390f35b3480156105f357600080fd5b506105fc6109d2565b6040516106099190610c00565b60405180910390f35b34801561061e57600080fd5b5061063960048036038101906106349190610ad0565b6109d8565b005b806004819055505050565b346006819055505050565b60008060006101000a81548173ffffffffffffffffffffffffffffffffffffffff021916908373ffffffffffffffffffffffffffffffffffffffff16021790555060006001819055505050565b600360019054906101000a900460ff1681565b33600560006101000a81548173ffffffffffffffffffffffffffffffffffffffff021916908373ffffffffffffffffffffffffffffffffffffffff1602179055503460068190555050565b600360029054906101000a900460ff1681565b60006007549050919050565b5050565b60006002546001546107319190610ca3565b905092915050565b6000600560006101000a81548173ffffffffffffffffffffffffffffffffffffffff021916908373ffffffffffffffffffffffffffffffffffffffff16021790555060006006819055505050565b600360009054906101000a900460ff1681565b60006002546001546107ac9190610ca3565b9050919050565b6000600360019054906101000a900460ff16905092915050565b60006001549050919050565b6001600360026101000a81548160ff02191690831515021790555050565b6000600154905092915050565b60006001549050919050565b600254341015610855576040517f08c379a000000000000000000000000000000000000000000000000000000000815260040161084c90610d31565b60405180910390fd5b336000806101000a81548173ffffffffffffffffffffffffffffffffffffffff021916908373ffffffffffffffffffffffffffffffffffffffff160217905550346001819055506000600360006101000a81548160ff02191690831515021790555050565b6001600360026101000a81548160ff0219169083151502179055505050565b60025434101561091e576040517f08c379a000000000000000000000000000000000000000000000000000000000815260040161091590610d31565b60405180910390fd5b806000806101000a81548173ffffffffffffffffffffffffffffffffffffffff021916908373ffffffffffffffffffffffffffffffffffffffff160217905550346001819055506000600360006101000a81548160ff0219169083151502179055505050565b60008054906101000a900473ffffffffffffffffffffffffffffffffffffffff1681565b60015481565b6000426004546109be9190610d51565b9050919050565b6000600654905092915050565b60025481565b6001600360006101000a81548160ff0219169083151502179055505050565b600080fd5b6000819050919050565b610a0f816109fc565b8114610a1a57600080fd5b50565b600081359050610a2c81610a06565b92915050565b60008060408385031215610a4957610a486109f7565b5b6000610a5785828601610a1d565b9250506020610a6885828601610a1d565b9150509250929050565b600073ffffffffffffffffffffffffffffffffffffffff82169050919050565b6000610a9d82610a72565b9050919050565b610aad81610a92565b8114610ab857600080fd5b50565b600081359050610aca81610aa4565b92915050565b60008060408385031215610ae757610ae66109f7565b5b6000610af585828601610a1d565b9250506020610b0685828601610abb565b9150509250929050565b6000610b1b82610a72565b9050919050565b610b2b81610b10565b8114610b3657600080fd5b50565b600081359050610b4881610b22565b92915050565b60008060408385031215610b6557610b646109f7565b5b6000610b7385828601610a1d565b9250506020610b8485828601610b39565b9150509250929050565b60008115159050919050565b610ba381610b8e565b82525050565b6000602082019050610bbe6000830184610b9a565b92915050565b600060208284031215610bda57610bd96109f7565b5b6000610be884828501610a1d565b91505092915050565b610bfa816109fc565b82525050565b6000602082019050610c156000830184610bf1565b92915050565b610c2481610a92565b82525050565b6000602082019050610c3f6000830184610c1b565b92915050565b7f4e487b7100000000000000000000000000000000000000000000000000000000600052601260045260246000fd5b7f4e487b7100000000000000000000000000000000000000000000000000000000600052601160045260246000fd5b6000610cae826109fc565b9150610cb9836109fc565b925082610cc957610cc8610c45565b5b828204905092915050565b600082825260208201905092915050565b7f20496e73756666696369656e74204465706f7369740000000000000000000000600082015250565b6000610d1b601583610cd4565b9150610d2682610ce5565b602082019050919050565b60006020820190508181036000830152610d4a81610d0e565b9050919050565b6000610d5c826109fc565b9150610d67836109fc565b925082821015610d7a57610d79610c74565b5b82820390509291505056fea2646970667358221220744bfbe19caed7f3ddba80bbdbf2c54b84db05dae24e57650900691927ebf12164736f6c634300080a0033",
  "linkReferences": {},
  "deployedLinkReferences": {}
}