{
  "_format": "hh-sol-artifact-1",
  "contractName": "SelectableOptions",
  "sourceName": "contracts/characters/SelectableOptions.sol",
  "abi": [
    {
      "inputs": [
        {
          "internalType": "string",
          "name": "option",
          "type": "string"
        },
        {
          "internalType": "string",
          "name": "slot",
          "type": "string"
        },
        {
          "internalType": "uint8",
          "name": "id",
          "type": "uint8"
        },
        {
          "internalType": "uint8",
          "name": "form",
          "type": "uint8"
        }
      ],
      "name": "addOption",
      "outputs": [],
      "stateMutability": "nonpayable",
      "type": "function"
    },
    {
      "inputs": [
        {
          "internalType": "string",
          "name": "option",
          "type": "string"
        }
      ],
      "name": "getCostFromOption",
      "outputs": [
        {
          "internalType": "uint256",
          "name": "",
          "type": "uint256"
        }
      ],
      "stateMutability": "view",
      "type": "function"
    },
    {
      "inputs": [
        {
          "internalType": "string",
          "name": "option",
          "type": "string"
        }
      ],
      "name": "getOption",
      "outputs": [
        {
          "components": [
            {
              "internalType": "uint8",
              "name": "req",
              "type": "uint8"
            },
            {
              "internalType": "uint8",
              "name": "form",
              "type": "uint8"
            },
            {
              "internalType": "string",
              "name": "slot",
              "type": "string"
            },
            {
              "internalType": "string",
              "name": "option",
              "type": "string"
            }
          ],
          "internalType": "struct SelectableOptions.Option",
          "name": "op",
          "type": "tuple"
        }
      ],
      "stateMutability": "nonpayable",
      "type": "function"
    },
    {
      "inputs": [
        {
          "internalType": "uint8",
          "name": "id",
          "type": "uint8"
        },
        {
          "internalType": "uint256",
          "name": "cost",
          "type": "uint256"
        }
      ],
      "name": "setEthRequirement",
      "outputs": [],
      "stateMutability": "nonpayable",
      "type": "function"
    },
    {
      "inputs": [
        {
          "internalType": "uint8",
          "name": "id",
          "type": "uint8"
        },
        {
          "internalType": "string",
          "name": "trait",
          "type": "string"
        }
      ],
      "name": "setNotTraitRequirement",
      "outputs": [],
      "stateMutability": "nonpayable",
      "type": "function"
    },
    {
      "inputs": [
        {
          "internalType": "uint8",
          "name": "id",
          "type": "uint8"
        },
        {
          "internalType": "address",
          "name": "account",
          "type": "address"
        },
        {
          "internalType": "uint256",
          "name": "reqId",
          "type": "uint256"
        }
      ],
      "name": "setPillRequirement",
      "outputs": [],
      "stateMutability": "nonpayable",
      "type": "function"
    },
    {
      "inputs": [
        {
          "internalType": "uint8",
          "name": "id",
          "type": "uint8"
        },
        {
          "internalType": "string",
          "name": "trait",
          "type": "string"
        }
      ],
      "name": "setTraitRequirement",
      "outputs": [],
      "stateMutability": "nonpayable",
      "type": "function"
    },
    {
      "inputs": [
        {
          "internalType": "string[]",
          "name": "options",
          "type": "string[]"
        },
        {
          "internalType": "uint256",
          "name": "index",
          "type": "uint256"
        }
      ],
      "name": "validateOption",
      "outputs": [
        {
          "internalType": "uint8",
          "name": "",
          "type": "uint8"
        }
      ],
      "stateMutability": "payable",
      "type": "function"
    }
  ],
  "bytecode": "0x608060405260405180604001604052806040518060400160405280600881526020017f486173686d6f6e6b00000000000000000000000000000000000000000000000081525081526020016040518060400160405280600581526020017f506570656c000000000000000000000000000000000000000000000000000000815250815250600090600262000095929190620000aa565b50348015620000a357600080fd5b5062000294565b828054828255906000526020600020908101928215620000fe579160200282015b82811115620000fd578251829080519060200190620000ec92919062000111565b5091602001919060010190620000cb565b5b5090506200010d9190620001a2565b5090565b8280546200011f906200025e565b90600052602060002090601f0160209004810192826200014357600085556200018f565b82601f106200015e57805160ff19168380011785556200018f565b828001600101855582156200018f579182015b828111156200018e57825182559160200191906001019062000171565b5b5090506200019e9190620001ca565b5090565b5b80821115620001c65760008181620001bc9190620001e9565b50600101620001a3565b5090565b5b80821115620001e5576000816000905550600101620001cb565b5090565b508054620001f7906200025e565b6000825580601f106200020b57506200022c565b601f0160209004906000526020600020908101906200022b9190620001ca565b5b50565b7f4e487b7100000000000000000000000000000000000000000000000000000000600052602260045260246000fd5b600060028204905060018216806200027757607f821691505b602082108114156200028e576200028d6200022f565b5b50919050565b61214680620002a46000396000f3fe60806040526004361061007b5760003560e01c8063d4eb16dc1161004e578063d4eb16dc1461014c578063ee61b3691461017c578063f93d5e96146101a5578063fa658488146101ce5761007b565b8063157eeb62146100805780633acfd909146100bd5780638a0a96ed146100fa578063c4110c7d14610123575b600080fd5b34801561008c57600080fd5b506100a760048036038101906100a29190611611565b6101f7565b6040516100b49190611677565b60405180910390f35b3480156100c957600080fd5b506100e460048036038101906100df9190611611565b6103ef565b6040516100f191906117b1565b60405180910390f35b34801561010657600080fd5b50610121600480360381019061011c91906117ff565b6105ae565b005b34801561012f57600080fd5b5061014a600480360381019061014591906118e9565b610611565b005b61016660048036038101906101619190611992565b6106e4565b6040516101739190611a01565b60405180910390f35b34801561018857600080fd5b506101a3600480360381019061019e9190611a1c565b610e1f565b005b3480156101b157600080fd5b506101cc60048036038101906101c79190611ac3565b610fa8565b005b3480156101da57600080fd5b506101f560048036038101906101f091906117ff565b611000565b005b6000806005848460405161020c929190611b42565b908152602001604051809103902060009054906101000a900460ff1690506000600460008360ff1660ff1681526020019081526020016000206040518060800160405290816000820160009054906101000a900460ff1660ff1660ff1681526020016000820160019054906101000a900460ff1660ff1660ff16815260200160018201805461029a90611b8a565b80601f01602080910402602001604051908101604052809291908181526020018280546102c690611b8a565b80156103135780601f106102e857610100808354040283529160200191610313565b820191906000526020600020905b8154815290600101906020018083116102f657829003601f168201915b5050505050815260200160028201805461032c90611b8a565b80601f016020809104026020016040519081016040528092919081815260200182805461035890611b8a565b80156103a55780601f1061037a576101008083540402835291602001916103a5565b820191906000526020600020905b81548152906001019060200180831161038857829003601f168201915b50505050508152505090506001816000015160ff16146103ca576000925050506103e9565b600160008360ff1660ff16815260200190815260200160002054925050505b92915050565b6103f761144b565b600460006005858560405161040d929190611b42565b908152602001604051809103902060009054906101000a900460ff1660ff1660ff1681526020019081526020016000206040518060800160405290816000820160009054906101000a900460ff1660ff1660ff1681526020016000820160019054906101000a900460ff1660ff1660ff16815260200160018201805461049290611b8a565b80601f01602080910402602001604051908101604052809291908181526020018280546104be90611b8a565b801561050b5780601f106104e05761010080835404028352916020019161050b565b820191906000526020600020905b8154815290600101906020018083116104ee57829003601f168201915b5050505050815260200160028201805461052490611b8a565b80601f016020809104026020016040519081016040528092919081815260200182805461055090611b8a565b801561059d5780601f106105725761010080835404028352916020019161059d565b820191906000526020600020905b81548152906001019060200180831161058057829003601f168201915b505050505081525050905092915050565b60048060008560ff1660ff16815260200190815260200160002060000160006101000a81548160ff021916908360ff1602179055508181600360008660ff1660ff168152602001908152602001600020919061060b929190611479565b50505050565b6002600460008560ff1660ff16815260200190815260200160002060000160006101000a81548160ff021916908360ff16021790555060405180604001604052808373ffffffffffffffffffffffffffffffffffffffff16815260200182815250600260008560ff1660ff16815260200190815260200160002060008201518160000160006101000a81548173ffffffffffffffffffffffffffffffffffffffff021916908373ffffffffffffffffffffffffffffffffffffffff16021790555060208201518160010155905050505050565b60008060058585858181106106fc576106fb611bbc565b5b905060200281019061070e9190611bfa565b60405161071c929190611b42565b908152602001604051809103902060009054906101000a900460ff1690506000600460008360ff1660ff1681526020019081526020016000206040518060800160405290816000820160009054906101000a900460ff1660ff1660ff1681526020016000820160019054906101000a900460ff1660ff1660ff1681526020016001820180546107aa90611b8a565b80601f01602080910402602001604051908101604052809291908181526020018280546107d690611b8a565b80156108235780601f106107f857610100808354040283529160200191610823565b820191906000526020600020905b81548152906001019060200180831161080657829003601f168201915b5050505050815260200160028201805461083c90611b8a565b80601f016020809104026020016040519081016040528092919081815260200182805461086890611b8a565b80156108b55780601f1061088a576101008083540402835291602001916108b5565b820191906000526020600020905b81548152906001019060200180831161089857829003601f168201915b5050505050815250509050600080826020015160ff16815481106108dc576108db611bbc565b5b9060005260206000200180546108f190611b8a565b80601f016020809104026020016040519081016040528092919081815260200182805461091d90611b8a565b801561096a5780601f1061093f5761010080835404028352916020019161096a565b820191906000526020600020905b81548152906001019060200180831161094d57829003601f168201915b505050505090506109a08787600081811061098857610987611bbc565b5b905060200281019061099a9190611bfa565b83611064565b6109a957600080fd5b6109e8816040518060400160405280600581526020017f506570656c0000000000000000000000000000000000000000000000000000008152506110a5565b15610c70576007851415610a7d57610a3982604001516040518060400160405280600581526020017f4d6f7574680000000000000000000000000000000000000000000000000000008152506110a5565b610a78576040517f08c379a0000000000000000000000000000000000000000000000000000000008152600401610a6f90611cba565b60405180910390fd5b610c6b565b6008851415610b0d57610ac982604001516040518060400160405280600481526020017f45796573000000000000000000000000000000000000000000000000000000008152506110a5565b610b08576040517f08c379a0000000000000000000000000000000000000000000000000000000008152600401610aff90611d26565b60405180910390fd5b610c6a565b6009851415610b9d57610b5982604001516040518060400160405280600481526020017f54797065000000000000000000000000000000000000000000000000000000008152506110a5565b610b98576040517f08c379a0000000000000000000000000000000000000000000000000000000008152600401610b8f90611d92565b60405180910390fd5b610c69565b600a851415610c2d57610be982604001516040518060400160405280600881526020017f4d61726b696e67730000000000000000000000000000000000000000000000008152506110a5565b610c28576040517f08c379a0000000000000000000000000000000000000000000000000000000008152600401610c1f90611dfe565b60405180910390fd5b610c68565b6040517f08c379a0000000000000000000000000000000000000000000000000000000008152600401610c5f90611e6a565b60405180910390fd5b5b5b5b610da6565b610caf816040518060400160405280600881526020017f486173686d6f6e6b0000000000000000000000000000000000000000000000008152506110a5565b15610da5576007851415610d0e57610d0082604001516040518060400160405280600481526020017f4d61736b000000000000000000000000000000000000000000000000000000008152506110a5565b610d0957600080fd5b610da4565b6008851415610d6857610d5a82604001516040518060400160405280600481526020017f54797065000000000000000000000000000000000000000000000000000000008152506110a5565b610d6357600080fd5b610da3565b6040517f08c379a0000000000000000000000000000000000000000000000000000000008152600401610d9a90611e6a565b60405180910390fd5b5b5b5b6001826000015160ff161415610dc057610dbf836110d3565b5b6002826000015160ff161415610dda57610dd983611132565b5b6003826000015160ff161415610df657610df583888861124a565b5b6004826000015160ff161415610e1257610e118388886112a0565b5b8293505050509392505050565b8160058787604051610e32929190611b42565b908152602001604051809103902060006101000a81548160ff021916908360ff1602179055506040518060800160405280600060ff1681526020018260ff16815260200185858080601f016020809104026020016040519081016040528093929190818152602001838380828437600081840152601f19601f82011690508083019250505050505050815260200187878080601f016020809104026020016040519081016040528093929190818152602001838380828437600081840152601f19601f82011690508083019250505050505050815250600460008460ff1660ff16815260200190815260200160002060008201518160000160006101000a81548160ff021916908360ff16021790555060208201518160000160016101000a81548160ff021916908360ff1602179055506040820151816001019080519060200190610f7f9291906114ff565b506060820151816002019080519060200190610f9c9291906114ff565b50905050505050505050565b6001600460008460ff1660ff16815260200190815260200160002060000160006101000a81548160ff021916908360ff16021790555080600160008460ff1660ff168152602001908152602001600020819055505050565b6003600460008560ff1660ff16815260200190815260200160002060000160006101000a81548160ff021916908360ff1602179055508181600360008660ff1660ff168152602001908152602001600020919061105e929190611479565b50505050565b60008151848490501461107a576000905061109e565b81805190602001208484604051611092929190611eba565b60405180910390201490505b9392505050565b600081518351146110b957600090506110cd565b818051906020012083805190602001201490505b92915050565b600160008260ff1660ff1681526020019081526020016000205434101561112f576040517f08c379a000000000000000000000000000000000000000000000000000000000815260040161112690611f1f565b60405180910390fd5b50565b6000600260008360ff1660ff16815260200190815260200160002060000160009054906101000a900473ffffffffffffffffffffffffffffffffffffffff1673ffffffffffffffffffffffffffffffffffffffff1662fdd58e33600260008660ff1660ff168152602001908152602001600020600101546040518363ffffffff1660e01b81526004016111c6929190611f4e565b602060405180830381865afa1580156111e3573d6000803e3d6000fd5b505050506040513d601f19601f820116820180604052508101906112079190611f8c565b11611247576040517f08c379a000000000000000000000000000000000000000000000000000000000815260040161123e9061202b565b60405180910390fd5b50565b600015156112598484846112f7565b15151461129b576040517f08c379a000000000000000000000000000000000000000000000000000000000815260040161129290612097565b60405180910390fd5b505050565b600015156112af8484846112f7565b151515146112f2576040517f08c379a00000000000000000000000000000000000000000000000000000000081526004016112e990612097565b60405180910390fd5b505050565b600080600360008660ff1660ff168152602001908152602001600020805461131e90611b8a565b80601f016020809104026020016040519081016040528092919081815260200182805461134a90611b8a565b80156113975780601f1061136c57610100808354040283529160200191611397565b820191906000526020600020905b81548152906001019060200180831161137a57829003601f168201915b505050505090506000600390505b60068160ff161080156113b6575082155b15611401576113ec8286868460ff168181106113d5576113d4611bbc565b5b90506020028101906113e79190611bfa565b61140a565b925080806113f9906120e6565b9150506113a5565b50509392505050565b6000828290508451146114205760009050611444565b8282604051611430929190611eba565b604051809103902084805190602001201490505b9392505050565b6040518060800160405280600060ff168152602001600060ff16815260200160608152602001606081525090565b82805461148590611b8a565b90600052602060002090601f0160209004810192826114a757600085556114ee565b82601f106114c057803560ff19168380011785556114ee565b828001600101855582156114ee579182015b828111156114ed5782358255916020019190600101906114d2565b5b5090506114fb9190611585565b5090565b82805461150b90611b8a565b90600052602060002090601f01602090048101928261152d5760008555611574565b82601f1061154657805160ff1916838001178555611574565b82800160010185558215611574579182015b82811115611573578251825591602001919060010190611558565b5b5090506115819190611585565b5090565b5b8082111561159e576000816000905550600101611586565b5090565b600080fd5b600080fd5b600080fd5b600080fd5b600080fd5b60008083601f8401126115d1576115d06115ac565b5b8235905067ffffffffffffffff8111156115ee576115ed6115b1565b5b60208301915083600182028301111561160a576116096115b6565b5b9250929050565b60008060208385031215611628576116276115a2565b5b600083013567ffffffffffffffff811115611646576116456115a7565b5b611652858286016115bb565b92509250509250929050565b6000819050919050565b6116718161165e565b82525050565b600060208201905061168c6000830184611668565b92915050565b600060ff82169050919050565b6116a881611692565b82525050565b600081519050919050565b600082825260208201905092915050565b60005b838110156116e85780820151818401526020810190506116cd565b838111156116f7576000848401525b50505050565b6000601f19601f8301169050919050565b6000611719826116ae565b61172381856116b9565b93506117338185602086016116ca565b61173c816116fd565b840191505092915050565b600060808301600083015161175f600086018261169f565b506020830151611772602086018261169f565b506040830151848203604086015261178a828261170e565b915050606083015184820360608601526117a4828261170e565b9150508091505092915050565b600060208201905081810360008301526117cb8184611747565b905092915050565b6117dc81611692565b81146117e757600080fd5b50565b6000813590506117f9816117d3565b92915050565b600080600060408486031215611818576118176115a2565b5b6000611826868287016117ea565b935050602084013567ffffffffffffffff811115611847576118466115a7565b5b611853868287016115bb565b92509250509250925092565b600073ffffffffffffffffffffffffffffffffffffffff82169050919050565b600061188a8261185f565b9050919050565b61189a8161187f565b81146118a557600080fd5b50565b6000813590506118b781611891565b92915050565b6118c68161165e565b81146118d157600080fd5b50565b6000813590506118e3816118bd565b92915050565b600080600060608486031215611902576119016115a2565b5b6000611910868287016117ea565b9350506020611921868287016118a8565b9250506040611932868287016118d4565b9150509250925092565b60008083601f840112611952576119516115ac565b5b8235905067ffffffffffffffff81111561196f5761196e6115b1565b5b60208301915083602082028301111561198b5761198a6115b6565b5b9250929050565b6000806000604084860312156119ab576119aa6115a2565b5b600084013567ffffffffffffffff8111156119c9576119c86115a7565b5b6119d58682870161193c565b935093505060206119e8868287016118d4565b9150509250925092565b6119fb81611692565b82525050565b6000602082019050611a1660008301846119f2565b92915050565b60008060008060008060808789031215611a3957611a386115a2565b5b600087013567ffffffffffffffff811115611a5757611a566115a7565b5b611a6389828a016115bb565b9650965050602087013567ffffffffffffffff811115611a8657611a856115a7565b5b611a9289828a016115bb565b94509450506040611aa589828a016117ea565b9250506060611ab689828a016117ea565b9150509295509295509295565b60008060408385031215611ada57611ad96115a2565b5b6000611ae8858286016117ea565b9250506020611af9858286016118d4565b9150509250929050565b600081905092915050565b82818337600083830152505050565b6000611b298385611b03565b9350611b36838584611b0e565b82840190509392505050565b6000611b4f828486611b1d565b91508190509392505050565b7f4e487b7100000000000000000000000000000000000000000000000000000000600052602260045260246000fd5b60006002820490506001821680611ba257607f821691505b60208210811415611bb657611bb5611b5b565b5b50919050565b7f4e487b7100000000000000000000000000000000000000000000000000000000600052603260045260246000fd5b600080fd5b600080fd5b600080fd5b60008083356001602003843603038112611c1757611c16611beb565b5b80840192508235915067ffffffffffffffff821115611c3957611c38611bf0565b5b602083019250600182023603831315611c5557611c54611bf5565b5b509250929050565b600082825260208201905092915050565b7f696e76616c6964206d6f75746800000000000000000000000000000000000000600082015250565b6000611ca4600d83611c5d565b9150611caf82611c6e565b602082019050919050565b60006020820190508181036000830152611cd381611c97565b9050919050565b7f696e766c61696420657965730000000000000000000000000000000000000000600082015250565b6000611d10600c83611c5d565b9150611d1b82611cda565b602082019050919050565b60006020820190508181036000830152611d3f81611d03565b9050919050565b7f696e766c61696420747970650000000000000000000000000000000000000000600082015250565b6000611d7c600c83611c5d565b9150611d8782611d46565b602082019050919050565b60006020820190508181036000830152611dab81611d6f565b9050919050565b7f696e766c616964206d61726b696e677300000000000000000000000000000000600082015250565b6000611de8601083611c5d565b9150611df382611db2565b602082019050919050565b60006020820190508181036000830152611e1781611ddb565b9050919050565b7f696e76616c696420696e64657800000000000000000000000000000000000000600082015250565b6000611e54600d83611c5d565b9150611e5f82611e1e565b602082019050919050565b60006020820190508181036000830152611e8381611e47565b9050919050565b600081905092915050565b6000611ea18385611e8a565b9350611eae838584611b0e565b82840190509392505050565b6000611ec7828486611e95565b91508190509392505050565b7f6e6f7420656e6f75676820455448000000000000000000000000000000000000600082015250565b6000611f09600e83611c5d565b9150611f1482611ed3565b602082019050919050565b60006020820190508181036000830152611f3881611efc565b9050919050565b611f488161187f565b82525050565b6000604082019050611f636000830185611f3f565b611f706020830184611668565b9392505050565b600081519050611f86816118bd565b92915050565b600060208284031215611fa257611fa16115a2565b5b6000611fb084828501611f77565b91505092915050565b7f596f7520646f206e6f742068617665207468652072657175697265642070696c60008201527f6c00000000000000000000000000000000000000000000000000000000000000602082015250565b6000612015602183611c5d565b915061202082611fb9565b604082019050919050565b6000602082019050818103600083015261204481612008565b9050919050565b7f596f7520616c7265616479206861766520746869732074726169740000000000600082015250565b6000612081601b83611c5d565b915061208c8261204b565b602082019050919050565b600060208201905081810360008301526120b081612074565b9050919050565b7f4e487b7100000000000000000000000000000000000000000000000000000000600052601160045260246000fd5b60006120f182611692565b915060ff821415612105576121046120b7565b5b60018201905091905056fea2646970667358221220b61b260c31e104642eafe3e7d952bc4f88b70e50642f31c272d97c58b9cb84b464736f6c634300080a0033",
  "linkReferences": {},
  "deployedLinkReferences": {}
}