{
  "_format": "hh-sol-artifact-1",
  "contractName": "CheckerValidatorV2",
  "sourceName": "contracts/validators/CheckerValidatorV2.sol",
  "abi": [
    {
      "inputs": [
        {
          "internalType": "contract IMintPipe",
          "name": "_core",
          "type": "address"
        },
        {
          "internalType": "contract IERC1155",
          "name": "_original",
          "type": "address"
        },
        {
          "internalType": "uint256",
          "name": "newId_",
          "type": "uint256"
        },
        {
          "internalType": "contract Authority",
          "name": "authority",
          "type": "address"
        }
      ],
      "stateMutability": "nonpayable",
      "type": "constructor"
    },
    {
      "anonymous": false,
      "inputs": [
        {
          "indexed": true,
          "internalType": "address",
          "name": "user",
          "type": "address"
        },
        {
          "indexed": true,
          "internalType": "contract Authority",
          "name": "newAuthority",
          "type": "address"
        }
      ],
      "name": "AuthorityUpdated",
      "type": "event"
    },
    {
      "anonymous": false,
      "inputs": [
        {
          "indexed": true,
          "internalType": "address",
          "name": "user",
          "type": "address"
        },
        {
          "indexed": true,
          "internalType": "address",
          "name": "newOwner",
          "type": "address"
        }
      ],
      "name": "OwnerUpdated",
      "type": "event"
    },
    {
      "inputs": [],
      "name": "authority",
      "outputs": [
        {
          "internalType": "contract Authority",
          "name": "",
          "type": "address"
        }
      ],
      "stateMutability": "view",
      "type": "function"
    },
    {
      "inputs": [
        {
          "internalType": "uint256[]",
          "name": "ids",
          "type": "uint256[]"
        }
      ],
      "name": "checkAllRedemption",
      "outputs": [
        {
          "internalType": "bool[]",
          "name": "",
          "type": "bool[]"
        }
      ],
      "stateMutability": "view",
      "type": "function"
    },
    {
      "inputs": [],
      "name": "core",
      "outputs": [
        {
          "internalType": "contract IMintPipe",
          "name": "",
          "type": "address"
        }
      ],
      "stateMutability": "view",
      "type": "function"
    },
    {
      "inputs": [],
      "name": "originalToken",
      "outputs": [
        {
          "internalType": "contract IERC1155",
          "name": "",
          "type": "address"
        }
      ],
      "stateMutability": "view",
      "type": "function"
    },
    {
      "inputs": [],
      "name": "owner",
      "outputs": [
        {
          "internalType": "address",
          "name": "",
          "type": "address"
        }
      ],
      "stateMutability": "view",
      "type": "function"
    },
    {
      "inputs": [
        {
          "internalType": "uint256[]",
          "name": "ids",
          "type": "uint256[]"
        }
      ],
      "name": "redeemAll",
      "outputs": [],
      "stateMutability": "nonpayable",
      "type": "function"
    },
    {
      "inputs": [
        {
          "internalType": "uint256",
          "name": "",
          "type": "uint256"
        }
      ],
      "name": "redeemed",
      "outputs": [
        {
          "internalType": "bool",
          "name": "",
          "type": "bool"
        }
      ],
      "stateMutability": "view",
      "type": "function"
    },
    {
      "inputs": [
        {
          "internalType": "address",
          "name": "",
          "type": "address"
        }
      ],
      "name": "remaining",
      "outputs": [
        {
          "internalType": "uint256",
          "name": "",
          "type": "uint256"
        }
      ],
      "stateMutability": "view",
      "type": "function"
    },
    {
      "inputs": [
        {
          "internalType": "contract Authority",
          "name": "newAuthority",
          "type": "address"
        }
      ],
      "name": "setAuthority",
      "outputs": [],
      "stateMutability": "nonpayable",
      "type": "function"
    },
    {
      "inputs": [
        {
          "internalType": "contract IMintPipe",
          "name": "_core",
          "type": "address"
        }
      ],
      "name": "setCore",
      "outputs": [],
      "stateMutability": "nonpayable",
      "type": "function"
    },
    {
      "inputs": [
        {
          "internalType": "address",
          "name": "newOwner",
          "type": "address"
        }
      ],
      "name": "setOwner",
      "outputs": [],
      "stateMutability": "nonpayable",
      "type": "function"
    },
    {
      "inputs": [
        {
          "internalType": "address",
          "name": "_recipient",
          "type": "address"
        },
        {
          "internalType": "uint256",
          "name": "",
          "type": "uint256"
        },
        {
          "internalType": "uint256[]",
          "name": "",
          "type": "uint256[]"
        },
        {
          "internalType": "string",
          "name": "",
          "type": "string"
        },
        {
          "internalType": "bytes",
          "name": "",
          "type": "bytes"
        }
      ],
      "name": "validate",
      "outputs": [],
      "stateMutability": "nonpayable",
      "type": "function"
    }
  ],
  "bytecode": "0x60a06040523480156200001157600080fd5b5060405162001d7b38038062001d7b833981810160405281019062000037919062000347565b3381816000806101000a81548173ffffffffffffffffffffffffffffffffffffffff021916908373ffffffffffffffffffffffffffffffffffffffff16021790555080600160006101000a81548173ffffffffffffffffffffffffffffffffffffffff021916908373ffffffffffffffffffffffffffffffffffffffff1602179055508173ffffffffffffffffffffffffffffffffffffffff163373ffffffffffffffffffffffffffffffffffffffff167f8292fce18fa69edf4db7b94ea2e58241df0ae57f97e0a6c9b29067028bf92d7660405160405180910390a38073ffffffffffffffffffffffffffffffffffffffff163373ffffffffffffffffffffffffffffffffffffffff167fa3396fd7f6e0a21b50e5089d2da70d5ac0a3bbbd1f617a93f134b7638998019860405160405180910390a35050816080818152505083600560006101000a81548173ffffffffffffffffffffffffffffffffffffffff021916908373ffffffffffffffffffffffffffffffffffffffff16021790555082600260006101000a81548173ffffffffffffffffffffffffffffffffffffffff021916908373ffffffffffffffffffffffffffffffffffffffff16021790555050505050620003b9565b600080fd5b600073ffffffffffffffffffffffffffffffffffffffff82169050919050565b6000620002368262000209565b9050919050565b60006200024a8262000229565b9050919050565b6200025c816200023d565b81146200026857600080fd5b50565b6000815190506200027c8162000251565b92915050565b60006200028f8262000229565b9050919050565b620002a18162000282565b8114620002ad57600080fd5b50565b600081519050620002c18162000296565b92915050565b6000819050919050565b620002dc81620002c7565b8114620002e857600080fd5b50565b600081519050620002fc81620002d1565b92915050565b60006200030f8262000229565b9050919050565b620003218162000302565b81146200032d57600080fd5b50565b600081519050620003418162000316565b92915050565b6000806000806080858703121562000364576200036362000204565b5b600062000374878288016200026b565b94505060206200038787828801620002b0565b93505060406200039a87828801620002eb565b9250506060620003ad8782880162000330565b91505092959194509250565b6080516119a6620003d56000396000610a3e01526119a66000f3fe608060405234801561001057600080fd5b50600436106100b35760003560e01c80637ed0f1c1116100715780637ed0f1c11461017657806380009630146101a65780638da5cb5b146101c2578063b399b0bc146101e0578063bf7e214f14610210578063f2f4eb261461022e576100b3565b806216bf81146100b85780630e7c1cb5146100d457806313af4035146100f25780635053b1bf1461010e57806362749f051461013e5780637a9e5e4b1461015a575b600080fd5b6100d260048036038101906100cd9190610d99565b61024c565b005b6100dc6102ac565b6040516100e99190610e65565b60405180910390f35b61010c60048036038101906101079190610ebe565b6102d2565b005b61012860048036038101906101239190610d99565b6103dc565b6040516101359190610fb5565b60405180910390f35b610158600480360381019061015391906111a4565b61049f565b005b610174600480360381019061016f91906112ba565b6104b1565b005b610190600480360381019061018b91906112e7565b610672565b60405161019d9190611323565b60405180910390f35b6101c060048036038101906101bb919061137c565b610692565b005b6101ca610743565b6040516101d791906113b8565b60405180910390f35b6101fa60048036038101906101f59190610ebe565b610767565b60405161020791906113e2565b60405180910390f35b61021861077f565b604051610225919061141e565b60405180910390f35b6102366107a5565b604051610243919061145a565b60405180910390f35b60005b82829050811015610297576102848383838181106102705761026f611475565b5b9050602002013561027f6107cb565b6107d3565b808061028f906114d3565b91505061024f565b506102a86102a36107cb565b6109a0565b5050565b600260009054906101000a900473ffffffffffffffffffffffffffffffffffffffff1681565b610300336000357fffffffff0000000000000000000000000000000000000000000000000000000016610bb8565b61033f576040517f08c379a000000000000000000000000000000000000000000000000000000000815260040161033690611579565b60405180910390fd5b806000806101000a81548173ffffffffffffffffffffffffffffffffffffffff021916908373ffffffffffffffffffffffffffffffffffffffff1602179055508073ffffffffffffffffffffffffffffffffffffffff163373ffffffffffffffffffffffffffffffffffffffff167f8292fce18fa69edf4db7b94ea2e58241df0ae57f97e0a6c9b29067028bf92d7660405160405180910390a350565b606060008383905067ffffffffffffffff8111156103fd576103fc611079565b5b60405190808252806020026020018201604052801561042b5781602001602082028036833780820191505090505b50905060005b81518110156104945761045c8585838181106104505761044f611475565b5b90506020020135610cf6565b82828151811061046f5761046e611475565b5b602002602001019015159081151581525050808061048c906114d3565b915050610431565b508091505092915050565b6104a8876109a0565b50505050505050565b60008054906101000a900473ffffffffffffffffffffffffffffffffffffffff1673ffffffffffffffffffffffffffffffffffffffff163373ffffffffffffffffffffffffffffffffffffffff1614806105cb5750600160009054906101000a900473ffffffffffffffffffffffffffffffffffffffff1673ffffffffffffffffffffffffffffffffffffffff1663b700961333306000357fffffffff00000000000000000000000000000000000000000000000000000000166040518463ffffffff1660e01b8152600401610589939291906115d4565b602060405180830381865afa1580156105a6573d6000803e3d6000fd5b505050506040513d601f19601f820116820180604052508101906105ca9190611637565b5b6105d457600080fd5b80600160006101000a81548173ffffffffffffffffffffffffffffffffffffffff021916908373ffffffffffffffffffffffffffffffffffffffff1602179055508073ffffffffffffffffffffffffffffffffffffffff163373ffffffffffffffffffffffffffffffffffffffff167fa3396fd7f6e0a21b50e5089d2da70d5ac0a3bbbd1f617a93f134b7638998019860405160405180910390a350565b60036020528060005260406000206000915054906101000a900460ff1681565b6106c0336000357fffffffff0000000000000000000000000000000000000000000000000000000016610bb8565b6106ff576040517f08c379a00000000000000000000000000000000000000000000000000000000081526004016106f690611579565b60405180910390fd5b80600560006101000a81548173ffffffffffffffffffffffffffffffffffffffff021916908373ffffffffffffffffffffffffffffffffffffffff16021790555050565b60008054906101000a900473ffffffffffffffffffffffffffffffffffffffff1681565b60046020528060005260406000206000915090505481565b600160009054906101000a900473ffffffffffffffffffffffffffffffffffffffff1681565b600560009054906101000a900473ffffffffffffffffffffffffffffffffffffffff1681565b600033905090565b6000600260009054906101000a900473ffffffffffffffffffffffffffffffffffffffff1673ffffffffffffffffffffffffffffffffffffffff1662fdd58e83856040518363ffffffff1660e01b8152600401610831929190611664565b602060405180830381865afa15801561084e573d6000803e3d6000fd5b505050506040513d601f19601f8201168201806040525081019061087291906116a2565b116108b2576040517f08c379a00000000000000000000000000000000000000000000000000000000081526004016108a990611741565b60405180910390fd5b600015156003600084815260200190815260200160002060009054906101000a900460ff16151514610919576040517f08c379a0000000000000000000000000000000000000000000000000000000008152600401610910906117ad565b60405180910390fd5b60016003600084815260200190815260200160002060006101000a81548160ff0219169083151502179055506001600460008373ffffffffffffffffffffffffffffffffffffffff1673ffffffffffffffffffffffffffffffffffffffff168152602001908152602001600020600082825461099591906117cd565b925050819055505050565b6000600167ffffffffffffffff8111156109bd576109bc611079565b5b6040519080825280602002602001820160405280156109eb5781602001602082028036833780820191505090505b5090506000600167ffffffffffffffff811115610a0b57610a0a611079565b5b604051908082528060200260200182016040528015610a395781602001602082028036833780820191505090505b5090507f000000000000000000000000000000000000000000000000000000000000000082600081518110610a7157610a70611475565b5b602002602001018181525050600460008473ffffffffffffffffffffffffffffffffffffffff1673ffffffffffffffffffffffffffffffffffffffff1681526020019081526020016000205481600081518110610ad157610ad0611475565b5b6020026020010181815250506000600460008573ffffffffffffffffffffffffffffffffffffffff1673ffffffffffffffffffffffffffffffffffffffff16815260200190815260200160002081905550600560009054906101000a900473ffffffffffffffffffffffffffffffffffffffff1673ffffffffffffffffffffffffffffffffffffffff1663934eddf88484846040518463ffffffff1660e01b8152600401610b8193929190611918565b600060405180830381600087803b158015610b9b57600080fd5b505af1158015610baf573d6000803e3d6000fd5b50505050505050565b600080600160009054906101000a900473ffffffffffffffffffffffffffffffffffffffff169050600073ffffffffffffffffffffffffffffffffffffffff168173ffffffffffffffffffffffffffffffffffffffff1614158015610c9757508073ffffffffffffffffffffffffffffffffffffffff1663b70096138530866040518463ffffffff1660e01b8152600401610c55939291906115d4565b602060405180830381865afa158015610c72573d6000803e3d6000fd5b505050506040513d601f19601f82011682018060405250810190610c969190611637565b5b80610ced575060008054906101000a900473ffffffffffffffffffffffffffffffffffffffff1673ffffffffffffffffffffffffffffffffffffffff168473ffffffffffffffffffffffffffffffffffffffff16145b91505092915050565b60006003600083815260200190815260200160002060009054906101000a900460ff169050919050565b6000604051905090565b600080fd5b600080fd5b600080fd5b600080fd5b600080fd5b60008083601f840112610d5957610d58610d34565b5b8235905067ffffffffffffffff811115610d7657610d75610d39565b5b602083019150836020820283011115610d9257610d91610d3e565b5b9250929050565b60008060208385031215610db057610daf610d2a565b5b600083013567ffffffffffffffff811115610dce57610dcd610d2f565b5b610dda85828601610d43565b92509250509250929050565b600073ffffffffffffffffffffffffffffffffffffffff82169050919050565b6000819050919050565b6000610e2b610e26610e2184610de6565b610e06565b610de6565b9050919050565b6000610e3d82610e10565b9050919050565b6000610e4f82610e32565b9050919050565b610e5f81610e44565b82525050565b6000602082019050610e7a6000830184610e56565b92915050565b6000610e8b82610de6565b9050919050565b610e9b81610e80565b8114610ea657600080fd5b50565b600081359050610eb881610e92565b92915050565b600060208284031215610ed457610ed3610d2a565b5b6000610ee284828501610ea9565b91505092915050565b600081519050919050565b600082825260208201905092915050565b6000819050602082019050919050565b60008115159050919050565b610f2c81610f17565b82525050565b6000610f3e8383610f23565b60208301905092915050565b6000602082019050919050565b6000610f6282610eeb565b610f6c8185610ef6565b9350610f7783610f07565b8060005b83811015610fa8578151610f8f8882610f32565b9750610f9a83610f4a565b925050600181019050610f7b565b5085935050505092915050565b60006020820190508181036000830152610fcf8184610f57565b905092915050565b6000819050919050565b610fea81610fd7565b8114610ff557600080fd5b50565b60008135905061100781610fe1565b92915050565b60008083601f84011261102357611022610d34565b5b8235905067ffffffffffffffff8111156110405761103f610d39565b5b60208301915083600182028301111561105c5761105b610d3e565b5b9250929050565b600080fd5b6000601f19601f8301169050919050565b7f4e487b7100000000000000000000000000000000000000000000000000000000600052604160045260246000fd5b6110b182611068565b810181811067ffffffffffffffff821117156110d0576110cf611079565b5b80604052505050565b60006110e3610d20565b90506110ef82826110a8565b919050565b600067ffffffffffffffff82111561110f5761110e611079565b5b61111882611068565b9050602081019050919050565b82818337600083830152505050565b6000611147611142846110f4565b6110d9565b90508281526020810184848401111561116357611162611063565b5b61116e848285611125565b509392505050565b600082601f83011261118b5761118a610d34565b5b813561119b848260208601611134565b91505092915050565b600080600080600080600060a0888a0312156111c3576111c2610d2a565b5b60006111d18a828b01610ea9565b97505060206111e28a828b01610ff8565b965050604088013567ffffffffffffffff81111561120357611202610d2f565b5b61120f8a828b01610d43565b9550955050606088013567ffffffffffffffff81111561123257611231610d2f565b5b61123e8a828b0161100d565b9350935050608088013567ffffffffffffffff81111561126157611260610d2f565b5b61126d8a828b01611176565b91505092959891949750929550565b600061128782610e80565b9050919050565b6112978161127c565b81146112a257600080fd5b50565b6000813590506112b48161128e565b92915050565b6000602082840312156112d0576112cf610d2a565b5b60006112de848285016112a5565b91505092915050565b6000602082840312156112fd576112fc610d2a565b5b600061130b84828501610ff8565b91505092915050565b61131d81610f17565b82525050565b60006020820190506113386000830184611314565b92915050565b600061134982610e80565b9050919050565b6113598161133e565b811461136457600080fd5b50565b60008135905061137681611350565b92915050565b60006020828403121561139257611391610d2a565b5b60006113a084828501611367565b91505092915050565b6113b281610e80565b82525050565b60006020820190506113cd60008301846113a9565b92915050565b6113dc81610fd7565b82525050565b60006020820190506113f760008301846113d3565b92915050565b600061140882610e32565b9050919050565b611418816113fd565b82525050565b6000602082019050611433600083018461140f565b92915050565b600061144482610e32565b9050919050565b61145481611439565b82525050565b600060208201905061146f600083018461144b565b92915050565b7f4e487b7100000000000000000000000000000000000000000000000000000000600052603260045260246000fd5b7f4e487b7100000000000000000000000000000000000000000000000000000000600052601160045260246000fd5b60006114de82610fd7565b91507fffffffffffffffffffffffffffffffffffffffffffffffffffffffffffffffff821415611511576115106114a4565b5b600182019050919050565b600082825260208201905092915050565b7f554e415554484f52495a45440000000000000000000000000000000000000000600082015250565b6000611563600c8361151c565b915061156e8261152d565b602082019050919050565b6000602082019050818103600083015261159281611556565b9050919050565b60007fffffffff0000000000000000000000000000000000000000000000000000000082169050919050565b6115ce81611599565b82525050565b60006060820190506115e960008301866113a9565b6115f660208301856113a9565b61160360408301846115c5565b949350505050565b61161481610f17565b811461161f57600080fd5b50565b6000815190506116318161160b565b92915050565b60006020828403121561164d5761164c610d2a565b5b600061165b84828501611622565b91505092915050565b600060408201905061167960008301856113a9565b61168660208301846113d3565b9392505050565b60008151905061169c81610fe1565b92915050565b6000602082840312156116b8576116b7610d2a565b5b60006116c68482850161168d565b91505092915050565b7f53656e646572206d75737420686f6c6420616c6c20746f6b656e7320666f722060008201527f6d6967726174696f6e0000000000000000000000000000000000000000000000602082015250565b600061172b60298361151c565b9150611736826116cf565b604082019050919050565b6000602082019050818103600083015261175a8161171e565b9050919050565b7f546f6b656e2068617320616c7265616479206265656e2072656465656d656400600082015250565b6000611797601f8361151c565b91506117a282611761565b602082019050919050565b600060208201905081810360008301526117c68161178a565b9050919050565b60006117d882610fd7565b91506117e383610fd7565b9250827fffffffffffffffffffffffffffffffffffffffffffffffffffffffffffffffff03821115611818576118176114a4565b5b828201905092915050565b600081519050919050565b600082825260208201905092915050565b6000819050602082019050919050565b61185881610fd7565b82525050565b600061186a838361184f565b60208301905092915050565b6000602082019050919050565b600061188e82611823565b611898818561182e565b93506118a38361183f565b8060005b838110156118d45781516118bb888261185e565b97506118c683611876565b9250506001810190506118a7565b5085935050505092915050565b600082825260208201905092915050565b50565b60006119026000836118e1565b915061190d826118f2565b600082019050919050565b600060808201905061192d60008301866113a9565b818103602083015261193f8185611883565b905081810360408301526119538184611883565b90508181036060830152611966816118f5565b905094935050505056fea26469706673582212206bf69635a2a41d6f8d205da5bfd1d779237a7e357ae9239d67eb757214df04cd64736f6c634300080a0033",
  "linkReferences": {},
  "deployedLinkReferences": {}
}