{
  "_format": "hh-sol-artifact-1",
  "contractName": "CharacterValidator",
  "sourceName": "contracts/validators/CharacterValidator.sol",
  "abi": [
    {
      "inputs": [
        {
          "internalType": "contract ICore",
          "name": "_core",
          "type": "address"
        },
        {
          "internalType": "contract SelectableOptions",
          "name": "_selectableOptions",
          "type": "address"
        },
        {
          "internalType": "contract IWearables",
          "name": "_wearableOptions",
          "type": "address"
        },
        {
          "internalType": "contract IAugments",
          "name": "_augmentOptions",
          "type": "address"
        },
        {
          "internalType": "contract ICharacter",
          "name": "_character",
          "type": "address"
        },
        {
          "internalType": "uint32",
          "name": "charPerCall_",
          "type": "uint32"
        },
        {
          "internalType": "address",
          "name": "requester_",
          "type": "address"
        }
      ],
      "stateMutability": "nonpayable",
      "type": "constructor"
    },
    {
      "anonymous": false,
      "inputs": [
        {
          "indexed": true,
          "internalType": "address",
          "name": "previousOwner",
          "type": "address"
        },
        {
          "indexed": true,
          "internalType": "address",
          "name": "newOwner",
          "type": "address"
        }
      ],
      "name": "OwnershipTransferred",
      "type": "event"
    },
    {
      "inputs": [],
      "name": "MAX_INT",
      "outputs": [
        {
          "internalType": "uint256",
          "name": "",
          "type": "uint256"
        }
      ],
      "stateMutability": "view",
      "type": "function"
    },
    {
      "inputs": [],
      "name": "augmentOptions",
      "outputs": [
        {
          "internalType": "contract IAugments",
          "name": "",
          "type": "address"
        }
      ],
      "stateMutability": "view",
      "type": "function"
    },
    {
      "inputs": [],
      "name": "character",
      "outputs": [
        {
          "internalType": "contract ICharacter",
          "name": "",
          "type": "address"
        }
      ],
      "stateMutability": "view",
      "type": "function"
    },
    {
      "inputs": [],
      "name": "core",
      "outputs": [
        {
          "internalType": "contract ICore",
          "name": "",
          "type": "address"
        }
      ],
      "stateMutability": "view",
      "type": "function"
    },
    {
      "inputs": [
        {
          "internalType": "address[]",
          "name": "pillboosts",
          "type": "address[]"
        },
        {
          "internalType": "string[]",
          "name": "traitsPlus",
          "type": "string[]"
        }
      ],
      "name": "createCharacter",
      "outputs": [],
      "stateMutability": "payable",
      "type": "function"
    },
    {
      "inputs": [
        {
          "internalType": "address[]",
          "name": "pillboostsL1",
          "type": "address[]"
        },
        {
          "internalType": "address[]",
          "name": "pillboostsL2",
          "type": "address[]"
        },
        {
          "internalType": "string[]",
          "name": "traitsPlus",
          "type": "string[]"
        }
      ],
      "name": "createCharacterL1",
      "outputs": [],
      "stateMutability": "payable",
      "type": "function"
    },
    {
      "inputs": [],
      "name": "nextId",
      "outputs": [
        {
          "internalType": "uint256",
          "name": "",
          "type": "uint256"
        }
      ],
      "stateMutability": "view",
      "type": "function"
    },
    {
      "inputs": [],
      "name": "owner",
      "outputs": [
        {
          "internalType": "address",
          "name": "",
          "type": "address"
        }
      ],
      "stateMutability": "view",
      "type": "function"
    },
    {
      "inputs": [],
      "name": "renounceOwnership",
      "outputs": [],
      "stateMutability": "nonpayable",
      "type": "function"
    },
    {
      "inputs": [],
      "name": "selectableOptions",
      "outputs": [
        {
          "internalType": "contract SelectableOptions",
          "name": "",
          "type": "address"
        }
      ],
      "stateMutability": "view",
      "type": "function"
    },
    {
      "inputs": [
        {
          "internalType": "address",
          "name": "newOwner",
          "type": "address"
        }
      ],
      "name": "transferOwnership",
      "outputs": [],
      "stateMutability": "nonpayable",
      "type": "function"
    },
    {
      "inputs": [],
      "name": "wearableOptions",
      "outputs": [
        {
          "internalType": "contract IWearables",
          "name": "",
          "type": "address"
        }
      ],
      "stateMutability": "view",
      "type": "function"
    },
    {
      "inputs": [],
      "name": "wearables",
      "outputs": [
        {
          "internalType": "contract IWearables",
          "name": "",
          "type": "address"
        }
      ],
      "stateMutability": "view",
      "type": "function"
    }
  ],
  "bytecode": "0x608060405260006008553480156200001657600080fd5b50604051620028883803806200288883398181016040528101906200003c9190620004e0565b6200005c620000506200021060201b60201c565b6200021860201b60201c565b86600260006101000a81548173ffffffffffffffffffffffffffffffffffffffff021916908373ffffffffffffffffffffffffffffffffffffffff16021790555081600b60006101000a81548163ffffffff021916908363ffffffff16021790555085600460006101000a81548173ffffffffffffffffffffffffffffffffffffffff021916908373ffffffffffffffffffffffffffffffffffffffff16021790555084600560006101000a81548173ffffffffffffffffffffffffffffffffffffffff021916908373ffffffffffffffffffffffffffffffffffffffff16021790555083600660006101000a81548173ffffffffffffffffffffffffffffffffffffffff021916908373ffffffffffffffffffffffffffffffffffffffff16021790555082600760006101000a81548173ffffffffffffffffffffffffffffffffffffffff021916908373ffffffffffffffffffffffffffffffffffffffff16021790555080600160006101000a81548173ffffffffffffffffffffffffffffffffffffffff021916908373ffffffffffffffffffffffffffffffffffffffff1602179055505050505050505062000593565b600033905090565b60008060009054906101000a900473ffffffffffffffffffffffffffffffffffffffff169050816000806101000a81548173ffffffffffffffffffffffffffffffffffffffff021916908373ffffffffffffffffffffffffffffffffffffffff1602179055508173ffffffffffffffffffffffffffffffffffffffff168173ffffffffffffffffffffffffffffffffffffffff167f8be0079c531659141344cd1fd0a4f28419497f9722a3daafe3b4186f6b6457e060405160405180910390a35050565b600080fd5b600073ffffffffffffffffffffffffffffffffffffffff82169050919050565b60006200030e82620002e1565b9050919050565b6000620003228262000301565b9050919050565b620003348162000315565b81146200034057600080fd5b50565b600081519050620003548162000329565b92915050565b6000620003678262000301565b9050919050565b62000379816200035a565b81146200038557600080fd5b50565b60008151905062000399816200036e565b92915050565b6000620003ac8262000301565b9050919050565b620003be816200039f565b8114620003ca57600080fd5b50565b600081519050620003de81620003b3565b92915050565b6000620003f18262000301565b9050919050565b6200040381620003e4565b81146200040f57600080fd5b50565b6000815190506200042381620003f8565b92915050565b6000620004368262000301565b9050919050565b620004488162000429565b81146200045457600080fd5b50565b60008151905062000468816200043d565b92915050565b600063ffffffff82169050919050565b62000489816200046e565b81146200049557600080fd5b50565b600081519050620004a9816200047e565b92915050565b620004ba8162000301565b8114620004c657600080fd5b50565b600081519050620004da81620004af565b92915050565b600080600080600080600060e0888a031215620005025762000501620002dc565b5b6000620005128a828b0162000343565b9750506020620005258a828b0162000388565b9650506040620005388a828b01620003cd565b95505060606200054b8a828b0162000412565b94505060806200055e8a828b0162000457565b93505060a0620005718a828b0162000498565b92505060c0620005848a828b01620004c9565b91505092959891949750929550565b6122e580620005a36000396000f3fe6080604052600436106100c25760003560e01c8063715018a61161007f5780639b1c8821116100595780639b1c882114610227578063df7d765714610252578063f2f4eb261461026e578063f2fde38b14610299576100c2565b8063715018a6146101c957806382cd77de146101e05780638da5cb5b146101fc576100c2565b8063098d3228146100c757806312254809146100f257806345eb5d181461011d5780634d2e03a01461014857806359bfc9141461017357806361b8ce8c1461019e575b600080fd5b3480156100d357600080fd5b506100dc6102c2565b6040516100e9919061140e565b60405180910390f35b3480156100fe57600080fd5b506101076102e6565b60405161011491906114a8565b60405180910390f35b34801561012957600080fd5b5061013261030c565b60405161013f91906114a8565b60405180910390f35b34801561015457600080fd5b5061015d610332565b60405161016a91906114e4565b60405180910390f35b34801561017f57600080fd5b50610188610358565b6040516101959190611520565b60405180910390f35b3480156101aa57600080fd5b506101b361037e565b6040516101c0919061140e565b60405180910390f35b3480156101d557600080fd5b506101de610384565b005b6101fa60048036038101906101f59190611600565b61040c565b005b34801561020857600080fd5b50610211610435565b60405161021e91906116d5565b60405180910390f35b34801561023357600080fd5b5061023c61045e565b6040516102499190611711565b60405180910390f35b61026c6004803603810190610267919061172c565b610484565b005b34801561027a57600080fd5b506102836104ab565b60405161029091906117ce565b60405180910390f35b3480156102a557600080fd5b506102c060048036038101906102bb9190611815565b6104d1565b005b7fffffffffffffffffffffffffffffffffffffffffffffffffffffffffffffffff81565b600360009054906101000a900473ffffffffffffffffffffffffffffffffffffffff1681565b600560009054906101000a900473ffffffffffffffffffffffffffffffffffffffff1681565b600760009054906101000a900473ffffffffffffffffffffffffffffffffffffffff1681565b600660009054906101000a900473ffffffffffffffffffffffffffffffffffffffff1681565b60085481565b61038c6105c9565b73ffffffffffffffffffffffffffffffffffffffff166103aa610435565b73ffffffffffffffffffffffffffffffffffffffff1614610400576040517f08c379a00000000000000000000000000000000000000000000000000000000081526004016103f79061189f565b60405180910390fd5b61040a60006105d1565b565b61042d84848484600860008154610422906118ee565b919050819055610695565b505050505050565b60008060009054906101000a900473ffffffffffffffffffffffffffffffffffffffff16905090565b600460009054906101000a900473ffffffffffffffffffffffffffffffffffffffff1681565b6104a58484848460086000815461049a906118ee565b919050819055610695565b50505050565b600260009054906101000a900473ffffffffffffffffffffffffffffffffffffffff1681565b6104d96105c9565b73ffffffffffffffffffffffffffffffffffffffff166104f7610435565b73ffffffffffffffffffffffffffffffffffffffff161461054d576040517f08c379a00000000000000000000000000000000000000000000000000000000081526004016105449061189f565b60405180910390fd5b600073ffffffffffffffffffffffffffffffffffffffff168173ffffffffffffffffffffffffffffffffffffffff1614156105bd576040517f08c379a00000000000000000000000000000000000000000000000000000000081526004016105b4906119a9565b60405180910390fd5b6105c6816105d1565b50565b600033905090565b60008060009054906101000a900473ffffffffffffffffffffffffffffffffffffffff169050816000806101000a81548173ffffffffffffffffffffffffffffffffffffffff021916908373ffffffffffffffffffffffffffffffffffffffff1602179055508173ffffffffffffffffffffffffffffffffffffffff168173ffffffffffffffffffffffffffffffffffffffff167f8be0079c531659141344cd1fd0a4f28419497f9722a3daafe3b4186f6b6457e060405160405180910390a35050565b61069d61139b565b6000600460009054906101000a900473ffffffffffffffffffffffffffffffffffffffff1673ffffffffffffffffffffffffffffffffffffffff1663157eeb62868660078181106106f1576106f06119c9565b5b90506020028101906107039190611a07565b6040518363ffffffff1660e01b8152600401610720929190611ab7565b602060405180830381865afa15801561073d573d6000803e3d6000fd5b505050506040513d601f19601f820116820180604052508101906107619190611b07565b905061080a8585600081811061077a576107796119c9565b5b905060200281019061078c9190611a07565b8080601f016020809104026020016040519081016040528093929190818152602001838380828437600081840152601f19601f820116905080830192505050505050506040518060400160405280600581526020017f506570656c00000000000000000000000000000000000000000000000000000081525061136d565b15610d1f57600460009054906101000a900473ffffffffffffffffffffffffffffffffffffffff1673ffffffffffffffffffffffffffffffffffffffff1663d4eb16dc82878760076040518563ffffffff1660e01b815260040161087093929190611cd3565b60206040518083038185885af115801561088e573d6000803e3d6000fd5b50505050506040513d601f19601f820116820180604052508101906108b39190611d3e565b60ff16826020018181525050600460009054906101000a900473ffffffffffffffffffffffffffffffffffffffff1673ffffffffffffffffffffffffffffffffffffffff1663157eeb6286866008818110610911576109106119c9565b5b90506020028101906109239190611a07565b6040518363ffffffff1660e01b8152600401610940929190611ab7565b602060405180830381865afa15801561095d573d6000803e3d6000fd5b505050506040513d601f19601f820116820180604052508101906109819190611b07565b9050600460009054906101000a900473ffffffffffffffffffffffffffffffffffffffff1673ffffffffffffffffffffffffffffffffffffffff1663d4eb16dc868660086040518463ffffffff1660e01b81526004016109e393929190611da6565b6020604051808303816000875af1158015610a02573d6000803e3d6000fd5b505050506040513d601f19601f82011682018060405250810190610a269190611d3e565b60ff16826040018181525050600460009054906101000a900473ffffffffffffffffffffffffffffffffffffffff1673ffffffffffffffffffffffffffffffffffffffff1663157eeb6286866009818110610a8457610a836119c9565b5b9050602002810190610a969190611a07565b6040518363ffffffff1660e01b8152600401610ab3929190611ab7565b602060405180830381865afa158015610ad0573d6000803e3d6000fd5b505050506040513d601f19601f82011682018060405250810190610af49190611b07565b9050600460009054906101000a900473ffffffffffffffffffffffffffffffffffffffff1673ffffffffffffffffffffffffffffffffffffffff1663d4eb16dc868660096040518463ffffffff1660e01b8152600401610b5693929190611e13565b6020604051808303816000875af1158015610b75573d6000803e3d6000fd5b505050506040513d601f19601f82011682018060405250810190610b999190611d3e565b60ff1682610100018181525050600460009054906101000a900473ffffffffffffffffffffffffffffffffffffffff1673ffffffffffffffffffffffffffffffffffffffff1663157eeb628686600a818110610bf857610bf76119c9565b5b9050602002810190610c0a9190611a07565b6040518363ffffffff1660e01b8152600401610c27929190611ab7565b602060405180830381865afa158015610c44573d6000803e3d6000fd5b505050506040513d601f19601f82011682018060405250810190610c689190611b07565b9050600460009054906101000a900473ffffffffffffffffffffffffffffffffffffffff1673ffffffffffffffffffffffffffffffffffffffff1663d4eb16dc8686600a6040518463ffffffff1660e01b8152600401610cca93929190611e80565b6020604051808303816000875af1158015610ce9573d6000803e3d6000fd5b505050506040513d601f19601f82011682018060405250810190610d0d9190611d3e565b60ff1682610120018181525050611030565b610dc685856000818110610d3657610d356119c9565b5b9050602002810190610d489190611a07565b8080601f016020809104026020016040519081016040528093929190818152602001838380828437600081840152601f19601f820116905080830192505050505050506040518060400160405280600881526020017f486173686d6f6e6b00000000000000000000000000000000000000000000000081525061136d565b15610ff457600460009054906101000a900473ffffffffffffffffffffffffffffffffffffffff1673ffffffffffffffffffffffffffffffffffffffff1663d4eb16dc868660076040518463ffffffff1660e01b8152600401610e2b93929190611cd3565b6020604051808303816000875af1158015610e4a573d6000803e3d6000fd5b505050506040513d601f19601f82011682018060405250810190610e6e9190611d3e565b60ff1682610140018181525050600460009054906101000a900473ffffffffffffffffffffffffffffffffffffffff1673ffffffffffffffffffffffffffffffffffffffff1663157eeb6286866008818110610ecd57610ecc6119c9565b5b9050602002810190610edf9190611a07565b6040518363ffffffff1660e01b8152600401610efc929190611ab7565b602060405180830381865afa158015610f19573d6000803e3d6000fd5b505050506040513d601f19601f82011682018060405250810190610f3d9190611b07565b9050600460009054906101000a900473ffffffffffffffffffffffffffffffffffffffff1673ffffffffffffffffffffffffffffffffffffffff1663d4eb16dc868660086040518463ffffffff1660e01b8152600401610f9f93929190611da6565b6020604051808303816000875af1158015610fbe573d6000803e3d6000fd5b505050506040513d601f19601f82011682018060405250810190610fe29190611d3e565b60ff168261010001818152505061102f565b6040517f08c379a000000000000000000000000000000000000000000000000000000000815260040161102690611efe565b60405180910390fd5b5b600260009054906101000a900473ffffffffffffffffffffffffffffffffffffffff1673ffffffffffffffffffffffffffffffffffffffff166358592a9033856040518363ffffffff1660e01b815260040161108d929190611f55565b600060405180830381600087803b1580156110a757600080fd5b505af11580156110bb573d6000803e3d6000fd5b50505050600760009054906101000a900473ffffffffffffffffffffffffffffffffffffffff1673ffffffffffffffffffffffffffffffffffffffff16633c8117a784338a8a8a8a6040518763ffffffff1660e01b815260040161112496959493929190612054565b600060405180830381600087803b15801561113e57600080fd5b505af1158015611152573d6000803e3d6000fd5b50505050600760009054906101000a900473ffffffffffffffffffffffffffffffffffffffff1673ffffffffffffffffffffffffffffffffffffffff1663f921f76084846040518363ffffffff1660e01b81526004016111b392919061219b565b600060405180830381600087803b1580156111cd57600080fd5b505af11580156111e1573d6000803e3d6000fd5b50505050600a839080600181540180825580915050600190039060005260206000200160009091909190915055600b60009054906101000a900463ffffffff1663ffffffff166001600c5461123691906121c5565b611240919061221b565b600a805490501415611364576000600160009054906101000a900473ffffffffffffffffffffffffffffffffffffffff1673ffffffffffffffffffffffffffffffffffffffff1663811ee32a600b60009054906101000a900463ffffffff166040518263ffffffff1660e01b81526004016112bb9190612294565b6020604051808303816000875af11580156112da573d6000803e3d6000fd5b505050506040513d601f19601f820116820180604052508101906112fe9190611b07565b9050600b60009054906101000a900463ffffffff1663ffffffff16600c54611326919061221b565b600a828154811061133a576113396119c9565b5b90600052602060002001819055506001600c600082825461135b91906121c5565b92505081905550505b50505050505050565b600081518351146113815760009050611395565b818051906020012083805190602001201490505b92915050565b60405180610160016040528060008152602001600081526020016000815260200160008152602001600081526020016000815260200160008152602001600081526020016000815260200160008152602001600081525090565b6000819050919050565b611408816113f5565b82525050565b600060208201905061142360008301846113ff565b92915050565b600073ffffffffffffffffffffffffffffffffffffffff82169050919050565b6000819050919050565b600061146e61146961146484611429565b611449565b611429565b9050919050565b600061148082611453565b9050919050565b600061149282611475565b9050919050565b6114a281611487565b82525050565b60006020820190506114bd6000830184611499565b92915050565b60006114ce82611475565b9050919050565b6114de816114c3565b82525050565b60006020820190506114f960008301846114d5565b92915050565b600061150a82611475565b9050919050565b61151a816114ff565b82525050565b60006020820190506115356000830184611511565b92915050565b600080fd5b600080fd5b600080fd5b600080fd5b600080fd5b60008083601f84011261156a57611569611545565b5b8235905067ffffffffffffffff8111156115875761158661154a565b5b6020830191508360208202830111156115a3576115a261154f565b5b9250929050565b60008083601f8401126115c0576115bf611545565b5b8235905067ffffffffffffffff8111156115dd576115dc61154a565b5b6020830191508360208202830111156115f9576115f861154f565b5b9250929050565b6000806000806000806060878903121561161d5761161c61153b565b5b600087013567ffffffffffffffff81111561163b5761163a611540565b5b61164789828a01611554565b9650965050602087013567ffffffffffffffff81111561166a57611669611540565b5b61167689828a01611554565b9450945050604087013567ffffffffffffffff81111561169957611698611540565b5b6116a589828a016115aa565b92509250509295509295509295565b60006116bf82611429565b9050919050565b6116cf816116b4565b82525050565b60006020820190506116ea60008301846116c6565b92915050565b60006116fb82611475565b9050919050565b61170b816116f0565b82525050565b60006020820190506117266000830184611702565b92915050565b600080600080604085870312156117465761174561153b565b5b600085013567ffffffffffffffff81111561176457611763611540565b5b61177087828801611554565b9450945050602085013567ffffffffffffffff81111561179357611792611540565b5b61179f878288016115aa565b925092505092959194509250565b60006117b882611475565b9050919050565b6117c8816117ad565b82525050565b60006020820190506117e360008301846117bf565b92915050565b6117f2816116b4565b81146117fd57600080fd5b50565b60008135905061180f816117e9565b92915050565b60006020828403121561182b5761182a61153b565b5b600061183984828501611800565b91505092915050565b600082825260208201905092915050565b7f4f776e61626c653a2063616c6c6572206973206e6f7420746865206f776e6572600082015250565b6000611889602083611842565b915061189482611853565b602082019050919050565b600060208201905081810360008301526118b88161187c565b9050919050565b7f4e487b7100000000000000000000000000000000000000000000000000000000600052601160045260246000fd5b60006118f9826113f5565b91507fffffffffffffffffffffffffffffffffffffffffffffffffffffffffffffffff82141561192c5761192b6118bf565b5b600182019050919050565b7f4f776e61626c653a206e6577206f776e657220697320746865207a65726f206160008201527f6464726573730000000000000000000000000000000000000000000000000000602082015250565b6000611993602683611842565b915061199e82611937565b604082019050919050565b600060208201905081810360008301526119c281611986565b9050919050565b7f4e487b7100000000000000000000000000000000000000000000000000000000600052603260045260246000fd5b600080fd5b600080fd5b600080fd5b60008083356001602003843603038112611a2457611a236119f8565b5b80840192508235915067ffffffffffffffff821115611a4657611a456119fd565b5b602083019250600182023603831315611a6257611a61611a02565b5b509250929050565b82818337600083830152505050565b6000601f19601f8301169050919050565b6000611a968385611842565b9350611aa3838584611a6a565b611aac83611a79565b840190509392505050565b60006020820190508181036000830152611ad2818486611a8a565b90509392505050565b611ae4816113f5565b8114611aef57600080fd5b50565b600081519050611b0181611adb565b92915050565b600060208284031215611b1d57611b1c61153b565b5b6000611b2b84828501611af2565b91505092915050565b600082825260208201905092915050565b6000819050919050565b600082825260208201905092915050565b6000611b6c8385611b4f565b9350611b79838584611a6a565b611b8283611a79565b840190509392505050565b6000611b9a848484611b60565b90509392505050565b600080fd5b600080fd5b600080fd5b60008083356001602003843603038112611bcf57611bce611bad565b5b83810192508235915060208301925067ffffffffffffffff821115611bf757611bf6611ba3565b5b600182023603841315611c0d57611c0c611ba8565b5b509250929050565b6000602082019050919050565b6000611c2e8385611b34565b935083602084028501611c4084611b45565b8060005b87811015611c86578484038952611c5b8284611bb2565b611c66868284611b8d565b9550611c7184611c15565b935060208b019a505050600181019050611c44565b50829750879450505050509392505050565b6000819050919050565b6000611cbd611cb8611cb384611c98565b611449565b6113f5565b9050919050565b611ccd81611ca2565b82525050565b60006040820190508181036000830152611cee818587611c22565b9050611cfd6020830184611cc4565b949350505050565b600060ff82169050919050565b611d1b81611d05565b8114611d2657600080fd5b50565b600081519050611d3881611d12565b92915050565b600060208284031215611d5457611d5361153b565b5b6000611d6284828501611d29565b91505092915050565b6000819050919050565b6000611d90611d8b611d8684611d6b565b611449565b6113f5565b9050919050565b611da081611d75565b82525050565b60006040820190508181036000830152611dc1818587611c22565b9050611dd06020830184611d97565b949350505050565b6000819050919050565b6000611dfd611df8611df384611dd8565b611449565b6113f5565b9050919050565b611e0d81611de2565b82525050565b60006040820190508181036000830152611e2e818587611c22565b9050611e3d6020830184611e04565b949350505050565b6000819050919050565b6000611e6a611e65611e6084611e45565b611449565b6113f5565b9050919050565b611e7a81611e4f565b82525050565b60006040820190508181036000830152611e9b818587611c22565b9050611eaa6020830184611e71565b949350505050565b7f496e76616c696420666f726d0000000000000000000000000000000000000000600082015250565b6000611ee8600c83611842565b9150611ef382611eb2565b602082019050919050565b60006020820190508181036000830152611f1781611edb565b9050919050565b600082825260208201905092915050565b50565b6000611f3f600083611f1e565b9150611f4a82611f2f565b600082019050919050565b6000606082019050611f6a60008301856116c6565b611f7760208301846113ff565b8181036040830152611f8881611f32565b90509392505050565b600082825260208201905092915050565b6000819050919050565b611fb5816116b4565b82525050565b6000611fc78383611fac565b60208301905092915050565b6000611fe26020840184611800565b905092915050565b6000602082019050919050565b60006120038385611f91565b935061200e82611fa2565b8060005b85811015612047576120248284611fd3565b61202e8882611fbb565b975061203983611fea565b925050600181019050612012565b5085925050509392505050565b600060808201905061206960008301896113ff565b61207660208301886116c6565b8181036040830152612089818688611ff7565b9050818103606083015261209e818486611c22565b9050979650505050505050565b6120b4816113f5565b82525050565b610160820160008201516120d160008501826120ab565b5060208201516120e460208501826120ab565b5060408201516120f760408501826120ab565b50606082015161210a60608501826120ab565b50608082015161211d60808501826120ab565b5060a082015161213060a08501826120ab565b5060c082015161214360c08501826120ab565b5060e082015161215660e08501826120ab565b5061010082015161216b6101008501826120ab565b506101208201516121806101208501826120ab565b506101408201516121956101408501826120ab565b50505050565b6000610180820190506121b160008301856113ff565b6121be60208301846120ba565b9392505050565b60006121d0826113f5565b91506121db836113f5565b9250827fffffffffffffffffffffffffffffffffffffffffffffffffffffffffffffffff038211156122105761220f6118bf565b5b828201905092915050565b6000612226826113f5565b9150612231836113f5565b9250817fffffffffffffffffffffffffffffffffffffffffffffffffffffffffffffffff048311821515161561226a576122696118bf565b5b828202905092915050565b600063ffffffff82169050919050565b61228e81612275565b82525050565b60006020820190506122a96000830184612285565b9291505056fea26469706673582212208dcbc7871840e3b702d1e4ddd39db39b43ae1d8147e992295a67ca72d8c6123964736f6c634300080a0033",
  "linkReferences": {},
  "deployedLinkReferences": {}
}