{
  "_format": "hh-sol-artifact-1",
  "contractName": "MetadataRegistry",
  "sourceName": "contracts/MetadataRegistry.sol",
  "abi": [
    {
      "inputs": [
        {
          "internalType": "contract Authority",
          "name": "auth",
          "type": "address"
        }
      ],
      "stateMutability": "nonpayable",
      "type": "constructor"
    },
    {
      "anonymous": false,
      "inputs": [
        {
          "indexed": true,
          "internalType": "address",
          "name": "user",
          "type": "address"
        },
        {
          "indexed": true,
          "internalType": "contract Authority",
          "name": "newAuthority",
          "type": "address"
        }
      ],
      "name": "AuthorityUpdated",
      "type": "event"
    },
    {
      "anonymous": false,
      "inputs": [
        {
          "indexed": true,
          "internalType": "address",
          "name": "user",
          "type": "address"
        },
        {
          "indexed": true,
          "internalType": "address",
          "name": "newOwner",
          "type": "address"
        }
      ],
      "name": "OwnerUpdated",
      "type": "event"
    },
    {
      "anonymous": false,
      "inputs": [
        {
          "indexed": false,
          "internalType": "uint256",
          "name": "id",
          "type": "uint256"
        },
        {
          "indexed": false,
          "internalType": "string",
          "name": "metadata",
          "type": "string"
        }
      ],
      "name": "Register",
      "type": "event"
    },
    {
      "anonymous": false,
      "inputs": [
        {
          "indexed": false,
          "internalType": "uint256",
          "name": "id",
          "type": "uint256"
        }
      ],
      "name": "UnRegister",
      "type": "event"
    },
    {
      "inputs": [],
      "name": "authority",
      "outputs": [
        {
          "internalType": "contract Authority",
          "name": "",
          "type": "address"
        }
      ],
      "stateMutability": "view",
      "type": "function"
    },
    {
      "inputs": [
        {
          "internalType": "uint256",
          "name": "_id",
          "type": "uint256"
        }
      ],
      "name": "get",
      "outputs": [
        {
          "internalType": "string",
          "name": "metadata",
          "type": "string"
        }
      ],
      "stateMutability": "view",
      "type": "function"
    },
    {
      "inputs": [
        {
          "internalType": "uint256",
          "name": "",
          "type": "uint256"
        }
      ],
      "name": "idToMetadata",
      "outputs": [
        {
          "internalType": "string",
          "name": "",
          "type": "string"
        }
      ],
      "stateMutability": "view",
      "type": "function"
    },
    {
      "inputs": [],
      "name": "owner",
      "outputs": [
        {
          "internalType": "address",
          "name": "",
          "type": "address"
        }
      ],
      "stateMutability": "view",
      "type": "function"
    },
    {
      "inputs": [
        {
          "internalType": "uint256",
          "name": "_id",
          "type": "uint256"
        },
        {
          "internalType": "string",
          "name": "_metadata",
          "type": "string"
        }
      ],
      "name": "set",
      "outputs": [],
      "stateMutability": "nonpayable",
      "type": "function"
    },
    {
      "inputs": [
        {
          "internalType": "contract Authority",
          "name": "newAuthority",
          "type": "address"
        }
      ],
      "name": "setAuthority",
      "outputs": [],
      "stateMutability": "nonpayable",
      "type": "function"
    },
    {
      "inputs": [
        {
          "internalType": "uint256[]",
          "name": "_ids",
          "type": "uint256[]"
        },
        {
          "internalType": "string[]",
          "name": "_metadatas",
          "type": "string[]"
        }
      ],
      "name": "setMultiple",
      "outputs": [],
      "stateMutability": "nonpayable",
      "type": "function"
    },
    {
      "inputs": [
        {
          "internalType": "address",
          "name": "newOwner",
          "type": "address"
        }
      ],
      "name": "setOwner",
      "outputs": [],
      "stateMutability": "nonpayable",
      "type": "function"
    }
  ],
  "bytecode": "0x60806040523480156200001157600080fd5b506040516200153f3803806200153f8339818101604052810190620000379190620001f5565b3381816000806101000a81548173ffffffffffffffffffffffffffffffffffffffff021916908373ffffffffffffffffffffffffffffffffffffffff16021790555080600160006101000a81548173ffffffffffffffffffffffffffffffffffffffff021916908373ffffffffffffffffffffffffffffffffffffffff1602179055508173ffffffffffffffffffffffffffffffffffffffff163373ffffffffffffffffffffffffffffffffffffffff167f8292fce18fa69edf4db7b94ea2e58241df0ae57f97e0a6c9b29067028bf92d7660405160405180910390a38073ffffffffffffffffffffffffffffffffffffffff163373ffffffffffffffffffffffffffffffffffffffff167fa3396fd7f6e0a21b50e5089d2da70d5ac0a3bbbd1f617a93f134b7638998019860405160405180910390a350505062000227565b600080fd5b600073ffffffffffffffffffffffffffffffffffffffff82169050919050565b6000620001a9826200017c565b9050919050565b6000620001bd826200019c565b9050919050565b620001cf81620001b0565b8114620001db57600080fd5b50565b600081519050620001ef81620001c4565b92915050565b6000602082840312156200020e576200020d62000177565b5b60006200021e84828501620001de565b91505092915050565b61130880620002376000396000f3fe608060405234801561001057600080fd5b50600436106100885760003560e01c806393e22eed1161005b57806393e22eed146100ff5780639507d39a1461011b578063bf7e214f1461014b578063f307101a1461016957610088565b806313af40351461008d57806364371977146100a95780637a9e5e4b146100c55780638da5cb5b146100e1575b600080fd5b6100a760048036038101906100a29190610a74565b610199565b005b6100c360048036038101906100be9190610b3c565b6102a3565b005b6100df60048036038101906100da9190610bda565b610373565b005b6100e9610534565b6040516100f69190610c16565b60405180910390f35b61011960048036038101906101149190610cdd565b610558565b005b61013560048036038101906101309190610d5e565b61067c565b6040516101429190610e24565b60405180910390f35b610153610765565b6040516101609190610ea5565b60405180910390f35b610183600480360381019061017e9190610d5e565b61078b565b6040516101909190610e24565b60405180910390f35b6101c7336000357fffffffff000000000000000000000000000000000000000000000000000000001661082b565b610206576040517f08c379a00000000000000000000000000000000000000000000000000000000081526004016101fd90610f0c565b60405180910390fd5b806000806101000a81548173ffffffffffffffffffffffffffffffffffffffff021916908373ffffffffffffffffffffffffffffffffffffffff1602179055508073ffffffffffffffffffffffffffffffffffffffff163373ffffffffffffffffffffffffffffffffffffffff167f8292fce18fa69edf4db7b94ea2e58241df0ae57f97e0a6c9b29067028bf92d7660405160405180910390a350565b6102d1336000357fffffffff000000000000000000000000000000000000000000000000000000001661082b565b610310576040517f08c379a000000000000000000000000000000000000000000000000000000000815260040161030790610f0c565b60405180910390fd5b8181600260008681526020019081526020016000209190610332929190610969565b507f711029f809cd2241ef48ae68a0d524a9c8523cea54680361c034f419e58b196583838360405161036693929190610f77565b60405180910390a1505050565b60008054906101000a900473ffffffffffffffffffffffffffffffffffffffff1673ffffffffffffffffffffffffffffffffffffffff163373ffffffffffffffffffffffffffffffffffffffff16148061048d5750600160009054906101000a900473ffffffffffffffffffffffffffffffffffffffff1673ffffffffffffffffffffffffffffffffffffffff1663b700961333306000357fffffffff00000000000000000000000000000000000000000000000000000000166040518463ffffffff1660e01b815260040161044b93929190610fe4565b602060405180830381865afa158015610468573d6000803e3d6000fd5b505050506040513d601f19601f8201168201806040525081019061048c9190611053565b5b61049657600080fd5b80600160006101000a81548173ffffffffffffffffffffffffffffffffffffffff021916908373ffffffffffffffffffffffffffffffffffffffff1602179055508073ffffffffffffffffffffffffffffffffffffffff163373ffffffffffffffffffffffffffffffffffffffff167fa3396fd7f6e0a21b50e5089d2da70d5ac0a3bbbd1f617a93f134b7638998019860405160405180910390a350565b60008054906101000a900473ffffffffffffffffffffffffffffffffffffffff1681565b610586336000357fffffffff000000000000000000000000000000000000000000000000000000001661082b565b6105c5576040517f08c379a00000000000000000000000000000000000000000000000000000000081526004016105bc90610f0c565b60405180910390fd5b81819050848490501461060d576040517f08c379a0000000000000000000000000000000000000000000000000000000008152600401610604906110cc565b60405180910390fd5b60005b8484905081101561067557610662858583818110610631576106306110ec565b5b9050602002013584848481811061064b5761064a6110ec565b5b905060200281019061065d919061112a565b6102a3565b808061066d906111bc565b915050610610565b5050505050565b606060026000838152602001908152602001600020805461069c90611234565b80601f01602080910402602001604051908101604052809291908181526020018280546106c890611234565b80156107155780601f106106ea57610100808354040283529160200191610715565b820191906000526020600020905b8154815290600101906020018083116106f857829003601f168201915b505050505090506000815111610760576040517f08c379a0000000000000000000000000000000000000000000000000000000008152600401610757906112b2565b60405180910390fd5b919050565b600160009054906101000a900473ffffffffffffffffffffffffffffffffffffffff1681565b600260205280600052604060002060009150905080546107aa90611234565b80601f01602080910402602001604051908101604052809291908181526020018280546107d690611234565b80156108235780601f106107f857610100808354040283529160200191610823565b820191906000526020600020905b81548152906001019060200180831161080657829003601f168201915b505050505081565b600080600160009054906101000a900473ffffffffffffffffffffffffffffffffffffffff169050600073ffffffffffffffffffffffffffffffffffffffff168173ffffffffffffffffffffffffffffffffffffffff161415801561090a57508073ffffffffffffffffffffffffffffffffffffffff1663b70096138530866040518463ffffffff1660e01b81526004016108c893929190610fe4565b602060405180830381865afa1580156108e5573d6000803e3d6000fd5b505050506040513d601f19601f820116820180604052508101906109099190611053565b5b80610960575060008054906101000a900473ffffffffffffffffffffffffffffffffffffffff1673ffffffffffffffffffffffffffffffffffffffff168473ffffffffffffffffffffffffffffffffffffffff16145b91505092915050565b82805461097590611234565b90600052602060002090601f01602090048101928261099757600085556109de565b82601f106109b057803560ff19168380011785556109de565b828001600101855582156109de579182015b828111156109dd5782358255916020019190600101906109c2565b5b5090506109eb91906109ef565b5090565b5b80821115610a085760008160009055506001016109f0565b5090565b600080fd5b600080fd5b600073ffffffffffffffffffffffffffffffffffffffff82169050919050565b6000610a4182610a16565b9050919050565b610a5181610a36565b8114610a5c57600080fd5b50565b600081359050610a6e81610a48565b92915050565b600060208284031215610a8a57610a89610a0c565b5b6000610a9884828501610a5f565b91505092915050565b6000819050919050565b610ab481610aa1565b8114610abf57600080fd5b50565b600081359050610ad181610aab565b92915050565b600080fd5b600080fd5b600080fd5b60008083601f840112610afc57610afb610ad7565b5b8235905067ffffffffffffffff811115610b1957610b18610adc565b5b602083019150836001820283011115610b3557610b34610ae1565b5b9250929050565b600080600060408486031215610b5557610b54610a0c565b5b6000610b6386828701610ac2565b935050602084013567ffffffffffffffff811115610b8457610b83610a11565b5b610b9086828701610ae6565b92509250509250925092565b6000610ba782610a36565b9050919050565b610bb781610b9c565b8114610bc257600080fd5b50565b600081359050610bd481610bae565b92915050565b600060208284031215610bf057610bef610a0c565b5b6000610bfe84828501610bc5565b91505092915050565b610c1081610a36565b82525050565b6000602082019050610c2b6000830184610c07565b92915050565b60008083601f840112610c4757610c46610ad7565b5b8235905067ffffffffffffffff811115610c6457610c63610adc565b5b602083019150836020820283011115610c8057610c7f610ae1565b5b9250929050565b60008083601f840112610c9d57610c9c610ad7565b5b8235905067ffffffffffffffff811115610cba57610cb9610adc565b5b602083019150836020820283011115610cd657610cd5610ae1565b5b9250929050565b60008060008060408587031215610cf757610cf6610a0c565b5b600085013567ffffffffffffffff811115610d1557610d14610a11565b5b610d2187828801610c31565b9450945050602085013567ffffffffffffffff811115610d4457610d43610a11565b5b610d5087828801610c87565b925092505092959194509250565b600060208284031215610d7457610d73610a0c565b5b6000610d8284828501610ac2565b91505092915050565b600081519050919050565b600082825260208201905092915050565b60005b83811015610dc5578082015181840152602081019050610daa565b83811115610dd4576000848401525b50505050565b6000601f19601f8301169050919050565b6000610df682610d8b565b610e008185610d96565b9350610e10818560208601610da7565b610e1981610dda565b840191505092915050565b60006020820190508181036000830152610e3e8184610deb565b905092915050565b6000819050919050565b6000610e6b610e66610e6184610a16565b610e46565b610a16565b9050919050565b6000610e7d82610e50565b9050919050565b6000610e8f82610e72565b9050919050565b610e9f81610e84565b82525050565b6000602082019050610eba6000830184610e96565b92915050565b7f554e415554484f52495a45440000000000000000000000000000000000000000600082015250565b6000610ef6600c83610d96565b9150610f0182610ec0565b602082019050919050565b60006020820190508181036000830152610f2581610ee9565b9050919050565b610f3581610aa1565b82525050565b82818337600083830152505050565b6000610f568385610d96565b9350610f63838584610f3b565b610f6c83610dda565b840190509392505050565b6000604082019050610f8c6000830186610f2c565b8181036020830152610f9f818486610f4a565b9050949350505050565b60007fffffffff0000000000000000000000000000000000000000000000000000000082169050919050565b610fde81610fa9565b82525050565b6000606082019050610ff96000830186610c07565b6110066020830185610c07565b6110136040830184610fd5565b949350505050565b60008115159050919050565b6110308161101b565b811461103b57600080fd5b50565b60008151905061104d81611027565b92915050565b60006020828403121561106957611068610a0c565b5b60006110778482850161103e565b91505092915050565b7f5345545f4d554c5449504c455f4c454e4754485f4d49534d4154434800000000600082015250565b60006110b6601c83610d96565b91506110c182611080565b602082019050919050565b600060208201905081810360008301526110e5816110a9565b9050919050565b7f4e487b7100000000000000000000000000000000000000000000000000000000600052603260045260246000fd5b600080fd5b600080fd5b600080fd5b600080833560016020038436030381126111475761114661111b565b5b80840192508235915067ffffffffffffffff82111561116957611168611120565b5b60208301925060018202360383131561118557611184611125565b5b509250929050565b7f4e487b7100000000000000000000000000000000000000000000000000000000600052601160045260246000fd5b60006111c782610aa1565b91507fffffffffffffffffffffffffffffffffffffffffffffffffffffffffffffffff8214156111fa576111f961118d565b5b600182019050919050565b7f4e487b7100000000000000000000000000000000000000000000000000000000600052602260045260246000fd5b6000600282049050600182168061124c57607f821691505b602082108114156112605761125f611205565b5b50919050565b7f4d495353494e475f555249000000000000000000000000000000000000000000600082015250565b600061129c600b83610d96565b91506112a782611266565b602082019050919050565b600060208201905081810360008301526112cb8161128f565b905091905056fea2646970667358221220556624416749b8d47f791a8cd89777ca1acd78e3cee9ceb19bc5b6617829eaec64736f6c634300080a0033",
  "linkReferences": {},
  "deployedLinkReferences": {}
}