{
  "_format": "hh-sol-artifact-1",
  "contractName": "CharacterXfer",
  "sourceName": "contracts/hooks/transfer/CharacterXfer.sol",
  "abi": [
    {
      "inputs": [
        {
          "internalType": "contract ICharacter",
          "name": "character_",
          "type": "address"
        }
      ],
      "stateMutability": "nonpayable",
      "type": "constructor"
    },
    {
      "inputs": [
        {
          "internalType": "address",
          "name": "from",
          "type": "address"
        },
        {
          "internalType": "address",
          "name": "",
          "type": "address"
        },
        {
          "internalType": "uint256",
          "name": "id",
          "type": "uint256"
        }
      ],
      "name": "xferHook",
      "outputs": [],
      "stateMutability": "nonpayable",
      "type": "function"
    }
  ],
  "bytecode": "0x608060405234801561001057600080fd5b50604051610370380380610370833981810160405281019061003291906100ed565b806000806101000a81548173ffffffffffffffffffffffffffffffffffffffff021916908373ffffffffffffffffffffffffffffffffffffffff1602179055505061011a565b600080fd5b600073ffffffffffffffffffffffffffffffffffffffff82169050919050565b60006100a88261007d565b9050919050565b60006100ba8261009d565b9050919050565b6100ca816100af565b81146100d557600080fd5b50565b6000815190506100e7816100c1565b92915050565b60006020828403121561010357610102610078565b5b6000610111848285016100d8565b91505092915050565b610247806101296000396000f3fe608060405234801561001057600080fd5b506004361061002b5760003560e01c80631549a31914610030575b600080fd5b61004a60048036038101906100459190610177565b61004c565b005b60008054906101000a900473ffffffffffffffffffffffffffffffffffffffff1673ffffffffffffffffffffffffffffffffffffffff16632ba6710082856040518363ffffffff1660e01b81526004016100a79291906101e8565b600060405180830381600087803b1580156100c157600080fd5b505af11580156100d5573d6000803e3d6000fd5b50505050505050565b600080fd5b600073ffffffffffffffffffffffffffffffffffffffff82169050919050565b600061010e826100e3565b9050919050565b61011e81610103565b811461012957600080fd5b50565b60008135905061013b81610115565b92915050565b6000819050919050565b61015481610141565b811461015f57600080fd5b50565b6000813590506101718161014b565b92915050565b6000806000606084860312156101905761018f6100de565b5b600061019e8682870161012c565b93505060206101af8682870161012c565b92505060406101c086828701610162565b9150509250925092565b6101d381610141565b82525050565b6101e281610103565b82525050565b60006040820190506101fd60008301856101ca565b61020a60208301846101d9565b939250505056fea2646970667358221220a4e4bc49d56336c3e1f7e0cda2bf21ec6f173d02a89c9eaa45cb4f6d492c2c6464736f6c634300080a0033",
  "linkReferences": {},
  "deployedLinkReferences": {}
}