{
  "_format": "hh-sol-artifact-1",
  "contractName": "RandomnessRelayL2",
  "sourceName": "contracts/message_relay/RandomnessRelayL2.sol",
  "abi": [
    {
      "inputs": [
        {
          "internalType": "address",
          "name": "l1Target_",
          "type": "address"
        },
        {
          "internalType": "address",
          "name": "inbox_",
          "type": "address"
        },
        {
          "internalType": "contract Authority",
          "name": "authority",
          "type": "address"
        }
      ],
      "stateMutability": "nonpayable",
      "type": "constructor"
    },
    {
      "anonymous": false,
      "inputs": [
        {
          "indexed": true,
          "internalType": "address",
          "name": "user",
          "type": "address"
        },
        {
          "indexed": true,
          "internalType": "contract Authority",
          "name": "newAuthority",
          "type": "address"
        }
      ],
      "name": "AuthorityUpdated",
      "type": "event"
    },
    {
      "anonymous": false,
      "inputs": [
        {
          "indexed": true,
          "internalType": "address",
          "name": "user",
          "type": "address"
        },
        {
          "indexed": true,
          "internalType": "address",
          "name": "newOwner",
          "type": "address"
        }
      ],
      "name": "OwnerUpdated",
      "type": "event"
    },
    {
      "anonymous": false,
      "inputs": [
        {
          "indexed": true,
          "internalType": "uint256",
          "name": "ticketId",
          "type": "uint256"
        }
      ],
      "name": "RetryableTicketCreated",
      "type": "event"
    },
    {
      "inputs": [],
      "name": "authority",
      "outputs": [
        {
          "internalType": "contract Authority",
          "name": "",
          "type": "address"
        }
      ],
      "stateMutability": "view",
      "type": "function"
    },
    {
      "inputs": [
        {
          "internalType": "uint256",
          "name": "requestId",
          "type": "uint256"
        },
        {
          "internalType": "uint32[]",
          "name": "randomWords",
          "type": "uint32[]"
        }
      ],
      "name": "fulfillRandomness",
      "outputs": [],
      "stateMutability": "nonpayable",
      "type": "function"
    },
    {
      "inputs": [],
      "name": "owner",
      "outputs": [
        {
          "internalType": "address",
          "name": "",
          "type": "address"
        }
      ],
      "stateMutability": "view",
      "type": "function"
    },
    {
      "inputs": [
        {
          "internalType": "uint32",
          "name": "wordCount",
          "type": "uint32"
        }
      ],
      "name": "requestRandomness",
      "outputs": [
        {
          "internalType": "uint256",
          "name": "requestId",
          "type": "uint256"
        }
      ],
      "stateMutability": "nonpayable",
      "type": "function"
    },
    {
      "inputs": [
        {
          "internalType": "contract Authority",
          "name": "newAuthority",
          "type": "address"
        }
      ],
      "name": "setAuthority",
      "outputs": [],
      "stateMutability": "nonpayable",
      "type": "function"
    },
    {
      "inputs": [
        {
          "internalType": "address",
          "name": "newOwner",
          "type": "address"
        }
      ],
      "name": "setOwner",
      "outputs": [],
      "stateMutability": "nonpayable",
      "type": "function"
    },
    {
      "inputs": [
        {
          "internalType": "address",
          "name": "l1Target_",
          "type": "address"
        }
      ],
      "name": "updateL2Target",
      "outputs": [],
      "stateMutability": "nonpayable",
      "type": "function"
    }
  ],
  "bytecode": "0x60806040523480156200001157600080fd5b5060405162001207380380620012078339818101604052810190620000379190620002aa565b3381816000806101000a81548173ffffffffffffffffffffffffffffffffffffffff021916908373ffffffffffffffffffffffffffffffffffffffff16021790555080600160006101000a81548173ffffffffffffffffffffffffffffffffffffffff021916908373ffffffffffffffffffffffffffffffffffffffff1602179055508173ffffffffffffffffffffffffffffffffffffffff163373ffffffffffffffffffffffffffffffffffffffff167f8292fce18fa69edf4db7b94ea2e58241df0ae57f97e0a6c9b29067028bf92d7660405160405180910390a38073ffffffffffffffffffffffffffffffffffffffff163373ffffffffffffffffffffffffffffffffffffffff167fa3396fd7f6e0a21b50e5089d2da70d5ac0a3bbbd1f617a93f134b7638998019860405160405180910390a3505082600260006101000a81548173ffffffffffffffffffffffffffffffffffffffff021916908373ffffffffffffffffffffffffffffffffffffffff16021790555081600360006101000a81548173ffffffffffffffffffffffffffffffffffffffff021916908373ffffffffffffffffffffffffffffffffffffffff16021790555050505062000306565b600080fd5b600073ffffffffffffffffffffffffffffffffffffffff82169050919050565b60006200022d8262000200565b9050919050565b6200023f8162000220565b81146200024b57600080fd5b50565b6000815190506200025f8162000234565b92915050565b6000620002728262000220565b9050919050565b620002848162000265565b81146200029057600080fd5b50565b600081519050620002a48162000279565b92915050565b600080600060608486031215620002c657620002c5620001fb565b5b6000620002d6868287016200024e565b9350506020620002e9868287016200024e565b9250506040620002fc8682870162000293565b9150509250925092565b610ef180620003166000396000f3fe608060405234801561001057600080fd5b506004361061007d5760003560e01c8063811ee32a1161005b578063811ee32a146100d65780638da5cb5b14610106578063bf7e214f14610124578063c97b3d57146101425761007d565b806313af40351461008257806318e953241461009e5780637a9e5e4b146100ba575b600080fd5b61009c600480360381019061009791906108bf565b61015e565b005b6100b860048036038101906100b391906108bf565b610268565b005b6100d460048036038101906100cf919061092a565b610319565b005b6100f060048036038101906100eb9190610993565b6104da565b6040516100fd91906109d9565b60405180910390f35b61010e6105b4565b60405161011b9190610a03565b60405180910390f35b61012c6105d8565b6040516101399190610a7d565b60405180910390f35b61015c60048036038101906101579190610c1d565b6105fe565b005b61018c336000357fffffffff000000000000000000000000000000000000000000000000000000001661070f565b6101cb576040517f08c379a00000000000000000000000000000000000000000000000000000000081526004016101c290610cd6565b60405180910390fd5b806000806101000a81548173ffffffffffffffffffffffffffffffffffffffff021916908373ffffffffffffffffffffffffffffffffffffffff1602179055508073ffffffffffffffffffffffffffffffffffffffff163373ffffffffffffffffffffffffffffffffffffffff167f8292fce18fa69edf4db7b94ea2e58241df0ae57f97e0a6c9b29067028bf92d7660405160405180910390a350565b610296336000357fffffffff000000000000000000000000000000000000000000000000000000001661070f565b6102d5576040517f08c379a00000000000000000000000000000000000000000000000000000000081526004016102cc90610cd6565b60405180910390fd5b80600260006101000a81548173ffffffffffffffffffffffffffffffffffffffff021916908373ffffffffffffffffffffffffffffffffffffffff16021790555050565b60008054906101000a900473ffffffffffffffffffffffffffffffffffffffff1673ffffffffffffffffffffffffffffffffffffffff163373ffffffffffffffffffffffffffffffffffffffff1614806104335750600160009054906101000a900473ffffffffffffffffffffffffffffffffffffffff1673ffffffffffffffffffffffffffffffffffffffff1663b700961333306000357fffffffff00000000000000000000000000000000000000000000000000000000166040518463ffffffff1660e01b81526004016103f193929190610d31565b602060405180830381865afa15801561040e573d6000803e3d6000fd5b505050506040513d601f19601f820116820180604052508101906104329190610da0565b5b61043c57600080fd5b80600160006101000a81548173ffffffffffffffffffffffffffffffffffffffff021916908373ffffffffffffffffffffffffffffffffffffffff1602179055508073ffffffffffffffffffffffffffffffffffffffff163373ffffffffffffffffffffffffffffffffffffffff167fa3396fd7f6e0a21b50e5089d2da70d5ac0a3bbbd1f617a93f134b7638998019860405160405180910390a350565b600061050a336000357fffffffff000000000000000000000000000000000000000000000000000000001661070f565b610549576040517f08c379a000000000000000000000000000000000000000000000000000000000815260040161054090610cd6565b60405180910390fd5b6004600081548092919060010191905055503360056000600454815260200190815260200160002060006101000a81548173ffffffffffffffffffffffffffffffffffffffff021916908373ffffffffffffffffffffffffffffffffffffffff160217905550919050565b60008054906101000a900473ffffffffffffffffffffffffffffffffffffffff1681565b600160009054906101000a900473ffffffffffffffffffffffffffffffffffffffff1681565b61062c336000357fffffffff000000000000000000000000000000000000000000000000000000001661070f565b61066b576040517f08c379a000000000000000000000000000000000000000000000000000000000815260040161066290610cd6565b60405180910390fd5b6005600083815260200190815260200160002060009054906101000a900473ffffffffffffffffffffffffffffffffffffffff1673ffffffffffffffffffffffffffffffffffffffff166393c0a47083836040518363ffffffff1660e01b81526004016106d9929190610e8b565b600060405180830381600087803b1580156106f357600080fd5b505af1158015610707573d6000803e3d6000fd5b505050505050565b600080600160009054906101000a900473ffffffffffffffffffffffffffffffffffffffff169050600073ffffffffffffffffffffffffffffffffffffffff168173ffffffffffffffffffffffffffffffffffffffff16141580156107ee57508073ffffffffffffffffffffffffffffffffffffffff1663b70096138530866040518463ffffffff1660e01b81526004016107ac93929190610d31565b602060405180830381865afa1580156107c9573d6000803e3d6000fd5b505050506040513d601f19601f820116820180604052508101906107ed9190610da0565b5b80610844575060008054906101000a900473ffffffffffffffffffffffffffffffffffffffff1673ffffffffffffffffffffffffffffffffffffffff168473ffffffffffffffffffffffffffffffffffffffff16145b91505092915050565b6000604051905090565b600080fd5b600080fd5b600073ffffffffffffffffffffffffffffffffffffffff82169050919050565b600061088c82610861565b9050919050565b61089c81610881565b81146108a757600080fd5b50565b6000813590506108b981610893565b92915050565b6000602082840312156108d5576108d4610857565b5b60006108e3848285016108aa565b91505092915050565b60006108f782610881565b9050919050565b610907816108ec565b811461091257600080fd5b50565b600081359050610924816108fe565b92915050565b6000602082840312156109405761093f610857565b5b600061094e84828501610915565b91505092915050565b600063ffffffff82169050919050565b61097081610957565b811461097b57600080fd5b50565b60008135905061098d81610967565b92915050565b6000602082840312156109a9576109a8610857565b5b60006109b78482850161097e565b91505092915050565b6000819050919050565b6109d3816109c0565b82525050565b60006020820190506109ee60008301846109ca565b92915050565b6109fd81610881565b82525050565b6000602082019050610a1860008301846109f4565b92915050565b6000819050919050565b6000610a43610a3e610a3984610861565b610a1e565b610861565b9050919050565b6000610a5582610a28565b9050919050565b6000610a6782610a4a565b9050919050565b610a7781610a5c565b82525050565b6000602082019050610a926000830184610a6e565b92915050565b610aa1816109c0565b8114610aac57600080fd5b50565b600081359050610abe81610a98565b92915050565b600080fd5b6000601f19601f8301169050919050565b7f4e487b7100000000000000000000000000000000000000000000000000000000600052604160045260246000fd5b610b1282610ac9565b810181811067ffffffffffffffff82111715610b3157610b30610ada565b5b80604052505050565b6000610b4461084d565b9050610b508282610b09565b919050565b600067ffffffffffffffff821115610b7057610b6f610ada565b5b602082029050602081019050919050565b600080fd5b6000610b99610b9484610b55565b610b3a565b90508083825260208201905060208402830185811115610bbc57610bbb610b81565b5b835b81811015610be55780610bd1888261097e565b845260208401935050602081019050610bbe565b5050509392505050565b600082601f830112610c0457610c03610ac4565b5b8135610c14848260208601610b86565b91505092915050565b60008060408385031215610c3457610c33610857565b5b6000610c4285828601610aaf565b925050602083013567ffffffffffffffff811115610c6357610c6261085c565b5b610c6f85828601610bef565b9150509250929050565b600082825260208201905092915050565b7f554e415554484f52495a45440000000000000000000000000000000000000000600082015250565b6000610cc0600c83610c79565b9150610ccb82610c8a565b602082019050919050565b60006020820190508181036000830152610cef81610cb3565b9050919050565b60007fffffffff0000000000000000000000000000000000000000000000000000000082169050919050565b610d2b81610cf6565b82525050565b6000606082019050610d4660008301866109f4565b610d5360208301856109f4565b610d606040830184610d22565b949350505050565b60008115159050919050565b610d7d81610d68565b8114610d8857600080fd5b50565b600081519050610d9a81610d74565b92915050565b600060208284031215610db657610db5610857565b5b6000610dc484828501610d8b565b91505092915050565b600081519050919050565b600082825260208201905092915050565b6000819050602082019050919050565b610e0281610957565b82525050565b6000610e148383610df9565b60208301905092915050565b6000602082019050919050565b6000610e3882610dcd565b610e428185610dd8565b9350610e4d83610de9565b8060005b83811015610e7e578151610e658882610e08565b9750610e7083610e20565b925050600181019050610e51565b5085935050505092915050565b6000604082019050610ea060008301856109ca565b8181036020830152610eb28184610e2d565b9050939250505056fea26469706673582212206ca1f2f42f2a678c6f0a1f836b75224e7f590de305b86ba9deb83868f862e2e164736f6c634300080a0033",
  "linkReferences": {},
  "deployedLinkReferences": {}
}