{
  "_format": "hh-sol-artifact-1",
  "contractName": "WearablesValidator",
  "sourceName": "contracts/validators/WearablesValidator.sol",
  "abi": [
    {
      "inputs": [
        {
          "internalType": "contract ICharacter",
          "name": "_character",
          "type": "address"
        },
        {
          "internalType": "contract ICore",
          "name": "_core",
          "type": "address"
        },
        {
          "internalType": "contract Authority",
          "name": "auth",
          "type": "address"
        }
      ],
      "stateMutability": "nonpayable",
      "type": "constructor"
    },
    {
      "anonymous": false,
      "inputs": [
        {
          "indexed": true,
          "internalType": "address",
          "name": "user",
          "type": "address"
        },
        {
          "indexed": true,
          "internalType": "contract Authority",
          "name": "newAuthority",
          "type": "address"
        }
      ],
      "name": "AuthorityUpdated",
      "type": "event"
    },
    {
      "anonymous": false,
      "inputs": [
        {
          "indexed": true,
          "internalType": "address",
          "name": "user",
          "type": "address"
        },
        {
          "indexed": true,
          "internalType": "address",
          "name": "newOwner",
          "type": "address"
        }
      ],
      "name": "OwnerUpdated",
      "type": "event"
    },
    {
      "inputs": [
        {
          "internalType": "string",
          "name": "optionString",
          "type": "string"
        },
        {
          "internalType": "uint32",
          "name": "series",
          "type": "uint32"
        }
      ],
      "name": "addOption",
      "outputs": [],
      "stateMutability": "nonpayable",
      "type": "function"
    },
    {
      "inputs": [
        {
          "internalType": "uint32",
          "name": "series",
          "type": "uint32"
        },
        {
          "internalType": "uint8",
          "name": "form",
          "type": "uint8"
        },
        {
          "internalType": "uint8",
          "name": "rarity",
          "type": "uint8"
        },
        {
          "internalType": "uint8",
          "name": "slot",
          "type": "uint8"
        }
      ],
      "name": "addWearable",
      "outputs": [],
      "stateMutability": "nonpayable",
      "type": "function"
    },
    {
      "inputs": [],
      "name": "authority",
      "outputs": [
        {
          "internalType": "contract Authority",
          "name": "",
          "type": "address"
        }
      ],
      "stateMutability": "view",
      "type": "function"
    },
    {
      "inputs": [],
      "name": "character",
      "outputs": [
        {
          "internalType": "contract ICharacter",
          "name": "",
          "type": "address"
        }
      ],
      "stateMutability": "view",
      "type": "function"
    },
    {
      "inputs": [
        {
          "internalType": "uint32",
          "name": "series",
          "type": "uint32"
        },
        {
          "internalType": "uint8",
          "name": "form",
          "type": "uint8"
        },
        {
          "internalType": "uint8",
          "name": "rarity",
          "type": "uint8"
        },
        {
          "internalType": "uint8",
          "name": "slot",
          "type": "uint8"
        }
      ],
      "name": "convertToWearableUUID",
      "outputs": [
        {
          "internalType": "uint256",
          "name": "id",
          "type": "uint256"
        }
      ],
      "stateMutability": "pure",
      "type": "function"
    },
    {
      "inputs": [],
      "name": "core",
      "outputs": [
        {
          "internalType": "contract ICore",
          "name": "",
          "type": "address"
        }
      ],
      "stateMutability": "view",
      "type": "function"
    },
    {
      "inputs": [
        {
          "internalType": "uint256",
          "name": "id",
          "type": "uint256"
        },
        {
          "internalType": "uint8",
          "name": "slotID",
          "type": "uint8"
        }
      ],
      "name": "equipSkeleton",
      "outputs": [],
      "stateMutability": "nonpayable",
      "type": "function"
    },
    {
      "inputs": [
        {
          "internalType": "uint8",
          "name": "",
          "type": "uint8"
        }
      ],
      "name": "formToSlotCount",
      "outputs": [
        {
          "internalType": "uint8",
          "name": "",
          "type": "uint8"
        }
      ],
      "stateMutability": "view",
      "type": "function"
    },
    {
      "inputs": [
        {
          "internalType": "string",
          "name": "option",
          "type": "string"
        },
        {
          "internalType": "uint8",
          "name": "form",
          "type": "uint8"
        },
        {
          "internalType": "uint8",
          "name": "rarity",
          "type": "uint8"
        },
        {
          "internalType": "uint8",
          "name": "slot",
          "type": "uint8"
        }
      ],
      "name": "getWearableIDByOption",
      "outputs": [
        {
          "internalType": "uint256",
          "name": "id",
          "type": "uint256"
        }
      ],
      "stateMutability": "view",
      "type": "function"
    },
    {
      "inputs": [
        {
          "internalType": "uint32",
          "name": "series",
          "type": "uint32"
        },
        {
          "internalType": "uint8",
          "name": "form",
          "type": "uint8"
        },
        {
          "internalType": "uint8",
          "name": "rarity",
          "type": "uint8"
        },
        {
          "internalType": "uint8",
          "name": "slot",
          "type": "uint8"
        }
      ],
      "name": "getWearableIDBySeries",
      "outputs": [
        {
          "internalType": "uint256",
          "name": "id",
          "type": "uint256"
        }
      ],
      "stateMutability": "view",
      "type": "function"
    },
    {
      "inputs": [
        {
          "internalType": "string",
          "name": "",
          "type": "string"
        }
      ],
      "name": "optionStringToSeries",
      "outputs": [
        {
          "internalType": "uint32",
          "name": "",
          "type": "uint32"
        }
      ],
      "stateMutability": "view",
      "type": "function"
    },
    {
      "inputs": [],
      "name": "owner",
      "outputs": [
        {
          "internalType": "address",
          "name": "",
          "type": "address"
        }
      ],
      "stateMutability": "view",
      "type": "function"
    },
    {
      "inputs": [
        {
          "internalType": "string",
          "name": "optionString",
          "type": "string"
        }
      ],
      "name": "removeOption",
      "outputs": [],
      "stateMutability": "nonpayable",
      "type": "function"
    },
    {
      "inputs": [
        {
          "internalType": "uint32",
          "name": "series",
          "type": "uint32"
        },
        {
          "internalType": "uint8",
          "name": "form",
          "type": "uint8"
        },
        {
          "internalType": "uint8",
          "name": "rarity",
          "type": "uint8"
        },
        {
          "internalType": "uint8",
          "name": "slot",
          "type": "uint8"
        }
      ],
      "name": "removeWearable",
      "outputs": [],
      "stateMutability": "nonpayable",
      "type": "function"
    },
    {
      "inputs": [
        {
          "internalType": "contract Authority",
          "name": "newAuthority",
          "type": "address"
        }
      ],
      "name": "setAuthority",
      "outputs": [],
      "stateMutability": "nonpayable",
      "type": "function"
    },
    {
      "inputs": [
        {
          "internalType": "address",
          "name": "newOwner",
          "type": "address"
        }
      ],
      "name": "setOwner",
      "outputs": [],
      "stateMutability": "nonpayable",
      "type": "function"
    },
    {
      "inputs": [],
      "name": "slotCount",
      "outputs": [
        {
          "internalType": "uint8",
          "name": "",
          "type": "uint8"
        }
      ],
      "stateMutability": "view",
      "type": "function"
    },
    {
      "inputs": [
        {
          "internalType": "uint8",
          "name": "slotID",
          "type": "uint8"
        }
      ],
      "name": "unequipSkeleton",
      "outputs": [],
      "stateMutability": "nonpayable",
      "type": "function"
    },
    {
      "inputs": [
        {
          "internalType": "uint256",
          "name": "",
          "type": "uint256"
        }
      ],
      "name": "wearableExists",
      "outputs": [
        {
          "internalType": "bool",
          "name": "",
          "type": "bool"
        }
      ],
      "stateMutability": "view",
      "type": "function"
    }
  ],
  "bytecode": "0x60806040523480156200001157600080fd5b5060405162001d5b38038062001d5b833981810160405281019062000037919062000303565b3381816000806101000a81548173ffffffffffffffffffffffffffffffffffffffff021916908373ffffffffffffffffffffffffffffffffffffffff16021790555080600160006101000a81548173ffffffffffffffffffffffffffffffffffffffff021916908373ffffffffffffffffffffffffffffffffffffffff1602179055508173ffffffffffffffffffffffffffffffffffffffff163373ffffffffffffffffffffffffffffffffffffffff167f8292fce18fa69edf4db7b94ea2e58241df0ae57f97e0a6c9b29067028bf92d7660405160405180910390a38073ffffffffffffffffffffffffffffffffffffffff163373ffffffffffffffffffffffffffffffffffffffff167fa3396fd7f6e0a21b50e5089d2da70d5ac0a3bbbd1f617a93f134b7638998019860405160405180910390a3505081600260006101000a81548173ffffffffffffffffffffffffffffffffffffffff021916908373ffffffffffffffffffffffffffffffffffffffff16021790555082600360006101000a81548173ffffffffffffffffffffffffffffffffffffffff021916908373ffffffffffffffffffffffffffffffffffffffff1602179055505050506200035f565b600080fd5b600073ffffffffffffffffffffffffffffffffffffffff82169050919050565b60006200022d8262000200565b9050919050565b6000620002418262000220565b9050919050565b620002538162000234565b81146200025f57600080fd5b50565b600081519050620002738162000248565b92915050565b6000620002868262000220565b9050919050565b620002988162000279565b8114620002a457600080fd5b50565b600081519050620002b8816200028d565b92915050565b6000620002cb8262000220565b9050919050565b620002dd81620002be565b8114620002e957600080fd5b50565b600081519050620002fd81620002d2565b92915050565b6000806000606084860312156200031f576200031e620001fb565b5b60006200032f8682870162000262565b93505060206200034286828701620002a7565b92505060406200035586828701620002ec565b9150509250925092565b6119ec806200036f6000396000f3fe608060405234801561001057600080fd5b50600436106101215760003560e01c80637cf0c72f116100ad578063bf7e214f11610071578063bf7e214f1461032a578063d373336d14610348578063eb79042514610364578063ed08fa8014610380578063f2f4eb261461039e57610121565b80637cf0c72f146102605780638829ff54146102905780638a0f0126146102c05780638d4a6e71146102dc5780638da5cb5b1461030c57610121565b806349eabf1a116100f457806349eabf1a146101be5780634d2e03a0146101da5780635e039f96146101f8578063686a1281146102145780637a9e5e4b1461024457610121565b806313af40351461012657806319b33ef81461014257806335eba0d514610172578063496f89e5146101a2575b600080fd5b610140600480360381019061013b9190610e7c565b6103bc565b005b61015c60048036038101906101579190610edf565b6104c6565b6040516101699190610f27565b60405180910390f35b61018c60048036038101906101879190610fb7565b6104e6565b604051610199919061102d565b60405180910390f35b6101bc60048036038101906101b79190611048565b61055e565b005b6101d860048036038101906101d39190610fb7565b6105f0565b005b6101e261069a565b6040516101ef91906110d4565b60405180910390f35b610212600480360381019061020d9190611154565b6106c0565b005b61022e60048036038101906102299190611048565b6106d0565b60405161023b91906111c3565b60405180910390f35b61025e6004803603810190610259919061121c565b6106f0565b005b61027a6004803603810190610275919061138a565b6108b1565b60405161028791906113e2565b60405180910390f35b6102aa60048036038101906102a591906113fd565b6108ea565b6040516102b7919061102d565b60405180910390f35b6102da60048036038101906102d59190610fb7565b6109df565b005b6102f660048036038101906102f19190610fb7565b610a89565b604051610303919061102d565b60405180910390f35b610314610aab565b604051610321919061148f565b60405180910390f35b610332610acf565b60405161033f91906114cb565b60405180910390f35b610362600480360381019061035d91906114e6565b610af5565b005b61037e60048036038101906103799190611526565b610bd2565b005b610388610be2565b60405161039591906111c3565b60405180910390f35b6103a6610bf5565b6040516103b39190611594565b60405180910390f35b6103ea336000357fffffffff0000000000000000000000000000000000000000000000000000000016610c1b565b610429576040517f08c379a00000000000000000000000000000000000000000000000000000000081526004016104209061160c565b60405180910390fd5b806000806101000a81548173ffffffffffffffffffffffffffffffffffffffff021916908373ffffffffffffffffffffffffffffffffffffffff1602179055508073ffffffffffffffffffffffffffffffffffffffff163373ffffffffffffffffffffffffffffffffffffffff167f8292fce18fa69edf4db7b94ea2e58241df0ae57f97e0a6c9b29067028bf92d7660405160405180910390a350565b60066020528060005260406000206000915054906101000a900460ff1681565b60006104f485858585610a89565b90506006600082815260200190815260200160002060009054906101000a900460ff16610556576040517f08c379a000000000000000000000000000000000000000000000000000000000815260040161054d9061169e565b60405180910390fd5b949350505050565b600360009054906101000a900473ffffffffffffffffffffffffffffffffffffffff1673ffffffffffffffffffffffffffffffffffffffff166370fd4de682336040518363ffffffff1660e01b81526004016105bb9291906116be565b600060405180830381600087803b1580156105d557600080fd5b505af11580156105e9573d6000803e3d6000fd5b5050505050565b61061e336000357fffffffff0000000000000000000000000000000000000000000000000000000016610c1b565b61065d576040517f08c379a00000000000000000000000000000000000000000000000000000000081526004016106549061160c565b60405180910390fd5b60006006600061066f87878787610a89565b815260200190815260200160002060006101000a81548160ff02191690831515021790555050505050565b600360009054906101000a900473ffffffffffffffffffffffffffffffffffffffff1681565b6106cb838383610d59565b505050565b60056020528060005260406000206000915054906101000a900460ff1681565b60008054906101000a900473ffffffffffffffffffffffffffffffffffffffff1673ffffffffffffffffffffffffffffffffffffffff163373ffffffffffffffffffffffffffffffffffffffff16148061080a5750600160009054906101000a900473ffffffffffffffffffffffffffffffffffffffff1673ffffffffffffffffffffffffffffffffffffffff1663b700961333306000357fffffffff00000000000000000000000000000000000000000000000000000000166040518463ffffffff1660e01b81526004016107c893929190611722565b602060405180830381865afa1580156107e5573d6000803e3d6000fd5b505050506040513d601f19601f820116820180604052508101906108099190611785565b5b61081357600080fd5b80600160006101000a81548173ffffffffffffffffffffffffffffffffffffffff021916908373ffffffffffffffffffffffffffffffffffffffff1602179055508073ffffffffffffffffffffffffffffffffffffffff163373ffffffffffffffffffffffffffffffffffffffff167fa3396fd7f6e0a21b50e5089d2da70d5ac0a3bbbd1f617a93f134b7638998019860405160405180910390a350565b6004818051602081018201805184825260208301602085012081835280955050505050506000915054906101000a900463ffffffff1681565b6000806004866040516108fd919061182c565b908152602001604051809103902060009054906101000a900463ffffffff16905060008163ffffffff161415610968576040517f08c379a000000000000000000000000000000000000000000000000000000000815260040161095f906118b5565b60405180910390fd5b61097481868686610a89565b91506006600083815260200190815260200160002060009054906101000a900460ff166109d6576040517f08c379a00000000000000000000000000000000000000000000000000000000081526004016109cd9061169e565b60405180910390fd5b50949350505050565b610a0d336000357fffffffff0000000000000000000000000000000000000000000000000000000016610c1b565b610a4c576040517f08c379a0000000000000000000000000000000000000000000000000000000008152600401610a439061160c565b60405180910390fd5b600160066000610a5e87878787610a89565b815260200190815260200160002060006101000a81548160ff02191690831515021790555050505050565b6000630100000085026201000085026101008502840101019050949350505050565b60008054906101000a900473ffffffffffffffffffffffffffffffffffffffff1681565b600160009054906101000a900473ffffffffffffffffffffffffffffffffffffffff1681565b8060ff168260ff1614610b3d576040517f08c379a0000000000000000000000000000000000000000000000000000000008152600401610b3490611921565b60405180910390fd5b600360009054906101000a900473ffffffffffffffffffffffffffffffffffffffff1673ffffffffffffffffffffffffffffffffffffffff1663b0c0a6208284336040518463ffffffff1660e01b8152600401610b9c93929190611941565b600060405180830381600087803b158015610bb657600080fd5b505af1158015610bca573d6000803e3d6000fd5b505050505050565b610bde82826000610d59565b5050565b600760009054906101000a900460ff1681565b600260009054906101000a900473ffffffffffffffffffffffffffffffffffffffff1681565b600080600160009054906101000a900473ffffffffffffffffffffffffffffffffffffffff169050600073ffffffffffffffffffffffffffffffffffffffff168173ffffffffffffffffffffffffffffffffffffffff1614158015610cfa57508073ffffffffffffffffffffffffffffffffffffffff1663b70096138530866040518463ffffffff1660e01b8152600401610cb893929190611722565b602060405180830381865afa158015610cd5573d6000803e3d6000fd5b505050506040513d601f19601f82011682018060405250810190610cf99190611785565b5b80610d50575060008054906101000a900473ffffffffffffffffffffffffffffffffffffffff1673ffffffffffffffffffffffffffffffffffffffff168473ffffffffffffffffffffffffffffffffffffffff16145b91505092915050565b610d87336000357fffffffff0000000000000000000000000000000000000000000000000000000016610c1b565b610dc6576040517f08c379a0000000000000000000000000000000000000000000000000000000008152600401610dbd9061160c565b60405180910390fd5b8060048484604051610dd992919061199d565b908152602001604051809103902060006101000a81548163ffffffff021916908363ffffffff160217905550505050565b6000604051905090565b600080fd5b600080fd5b600073ffffffffffffffffffffffffffffffffffffffff82169050919050565b6000610e4982610e1e565b9050919050565b610e5981610e3e565b8114610e6457600080fd5b50565b600081359050610e7681610e50565b92915050565b600060208284031215610e9257610e91610e14565b5b6000610ea084828501610e67565b91505092915050565b6000819050919050565b610ebc81610ea9565b8114610ec757600080fd5b50565b600081359050610ed981610eb3565b92915050565b600060208284031215610ef557610ef4610e14565b5b6000610f0384828501610eca565b91505092915050565b60008115159050919050565b610f2181610f0c565b82525050565b6000602082019050610f3c6000830184610f18565b92915050565b600063ffffffff82169050919050565b610f5b81610f42565b8114610f6657600080fd5b50565b600081359050610f7881610f52565b92915050565b600060ff82169050919050565b610f9481610f7e565b8114610f9f57600080fd5b50565b600081359050610fb181610f8b565b92915050565b60008060008060808587031215610fd157610fd0610e14565b5b6000610fdf87828801610f69565b9450506020610ff087828801610fa2565b935050604061100187828801610fa2565b925050606061101287828801610fa2565b91505092959194509250565b61102781610ea9565b82525050565b6000602082019050611042600083018461101e565b92915050565b60006020828403121561105e5761105d610e14565b5b600061106c84828501610fa2565b91505092915050565b6000819050919050565b600061109a61109561109084610e1e565b611075565b610e1e565b9050919050565b60006110ac8261107f565b9050919050565b60006110be826110a1565b9050919050565b6110ce816110b3565b82525050565b60006020820190506110e960008301846110c5565b92915050565b600080fd5b600080fd5b600080fd5b60008083601f840112611114576111136110ef565b5b8235905067ffffffffffffffff811115611131576111306110f4565b5b60208301915083600182028301111561114d5761114c6110f9565b5b9250929050565b60008060006040848603121561116d5761116c610e14565b5b600084013567ffffffffffffffff81111561118b5761118a610e19565b5b611197868287016110fe565b935093505060206111aa86828701610f69565b9150509250925092565b6111bd81610f7e565b82525050565b60006020820190506111d860008301846111b4565b92915050565b60006111e982610e3e565b9050919050565b6111f9816111de565b811461120457600080fd5b50565b600081359050611216816111f0565b92915050565b60006020828403121561123257611231610e14565b5b600061124084828501611207565b91505092915050565b600080fd5b6000601f19601f8301169050919050565b7f4e487b7100000000000000000000000000000000000000000000000000000000600052604160045260246000fd5b6112978261124e565b810181811067ffffffffffffffff821117156112b6576112b561125f565b5b80604052505050565b60006112c9610e0a565b90506112d5828261128e565b919050565b600067ffffffffffffffff8211156112f5576112f461125f565b5b6112fe8261124e565b9050602081019050919050565b82818337600083830152505050565b600061132d611328846112da565b6112bf565b90508281526020810184848401111561134957611348611249565b5b61135484828561130b565b509392505050565b600082601f830112611371576113706110ef565b5b813561138184826020860161131a565b91505092915050565b6000602082840312156113a05761139f610e14565b5b600082013567ffffffffffffffff8111156113be576113bd610e19565b5b6113ca8482850161135c565b91505092915050565b6113dc81610f42565b82525050565b60006020820190506113f760008301846113d3565b92915050565b6000806000806080858703121561141757611416610e14565b5b600085013567ffffffffffffffff81111561143557611434610e19565b5b6114418782880161135c565b945050602061145287828801610fa2565b935050604061146387828801610fa2565b925050606061147487828801610fa2565b91505092959194509250565b61148981610e3e565b82525050565b60006020820190506114a46000830184611480565b92915050565b60006114b5826110a1565b9050919050565b6114c5816114aa565b82525050565b60006020820190506114e060008301846114bc565b92915050565b600080604083850312156114fd576114fc610e14565b5b600061150b85828601610eca565b925050602061151c85828601610fa2565b9150509250929050565b6000806020838503121561153d5761153c610e14565b5b600083013567ffffffffffffffff81111561155b5761155a610e19565b5b611567858286016110fe565b92509250509250929050565b600061157e826110a1565b9050919050565b61158e81611573565b82525050565b60006020820190506115a96000830184611585565b92915050565b600082825260208201905092915050565b7f554e415554484f52495a45440000000000000000000000000000000000000000600082015250565b60006115f6600c836115af565b9150611601826115c0565b602082019050919050565b60006020820190508181036000830152611625816115e9565b9050919050565b7f536f7272792074686520726571756573746564207765617261626c6520646f6560008201527f736e277420657869737400000000000000000000000000000000000000000000602082015250565b6000611688602a836115af565b91506116938261162c565b604082019050919050565b600060208201905081810360008301526116b78161167b565b9050919050565b60006040820190506116d360008301856111b4565b6116e06020830184611480565b9392505050565b60007fffffffff0000000000000000000000000000000000000000000000000000000082169050919050565b61171c816116e7565b82525050565b60006060820190506117376000830186611480565b6117446020830185611480565b6117516040830184611713565b949350505050565b61176281610f0c565b811461176d57600080fd5b50565b60008151905061177f81611759565b92915050565b60006020828403121561179b5761179a610e14565b5b60006117a984828501611770565b91505092915050565b600081519050919050565b600081905092915050565b60005b838110156117e65780820151818401526020810190506117cb565b838111156117f5576000848401525b50505050565b6000611806826117b2565b61181081856117bd565b93506118208185602086016117c8565b80840191505092915050565b600061183882846117fb565b915081905092915050565b7f536f7272792074686520726571756573746564206f7074696f6e20646f65732060008201527f6e6f742065786973740000000000000000000000000000000000000000000000602082015250565b600061189f6029836115af565b91506118aa82611843565b604082019050919050565b600060208201905081810360008301526118ce81611892565b9050919050565b7f5468697320646f65736e27742066697420696e207468697320736c6f74000000600082015250565b600061190b601d836115af565b9150611916826118d5565b602082019050919050565b6000602082019050818103600083015261193a816118fe565b9050919050565b600060608201905061195660008301866111b4565b611963602083018561101e565b6119706040830184611480565b949350505050565b600061198483856117bd565b935061199183858461130b565b82840190509392505050565b60006119aa828486611978565b9150819050939250505056fea2646970667358221220ae5d9fe084d352abb1ffcd5c6bcf3e699941b94f3401c344f4c96451c8f535e064736f6c634300080a0033",
  "linkReferences": {},
  "deployedLinkReferences": {}
}