{
  "_format": "hh-sol-artifact-1",
  "contractName": "MerkleValidator",
  "sourceName": "contracts/validators/MerkleValidator.sol",
  "abi": [
    {
      "anonymous": false,
      "inputs": [
        {
          "indexed": true,
          "internalType": "address",
          "name": "previousOwner",
          "type": "address"
        },
        {
          "indexed": true,
          "internalType": "address",
          "name": "newOwner",
          "type": "address"
        }
      ],
      "name": "OwnershipTransferred",
      "type": "event"
    },
    {
      "inputs": [
        {
          "internalType": "uint256",
          "name": "",
          "type": "uint256"
        }
      ],
      "name": "claimed",
      "outputs": [
        {
          "internalType": "bool",
          "name": "",
          "type": "bool"
        }
      ],
      "stateMutability": "view",
      "type": "function"
    },
    {
      "inputs": [
        {
          "internalType": "uint256",
          "name": "",
          "type": "uint256"
        }
      ],
      "name": "drops",
      "outputs": [
        {
          "internalType": "bytes32",
          "name": "_merkleRoot",
          "type": "bytes32"
        },
        {
          "internalType": "uint16",
          "name": "_blocks",
          "type": "uint16"
        },
        {
          "internalType": "uint64",
          "name": "_endTime",
          "type": "uint64"
        }
      ],
      "stateMutability": "view",
      "type": "function"
    },
    {
      "inputs": [],
      "name": "owner",
      "outputs": [
        {
          "internalType": "address",
          "name": "",
          "type": "address"
        }
      ],
      "stateMutability": "view",
      "type": "function"
    },
    {
      "inputs": [],
      "name": "renounceOwnership",
      "outputs": [],
      "stateMutability": "nonpayable",
      "type": "function"
    },
    {
      "inputs": [
        {
          "internalType": "uint256",
          "name": "_dropKey",
          "type": "uint256"
        },
        {
          "internalType": "bytes32",
          "name": "_merkleRoot",
          "type": "bytes32"
        },
        {
          "internalType": "uint16",
          "name": "_blocks",
          "type": "uint16"
        },
        {
          "internalType": "uint64",
          "name": "_endTime",
          "type": "uint64"
        }
      ],
      "name": "seedAllocations",
      "outputs": [],
      "stateMutability": "nonpayable",
      "type": "function"
    },
    {
      "inputs": [
        {
          "internalType": "address",
          "name": "newOwner",
          "type": "address"
        }
      ],
      "name": "transferOwnership",
      "outputs": [],
      "stateMutability": "nonpayable",
      "type": "function"
    },
    {
      "inputs": [
        {
          "internalType": "address",
          "name": "",
          "type": "address"
        },
        {
          "internalType": "uint256",
          "name": "",
          "type": "uint256"
        },
        {
          "internalType": "uint256[]",
          "name": "",
          "type": "uint256[]"
        },
        {
          "internalType": "string",
          "name": "",
          "type": "string"
        },
        {
          "internalType": "bytes",
          "name": "",
          "type": "bytes"
        }
      ],
      "name": "validate",
      "outputs": [],
      "stateMutability": "pure",
      "type": "function"
    }
  ],
  "bytecode": "0x608060405234801561001057600080fd5b5061002d61002261003260201b60201c565b61003a60201b60201c565b6100fe565b600033905090565b60008060009054906101000a900473ffffffffffffffffffffffffffffffffffffffff169050816000806101000a81548173ffffffffffffffffffffffffffffffffffffffff021916908373ffffffffffffffffffffffffffffffffffffffff1602179055508173ffffffffffffffffffffffffffffffffffffffff168173ffffffffffffffffffffffffffffffffffffffff167f8be0079c531659141344cd1fd0a4f28419497f9722a3daafe3b4186f6b6457e060405160405180910390a35050565b610d8a8061010d6000396000f3fe608060405234801561001057600080fd5b506004361061007d5760003560e01c80638da5cb5b1161005b5780638da5cb5b146100da578063dbe7e3bd146100f8578063e6544e8a14610128578063f2fde38b146101445761007d565b80635eb399681461008257806362749f05146100b4578063715018a6146100d0575b600080fd5b61009c6004803603810190610097919061060b565b610160565b6040516100ab93929190610691565b60405180910390f35b6100ce60048036038101906100c9919061098f565b6101ac565b005b6100d86101b4565b005b6100e261023c565b6040516100ef9190610a70565b60405180910390f35b610112600480360381019061010d919061060b565b610265565b60405161011f9190610aa6565b60405180910390f35b610142600480360381019061013d9190610b45565b610285565b005b61015e60048036038101906101599190610bac565b6103fd565b005b60016020528060005260406000206000915090508060000154908060010160009054906101000a900461ffff16908060010160029054906101000a900467ffffffffffffffff16905083565b505050505050565b6101bc6104f5565b73ffffffffffffffffffffffffffffffffffffffff166101da61023c565b73ffffffffffffffffffffffffffffffffffffffff1614610230576040517f08c379a000000000000000000000000000000000000000000000000000000000815260040161022790610c36565b60405180910390fd5b61023a60006104fd565b565b60008060009054906101000a900473ffffffffffffffffffffffffffffffffffffffff16905090565b60026020528060005260406000206000915054906101000a900460ff1681565b61028d6104f5565b73ffffffffffffffffffffffffffffffffffffffff166102ab61023c565b73ffffffffffffffffffffffffffffffffffffffff1614610301576040517f08c379a00000000000000000000000000000000000000000000000000000000081526004016102f890610c36565b60405180910390fd5b6000801b60016000868152602001908152602001600020600001541461035c576040517f08c379a000000000000000000000000000000000000000000000000000000000815260040161035390610ca2565b60405180910390fd5b60405180606001604052808481526020018361ffff1681526020018267ffffffffffffffff16815250600160008681526020019081526020016000206000820151816000015560208201518160010160006101000a81548161ffff021916908361ffff16021790555060408201518160010160026101000a81548167ffffffffffffffff021916908367ffffffffffffffff16021790555090505050505050565b6104056104f5565b73ffffffffffffffffffffffffffffffffffffffff1661042361023c565b73ffffffffffffffffffffffffffffffffffffffff1614610479576040517f08c379a000000000000000000000000000000000000000000000000000000000815260040161047090610c36565b60405180910390fd5b600073ffffffffffffffffffffffffffffffffffffffff168173ffffffffffffffffffffffffffffffffffffffff1614156104e9576040517f08c379a00000000000000000000000000000000000000000000000000000000081526004016104e090610d34565b60405180910390fd5b6104f2816104fd565b50565b600033905090565b60008060009054906101000a900473ffffffffffffffffffffffffffffffffffffffff169050816000806101000a81548173ffffffffffffffffffffffffffffffffffffffff021916908373ffffffffffffffffffffffffffffffffffffffff1602179055508173ffffffffffffffffffffffffffffffffffffffff168173ffffffffffffffffffffffffffffffffffffffff167f8be0079c531659141344cd1fd0a4f28419497f9722a3daafe3b4186f6b6457e060405160405180910390a35050565b6000604051905090565b600080fd5b600080fd5b6000819050919050565b6105e8816105d5565b81146105f357600080fd5b50565b600081359050610605816105df565b92915050565b600060208284031215610621576106206105cb565b5b600061062f848285016105f6565b91505092915050565b6000819050919050565b61064b81610638565b82525050565b600061ffff82169050919050565b61066881610651565b82525050565b600067ffffffffffffffff82169050919050565b61068b8161066e565b82525050565b60006060820190506106a66000830186610642565b6106b3602083018561065f565b6106c06040830184610682565b949350505050565b600073ffffffffffffffffffffffffffffffffffffffff82169050919050565b60006106f3826106c8565b9050919050565b610703816106e8565b811461070e57600080fd5b50565b600081359050610720816106fa565b92915050565b600080fd5b6000601f19601f8301169050919050565b7f4e487b7100000000000000000000000000000000000000000000000000000000600052604160045260246000fd5b6107748261072b565b810181811067ffffffffffffffff821117156107935761079261073c565b5b80604052505050565b60006107a66105c1565b90506107b2828261076b565b919050565b600067ffffffffffffffff8211156107d2576107d161073c565b5b602082029050602081019050919050565b600080fd5b60006107fb6107f6846107b7565b61079c565b9050808382526020820190506020840283018581111561081e5761081d6107e3565b5b835b81811015610847578061083388826105f6565b845260208401935050602081019050610820565b5050509392505050565b600082601f83011261086657610865610726565b5b81356108768482602086016107e8565b91505092915050565b600080fd5b60008083601f84011261089a57610899610726565b5b8235905067ffffffffffffffff8111156108b7576108b661087f565b5b6020830191508360018202830111156108d3576108d26107e3565b5b9250929050565b600080fd5b600067ffffffffffffffff8211156108fa576108f961073c565b5b6109038261072b565b9050602081019050919050565b82818337600083830152505050565b600061093261092d846108df565b61079c565b90508281526020810184848401111561094e5761094d6108da565b5b610959848285610910565b509392505050565b600082601f83011261097657610975610726565b5b813561098684826020860161091f565b91505092915050565b60008060008060008060a087890312156109ac576109ab6105cb565b5b60006109ba89828a01610711565b96505060206109cb89828a016105f6565b955050604087013567ffffffffffffffff8111156109ec576109eb6105d0565b5b6109f889828a01610851565b945050606087013567ffffffffffffffff811115610a1957610a186105d0565b5b610a2589828a01610884565b9350935050608087013567ffffffffffffffff811115610a4857610a476105d0565b5b610a5489828a01610961565b9150509295509295509295565b610a6a816106e8565b82525050565b6000602082019050610a856000830184610a61565b92915050565b60008115159050919050565b610aa081610a8b565b82525050565b6000602082019050610abb6000830184610a97565b92915050565b610aca81610638565b8114610ad557600080fd5b50565b600081359050610ae781610ac1565b92915050565b610af681610651565b8114610b0157600080fd5b50565b600081359050610b1381610aed565b92915050565b610b228161066e565b8114610b2d57600080fd5b50565b600081359050610b3f81610b19565b92915050565b60008060008060808587031215610b5f57610b5e6105cb565b5b6000610b6d878288016105f6565b9450506020610b7e87828801610ad8565b9350506040610b8f87828801610b04565b9250506060610ba087828801610b30565b91505092959194509250565b600060208284031215610bc257610bc16105cb565b5b6000610bd084828501610711565b91505092915050565b600082825260208201905092915050565b7f4f776e61626c653a2063616c6c6572206973206e6f7420746865206f776e6572600082015250565b6000610c20602083610bd9565b9150610c2b82610bea565b602082019050919050565b60006020820190508181036000830152610c4f81610c13565b9050919050565b7f63616e6e6f74207265777269746520612064726f700000000000000000000000600082015250565b6000610c8c601583610bd9565b9150610c9782610c56565b602082019050919050565b60006020820190508181036000830152610cbb81610c7f565b9050919050565b7f4f776e61626c653a206e6577206f776e657220697320746865207a65726f206160008201527f6464726573730000000000000000000000000000000000000000000000000000602082015250565b6000610d1e602683610bd9565b9150610d2982610cc2565b604082019050919050565b60006020820190508181036000830152610d4d81610d11565b905091905056fea2646970667358221220dff8c4969f7e5a12758c331b652199b825691e11e9e63c968d98a96fe6c5414d64736f6c634300080a0033",
  "linkReferences": {},
  "deployedLinkReferences": {}
}