{
  "_format": "hh-sol-artifact-1",
  "contractName": "VRFv2SubscriptionManager",
  "sourceName": "contracts/chainlink/SubManager.sol",
  "abi": [
    {
      "inputs": [
        {
          "internalType": "address",
          "name": "_coordinator",
          "type": "address"
        },
        {
          "internalType": "address",
          "name": "_link",
          "type": "address"
        }
      ],
      "stateMutability": "nonpayable",
      "type": "constructor"
    },
    {
      "inputs": [
        {
          "internalType": "address",
          "name": "consumerAddress",
          "type": "address"
        }
      ],
      "name": "addConsumer",
      "outputs": [],
      "stateMutability": "nonpayable",
      "type": "function"
    },
    {
      "inputs": [
        {
          "internalType": "address",
          "name": "receivingWallet",
          "type": "address"
        }
      ],
      "name": "cancelSubscription",
      "outputs": [],
      "stateMutability": "nonpayable",
      "type": "function"
    },
    {
      "inputs": [],
      "name": "coordinator",
      "outputs": [
        {
          "internalType": "contract VRFCoordinatorV2Interface",
          "name": "",
          "type": "address"
        }
      ],
      "stateMutability": "view",
      "type": "function"
    },
    {
      "inputs": [],
      "name": "link",
      "outputs": [
        {
          "internalType": "contract LinkTokenInterface",
          "name": "",
          "type": "address"
        }
      ],
      "stateMutability": "view",
      "type": "function"
    },
    {
      "inputs": [
        {
          "internalType": "address",
          "name": "consumerAddress",
          "type": "address"
        }
      ],
      "name": "removeConsumer",
      "outputs": [],
      "stateMutability": "nonpayable",
      "type": "function"
    },
    {
      "inputs": [
        {
          "internalType": "uint256",
          "name": "amount",
          "type": "uint256"
        }
      ],
      "name": "topUpSubscription",
      "outputs": [],
      "stateMutability": "nonpayable",
      "type": "function"
    },
    {
      "inputs": [
        {
          "internalType": "uint256",
          "name": "amount",
          "type": "uint256"
        },
        {
          "internalType": "address",
          "name": "to",
          "type": "address"
        }
      ],
      "name": "withdraw",
      "outputs": [],
      "stateMutability": "nonpayable",
      "type": "function"
    }
  ],
  "bytecode": "0x60806040523480156200001157600080fd5b5060405162000f7238038062000f7283398181016040528101906200003791906200033b565b816000806101000a81548173ffffffffffffffffffffffffffffffffffffffff021916908373ffffffffffffffffffffffffffffffffffffffff16021790555080600160006101000a81548173ffffffffffffffffffffffffffffffffffffffff021916908373ffffffffffffffffffffffffffffffffffffffff16021790555033600360086101000a81548173ffffffffffffffffffffffffffffffffffffffff021916908373ffffffffffffffffffffffffffffffffffffffff160217905550620001096200011160201b60201c565b505062000448565b600360089054906101000a900473ffffffffffffffffffffffffffffffffffffffff1673ffffffffffffffffffffffffffffffffffffffff163373ffffffffffffffffffffffffffffffffffffffff16146200016c57600080fd5b60008054906101000a900473ffffffffffffffffffffffffffffffffffffffff1673ffffffffffffffffffffffffffffffffffffffff1663a21a23e46040518163ffffffff1660e01b81526004016020604051808303816000875af1158015620001da573d6000803e3d6000fd5b505050506040513d601f19601f82011682018060405250810190620002009190620003c7565b600360006101000a81548167ffffffffffffffff021916908367ffffffffffffffff16021790555060008054906101000a900473ffffffffffffffffffffffffffffffffffffffff1673ffffffffffffffffffffffffffffffffffffffff16637341c10c600360009054906101000a900467ffffffffffffffff16306040518363ffffffff1660e01b81526004016200029b9291906200041b565b600060405180830381600087803b158015620002b657600080fd5b505af1158015620002cb573d6000803e3d6000fd5b50505050565b600080fd5b600073ffffffffffffffffffffffffffffffffffffffff82169050919050565b60006200030382620002d6565b9050919050565b6200031581620002f6565b81146200032157600080fd5b50565b60008151905062000335816200030a565b92915050565b60008060408385031215620003555762000354620002d1565b5b6000620003658582860162000324565b9250506020620003788582860162000324565b9150509250929050565b600067ffffffffffffffff82169050919050565b620003a18162000382565b8114620003ad57600080fd5b50565b600081519050620003c18162000396565b92915050565b600060208284031215620003e057620003df620002d1565b5b6000620003f084828501620003b0565b91505092915050565b620004048162000382565b82525050565b6200041581620002f6565b82525050565b6000604082019050620004326000830185620003f9565b6200044160208301846200040a565b9392505050565b610b1a80620004586000396000f3fe608060405234801561001057600080fd5b506004361061007c5760003560e01c8063112940f91161005b578063112940f9146100d75780631c4695f4146100f357806386850e931461011157806393d81d581461012d5761007c565b8062f714ce146100815780630a0090971461009d5780630e27e3df146100bb575b600080fd5b61009b600480360381019061009691906107aa565b610149565b005b6100a5610248565b6040516100b29190610849565b60405180910390f35b6100d560048036038101906100d09190610864565b61026c565b005b6100f160048036038101906100ec9190610864565b61036c565b005b6100fb61046c565b60405161010891906108b2565b60405180910390f35b61012b600480360381019061012691906108cd565b610492565b005b61014760048036038101906101429190610864565b6105e7565b005b600360089054906101000a900473ffffffffffffffffffffffffffffffffffffffff1673ffffffffffffffffffffffffffffffffffffffff163373ffffffffffffffffffffffffffffffffffffffff16146101a357600080fd5b600160009054906101000a900473ffffffffffffffffffffffffffffffffffffffff1673ffffffffffffffffffffffffffffffffffffffff1663a9059cbb82846040518363ffffffff1660e01b8152600401610200929190610918565b6020604051808303816000875af115801561021f573d6000803e3d6000fd5b505050506040513d601f19601f820116820180604052508101906102439190610979565b505050565b60008054906101000a900473ffffffffffffffffffffffffffffffffffffffff1681565b600360089054906101000a900473ffffffffffffffffffffffffffffffffffffffff1673ffffffffffffffffffffffffffffffffffffffff163373ffffffffffffffffffffffffffffffffffffffff16146102c657600080fd5b60008054906101000a900473ffffffffffffffffffffffffffffffffffffffff1673ffffffffffffffffffffffffffffffffffffffff16639f87fad7600360009054906101000a900467ffffffffffffffff16836040518363ffffffff1660e01b81526004016103379291906109c9565b600060405180830381600087803b15801561035157600080fd5b505af1158015610365573d6000803e3d6000fd5b5050505050565b600360089054906101000a900473ffffffffffffffffffffffffffffffffffffffff1673ffffffffffffffffffffffffffffffffffffffff163373ffffffffffffffffffffffffffffffffffffffff16146103c657600080fd5b60008054906101000a900473ffffffffffffffffffffffffffffffffffffffff1673ffffffffffffffffffffffffffffffffffffffff16637341c10c600360009054906101000a900467ffffffffffffffff16836040518363ffffffff1660e01b81526004016104379291906109c9565b600060405180830381600087803b15801561045157600080fd5b505af1158015610465573d6000803e3d6000fd5b5050505050565b600160009054906101000a900473ffffffffffffffffffffffffffffffffffffffff1681565b600360089054906101000a900473ffffffffffffffffffffffffffffffffffffffff1673ffffffffffffffffffffffffffffffffffffffff163373ffffffffffffffffffffffffffffffffffffffff16146104ec57600080fd5b600160009054906101000a900473ffffffffffffffffffffffffffffffffffffffff1673ffffffffffffffffffffffffffffffffffffffff16634000aea060008054906101000a900473ffffffffffffffffffffffffffffffffffffffff1683600360009054906101000a900467ffffffffffffffff1660405160200161057391906109f2565b6040516020818303038152906040526040518463ffffffff1660e01b81526004016105a093929190610aa6565b6020604051808303816000875af11580156105bf573d6000803e3d6000fd5b505050506040513d601f19601f820116820180604052508101906105e39190610979565b5050565b600360089054906101000a900473ffffffffffffffffffffffffffffffffffffffff1673ffffffffffffffffffffffffffffffffffffffff163373ffffffffffffffffffffffffffffffffffffffff161461064157600080fd5b60008054906101000a900473ffffffffffffffffffffffffffffffffffffffff1673ffffffffffffffffffffffffffffffffffffffff1663d7ae1d30600360009054906101000a900467ffffffffffffffff16836040518363ffffffff1660e01b81526004016106b29291906109c9565b600060405180830381600087803b1580156106cc57600080fd5b505af11580156106e0573d6000803e3d6000fd5b505050506000600360006101000a81548167ffffffffffffffff021916908367ffffffffffffffff16021790555050565b600080fd5b6000819050919050565b61072981610716565b811461073457600080fd5b50565b60008135905061074681610720565b92915050565b600073ffffffffffffffffffffffffffffffffffffffff82169050919050565b60006107778261074c565b9050919050565b6107878161076c565b811461079257600080fd5b50565b6000813590506107a48161077e565b92915050565b600080604083850312156107c1576107c0610711565b5b60006107cf85828601610737565b92505060206107e085828601610795565b9150509250929050565b6000819050919050565b600061080f61080a6108058461074c565b6107ea565b61074c565b9050919050565b6000610821826107f4565b9050919050565b600061083382610816565b9050919050565b61084381610828565b82525050565b600060208201905061085e600083018461083a565b92915050565b60006020828403121561087a57610879610711565b5b600061088884828501610795565b91505092915050565b600061089c82610816565b9050919050565b6108ac81610891565b82525050565b60006020820190506108c760008301846108a3565b92915050565b6000602082840312156108e3576108e2610711565b5b60006108f184828501610737565b91505092915050565b6109038161076c565b82525050565b61091281610716565b82525050565b600060408201905061092d60008301856108fa565b61093a6020830184610909565b9392505050565b60008115159050919050565b61095681610941565b811461096157600080fd5b50565b6000815190506109738161094d565b92915050565b60006020828403121561098f5761098e610711565b5b600061099d84828501610964565b91505092915050565b600067ffffffffffffffff82169050919050565b6109c3816109a6565b82525050565b60006040820190506109de60008301856109ba565b6109eb60208301846108fa565b9392505050565b6000602082019050610a0760008301846109ba565b92915050565b600081519050919050565b600082825260208201905092915050565b60005b83811015610a47578082015181840152602081019050610a2c565b83811115610a56576000848401525b50505050565b6000601f19601f8301169050919050565b6000610a7882610a0d565b610a828185610a18565b9350610a92818560208601610a29565b610a9b81610a5c565b840191505092915050565b6000606082019050610abb60008301866108fa565b610ac86020830185610909565b8181036040830152610ada8184610a6d565b905094935050505056fea26469706673582212204d809079738deb91a65a80e36f819673069d9ff1fd3d7355dbbfefc7ca483e9264736f6c634300080a0033",
  "linkReferences": {},
  "deployedLinkReferences": {}
}