{
  "_format": "hh-sol-artifact-1",
  "contractName": "VRFCoordinatorMock",
  "sourceName": "contracts/mocks/VRFCoordinatorMock.sol",
  "abi": [
    {
      "inputs": [
        {
          "internalType": "address",
          "name": "linkAddress",
          "type": "address"
        }
      ],
      "stateMutability": "nonpayable",
      "type": "constructor"
    },
    {
      "anonymous": false,
      "inputs": [
        {
          "indexed": true,
          "internalType": "address",
          "name": "sender",
          "type": "address"
        },
        {
          "indexed": true,
          "internalType": "bytes32",
          "name": "keyHash",
          "type": "bytes32"
        },
        {
          "indexed": true,
          "internalType": "uint256",
          "name": "seed",
          "type": "uint256"
        }
      ],
      "name": "RandomnessRequest",
      "type": "event"
    },
    {
      "inputs": [
        {
          "internalType": "bytes32",
          "name": "requestId",
          "type": "bytes32"
        },
        {
          "internalType": "uint256",
          "name": "randomness",
          "type": "uint256"
        },
        {
          "internalType": "address",
          "name": "consumerContract",
          "type": "address"
        }
      ],
      "name": "callBackWithRandomness",
      "outputs": [],
      "stateMutability": "nonpayable",
      "type": "function"
    },
    {
      "inputs": [],
      "name": "link",
      "outputs": [
        {
          "internalType": "contract LinkTokenInterface",
          "name": "",
          "type": "address"
        }
      ],
      "stateMutability": "view",
      "type": "function"
    },
    {
      "inputs": [
        {
          "internalType": "address",
          "name": "sender",
          "type": "address"
        },
        {
          "internalType": "uint256",
          "name": "",
          "type": "uint256"
        },
        {
          "internalType": "bytes",
          "name": "_data",
          "type": "bytes"
        }
      ],
      "name": "onTokenTransfer",
      "outputs": [],
      "stateMutability": "nonpayable",
      "type": "function"
    },
    {
      "inputs": [
        {
          "internalType": "address",
          "name": "consumer",
          "type": "address"
        }
      ],
      "name": "setConsumer",
      "outputs": [],
      "stateMutability": "nonpayable",
      "type": "function"
    }
  ],
  "bytecode": "0x6080604052600a60015534801561001557600080fd5b50604051610b14380380610b14833981810160405281019061003791906100e0565b806000806101000a81548173ffffffffffffffffffffffffffffffffffffffff021916908373ffffffffffffffffffffffffffffffffffffffff1602179055505061010d565b600080fd5b600073ffffffffffffffffffffffffffffffffffffffff82169050919050565b60006100ad82610082565b9050919050565b6100bd816100a2565b81146100c857600080fd5b50565b6000815190506100da816100b4565b92915050565b6000602082840312156100f6576100f561007d565b5b6000610104848285016100cb565b91505092915050565b6109f88061011c6000396000f3fe608060405234801561001057600080fd5b506004361061004c5760003560e01c80631c4695f41461005157806363a579d51461006f578063a4c0ed361461008b578063cf55fe97146100a7575b600080fd5b6100596100c3565b604051610066919061041d565b60405180910390f35b6100896004803603810190610084919061048a565b6100e7565b005b6100a560048036038101906100a09190610633565b61012b565b005b6100c160048036038101906100bc91906106d8565b610220565b005b60008054906101000a900473ffffffffffffffffffffffffffffffffffffffff1681565b80600260006101000a81548173ffffffffffffffffffffffffffffffffffffffff021916908373ffffffffffffffffffffffffffffffffffffffff16021790555050565b60008054906101000a900473ffffffffffffffffffffffffffffffffffffffff1673ffffffffffffffffffffffffffffffffffffffff163373ffffffffffffffffffffffffffffffffffffffff16146101b9576040517f08c379a00000000000000000000000000000000000000000000000000000000081526004016101b090610788565b60405180910390fd5b600080828060200190518101906101d091906107d2565b9150915080828673ffffffffffffffffffffffffffffffffffffffff167f7a9a0a6960d95b32cded93c30e63e7c2eb9e877230813c172110ea54dc1c915c60405160405180910390a45050505050565b6000806394985ddd60e01b858560405160240161023e929190610830565b604051602081830303815290604052907bffffffffffffffffffffffffffffffffffffffffffffffffffffffff19166020820180517bffffffffffffffffffffffffffffffffffffffffffffffffffffffff838183161783525050505090506000620324b09050805a10156102e8576040517f08c379a00000000000000000000000000000000000000000000000000000000081526004016102df906108a5565b60405180910390fd5b60008473ffffffffffffffffffffffffffffffffffffffff168360405161030f919061093f565b6000604051808303816000865af19150503d806000811461034c576040519150601f19603f3d011682016040523d82523d6000602084013e610351565b606091505b5050905080610395576040517f08c379a000000000000000000000000000000000000000000000000000000000815260040161038c906109a2565b60405180910390fd5b50505050505050565b600073ffffffffffffffffffffffffffffffffffffffff82169050919050565b6000819050919050565b60006103e36103de6103d98461039e565b6103be565b61039e565b9050919050565b60006103f5826103c8565b9050919050565b6000610407826103ea565b9050919050565b610417816103fc565b82525050565b6000602082019050610432600083018461040e565b92915050565b6000604051905090565b600080fd5b600080fd5b60006104578261039e565b9050919050565b6104678161044c565b811461047257600080fd5b50565b6000813590506104848161045e565b92915050565b6000602082840312156104a05761049f610442565b5b60006104ae84828501610475565b91505092915050565b6000819050919050565b6104ca816104b7565b81146104d557600080fd5b50565b6000813590506104e7816104c1565b92915050565b600080fd5b600080fd5b6000601f19601f8301169050919050565b7f4e487b7100000000000000000000000000000000000000000000000000000000600052604160045260246000fd5b610540826104f7565b810181811067ffffffffffffffff8211171561055f5761055e610508565b5b80604052505050565b6000610572610438565b905061057e8282610537565b919050565b600067ffffffffffffffff82111561059e5761059d610508565b5b6105a7826104f7565b9050602081019050919050565b82818337600083830152505050565b60006105d66105d184610583565b610568565b9050828152602081018484840111156105f2576105f16104f2565b5b6105fd8482856105b4565b509392505050565b600082601f83011261061a576106196104ed565b5b813561062a8482602086016105c3565b91505092915050565b60008060006060848603121561064c5761064b610442565b5b600061065a86828701610475565b935050602061066b868287016104d8565b925050604084013567ffffffffffffffff81111561068c5761068b610447565b5b61069886828701610605565b9150509250925092565b6000819050919050565b6106b5816106a2565b81146106c057600080fd5b50565b6000813590506106d2816106ac565b92915050565b6000806000606084860312156106f1576106f0610442565b5b60006106ff868287016106c3565b9350506020610710868287016104d8565b925050604061072186828701610475565b9150509250925092565b600082825260208201905092915050565b7f4d75737420757365204c494e4b20746f6b656e00000000000000000000000000600082015250565b600061077260138361072b565b915061077d8261073c565b602082019050919050565b600060208201905081810360008301526107a181610765565b9050919050565b6000815190506107b7816106ac565b92915050565b6000815190506107cc816104c1565b92915050565b600080604083850312156107e9576107e8610442565b5b60006107f7858286016107a8565b9250506020610808858286016107bd565b9150509250929050565b61081b816106a2565b82525050565b61082a816104b7565b82525050565b60006040820190506108456000830185610812565b6108526020830184610821565b9392505050565b7f6e6f7420656e6f7567682067617320666f7220636f6e73756d65720000000000600082015250565b600061088f601b8361072b565b915061089a82610859565b602082019050919050565b600060208201905081810360008301526108be81610882565b9050919050565b600081519050919050565b600081905092915050565b60005b838110156108f95780820151818401526020810190506108de565b83811115610908576000848401525b50505050565b6000610919826108c5565b61092381856108d0565b93506109338185602086016108db565b80840191505092915050565b600061094b828461090e565b915081905092915050565b7f497373756520776974682063616c6c0000000000000000000000000000000000600082015250565b600061098c600f8361072b565b915061099782610956565b602082019050919050565b600060208201905081810360008301526109bb8161097f565b905091905056fea264697066735822122059d37a79b13440f5ec247f6db9a4e4e7f7c5205df76febbf253b1c3ed7ea49e764736f6c634300080a0033",
  "linkReferences": {},
  "deployedLinkReferences": {}
}