{
  "_format": "hh-sol-artifact-1",
  "contractName": "Level",
  "sourceName": "contracts/characters/attributes/Level.sol",
  "abi": [
    {
      "inputs": [
        {
          "internalType": "uint256[]",
          "name": "_requiredXp",
          "type": "uint256[]"
        },
        {
          "internalType": "contract IERC20",
          "name": "requiredToken_",
          "type": "address"
        },
        {
          "internalType": "uint256",
          "name": "maxAmount_",
          "type": "uint256"
        },
        {
          "internalType": "uint256",
          "name": "dripRate_",
          "type": "uint256"
        }
      ],
      "stateMutability": "nonpayable",
      "type": "constructor"
    },
    {
      "anonymous": false,
      "inputs": [
        {
          "indexed": true,
          "internalType": "address",
          "name": "owner",
          "type": "address"
        },
        {
          "indexed": true,
          "internalType": "address",
          "name": "spender",
          "type": "address"
        },
        {
          "indexed": false,
          "internalType": "uint256",
          "name": "value",
          "type": "uint256"
        }
      ],
      "name": "Approval",
      "type": "event"
    },
    {
      "anonymous": false,
      "inputs": [
        {
          "indexed": true,
          "internalType": "address",
          "name": "from",
          "type": "address"
        },
        {
          "indexed": true,
          "internalType": "address",
          "name": "to",
          "type": "address"
        },
        {
          "indexed": false,
          "internalType": "uint256",
          "name": "value",
          "type": "uint256"
        }
      ],
      "name": "Transfer",
      "type": "event"
    },
    {
      "inputs": [
        {
          "internalType": "uint256",
          "name": "newAttribute",
          "type": "uint256"
        }
      ],
      "name": "adjustAttribute",
      "outputs": [],
      "stateMutability": "nonpayable",
      "type": "function"
    },
    {
      "inputs": [
        {
          "internalType": "address",
          "name": "owner",
          "type": "address"
        },
        {
          "internalType": "address",
          "name": "spender",
          "type": "address"
        }
      ],
      "name": "allowance",
      "outputs": [
        {
          "internalType": "uint256",
          "name": "",
          "type": "uint256"
        }
      ],
      "stateMutability": "view",
      "type": "function"
    },
    {
      "inputs": [
        {
          "internalType": "address",
          "name": "spender",
          "type": "address"
        },
        {
          "internalType": "uint256",
          "name": "amount",
          "type": "uint256"
        }
      ],
      "name": "approve",
      "outputs": [
        {
          "internalType": "bool",
          "name": "",
          "type": "bool"
        }
      ],
      "stateMutability": "nonpayable",
      "type": "function"
    },
    {
      "inputs": [],
      "name": "attribute",
      "outputs": [
        {
          "internalType": "uint256",
          "name": "",
          "type": "uint256"
        }
      ],
      "stateMutability": "view",
      "type": "function"
    },
    {
      "inputs": [
        {
          "internalType": "address",
          "name": "account",
          "type": "address"
        }
      ],
      "name": "balanceOf",
      "outputs": [
        {
          "internalType": "uint256",
          "name": "",
          "type": "uint256"
        }
      ],
      "stateMutability": "view",
      "type": "function"
    },
    {
      "inputs": [],
      "name": "currentLvl",
      "outputs": [
        {
          "internalType": "uint256",
          "name": "",
          "type": "uint256"
        }
      ],
      "stateMutability": "view",
      "type": "function"
    },
    {
      "inputs": [],
      "name": "currentXP",
      "outputs": [
        {
          "internalType": "uint256",
          "name": "",
          "type": "uint256"
        }
      ],
      "stateMutability": "view",
      "type": "function"
    },
    {
      "inputs": [],
      "name": "decimals",
      "outputs": [
        {
          "internalType": "uint8",
          "name": "",
          "type": "uint8"
        }
      ],
      "stateMutability": "view",
      "type": "function"
    },
    {
      "inputs": [
        {
          "internalType": "address",
          "name": "spender",
          "type": "address"
        },
        {
          "internalType": "uint256",
          "name": "subtractedValue",
          "type": "uint256"
        }
      ],
      "name": "decreaseAllowance",
      "outputs": [
        {
          "internalType": "bool",
          "name": "",
          "type": "bool"
        }
      ],
      "stateMutability": "nonpayable",
      "type": "function"
    },
    {
      "inputs": [],
      "name": "getLevel",
      "outputs": [],
      "stateMutability": "nonpayable",
      "type": "function"
    },
    {
      "inputs": [],
      "name": "getURI",
      "outputs": [
        {
          "internalType": "uint256",
          "name": "",
          "type": "uint256"
        }
      ],
      "stateMutability": "view",
      "type": "function"
    },
    {
      "inputs": [
        {
          "internalType": "address",
          "name": "spender",
          "type": "address"
        },
        {
          "internalType": "uint256",
          "name": "addedValue",
          "type": "uint256"
        }
      ],
      "name": "increaseAllowance",
      "outputs": [
        {
          "internalType": "bool",
          "name": "",
          "type": "bool"
        }
      ],
      "stateMutability": "nonpayable",
      "type": "function"
    },
    {
      "inputs": [],
      "name": "lastTime",
      "outputs": [
        {
          "internalType": "uint256",
          "name": "",
          "type": "uint256"
        }
      ],
      "stateMutability": "view",
      "type": "function"
    },
    {
      "inputs": [],
      "name": "level",
      "outputs": [],
      "stateMutability": "nonpayable",
      "type": "function"
    },
    {
      "inputs": [],
      "name": "maxXPDaily",
      "outputs": [
        {
          "internalType": "uint256",
          "name": "",
          "type": "uint256"
        }
      ],
      "stateMutability": "view",
      "type": "function"
    },
    {
      "inputs": [],
      "name": "name",
      "outputs": [
        {
          "internalType": "string",
          "name": "",
          "type": "string"
        }
      ],
      "stateMutability": "view",
      "type": "function"
    },
    {
      "inputs": [
        {
          "internalType": "uint256",
          "name": "",
          "type": "uint256"
        }
      ],
      "name": "requiredXp",
      "outputs": [
        {
          "internalType": "uint256",
          "name": "",
          "type": "uint256"
        }
      ],
      "stateMutability": "view",
      "type": "function"
    },
    {
      "inputs": [
        {
          "internalType": "uint256",
          "name": "newRequirement",
          "type": "uint256"
        },
        {
          "internalType": "uint256",
          "name": "index",
          "type": "uint256"
        }
      ],
      "name": "setSpecificLevel",
      "outputs": [],
      "stateMutability": "nonpayable",
      "type": "function"
    },
    {
      "inputs": [
        {
          "internalType": "uint256[]",
          "name": "_requiredXp",
          "type": "uint256[]"
        }
      ],
      "name": "setXPRequiremenets",
      "outputs": [],
      "stateMutability": "nonpayable",
      "type": "function"
    },
    {
      "inputs": [
        {
          "internalType": "uint256",
          "name": "amount",
          "type": "uint256"
        }
      ],
      "name": "stake",
      "outputs": [],
      "stateMutability": "nonpayable",
      "type": "function"
    },
    {
      "inputs": [],
      "name": "symbol",
      "outputs": [
        {
          "internalType": "string",
          "name": "",
          "type": "string"
        }
      ],
      "stateMutability": "view",
      "type": "function"
    },
    {
      "inputs": [],
      "name": "totalSupply",
      "outputs": [
        {
          "internalType": "uint256",
          "name": "",
          "type": "uint256"
        }
      ],
      "stateMutability": "view",
      "type": "function"
    },
    {
      "inputs": [
        {
          "internalType": "address",
          "name": "to",
          "type": "address"
        },
        {
          "internalType": "uint256",
          "name": "amount",
          "type": "uint256"
        }
      ],
      "name": "transfer",
      "outputs": [
        {
          "internalType": "bool",
          "name": "",
          "type": "bool"
        }
      ],
      "stateMutability": "nonpayable",
      "type": "function"
    },
    {
      "inputs": [
        {
          "internalType": "address",
          "name": "from",
          "type": "address"
        },
        {
          "internalType": "address",
          "name": "to",
          "type": "address"
        },
        {
          "internalType": "uint256",
          "name": "amount",
          "type": "uint256"
        }
      ],
      "name": "transferFrom",
      "outputs": [
        {
          "internalType": "bool",
          "name": "",
          "type": "bool"
        }
      ],
      "stateMutability": "nonpayable",
      "type": "function"
    },
    {
      "inputs": [
        {
          "internalType": "uint256",
          "name": "amount",
          "type": "uint256"
        }
      ],
      "name": "unstake",
      "outputs": [],
      "stateMutability": "nonpayable",
      "type": "function"
    },
    {
      "inputs": [],
      "name": "uri",
      "outputs": [
        {
          "internalType": "uint256",
          "name": "",
          "type": "uint256"
        }
      ],
      "stateMutability": "view",
      "type": "function"
    }
  ],
  "bytecode": "0x6080604052600a600555606460065560016007556000600855600a6009553480156200002a57600080fd5b50604051620024ac380380620024ac8339818101604052810190620000509190620004a8565b6040518060400160405280600581526020017f4c6576656c0000000000000000000000000000000000000000000000000000008152506040518060400160405280600381526020017f4c564c00000000000000000000000000000000000000000000000000000000008152508160039080519060200190620000d492919062000169565b508060049080519060200190620000ed92919062000169565b50505080600b819055504260088190555083600a908051906020019062000116929190620001fa565b5081600c8190555082600d60006101000a81548173ffffffffffffffffffffffffffffffffffffffff021916908373ffffffffffffffffffffffffffffffffffffffff160217905550505050506200059e565b828054620001779062000568565b90600052602060002090601f0160209004810192826200019b5760008555620001e7565b82601f10620001b657805160ff1916838001178555620001e7565b82800160010185558215620001e7579182015b82811115620001e6578251825591602001919060010190620001c9565b5b509050620001f691906200024c565b5090565b82805482825590600052602060002090810192821562000239579160200282015b82811115620002385782518255916020019190600101906200021b565b5b5090506200024891906200024c565b5090565b5b80821115620002675760008160009055506001016200024d565b5090565b6000604051905090565b600080fd5b600080fd5b600080fd5b6000601f19601f8301169050919050565b7f4e487b7100000000000000000000000000000000000000000000000000000000600052604160045260246000fd5b620002cf8262000284565b810181811067ffffffffffffffff82111715620002f157620002f062000295565b5b80604052505050565b6000620003066200026b565b9050620003148282620002c4565b919050565b600067ffffffffffffffff82111562000337576200033662000295565b5b602082029050602081019050919050565b600080fd5b6000819050919050565b62000362816200034d565b81146200036e57600080fd5b50565b600081519050620003828162000357565b92915050565b60006200039f620003998462000319565b620002fa565b90508083825260208201905060208402830185811115620003c557620003c462000348565b5b835b81811015620003f25780620003dd888262000371565b845260208401935050602081019050620003c7565b5050509392505050565b600082601f8301126200041457620004136200027f565b5b81516200042684826020860162000388565b91505092915050565b600073ffffffffffffffffffffffffffffffffffffffff82169050919050565b60006200045c826200042f565b9050919050565b600062000470826200044f565b9050919050565b620004828162000463565b81146200048e57600080fd5b50565b600081519050620004a28162000477565b92915050565b60008060008060808587031215620004c557620004c462000275565b5b600085015167ffffffffffffffff811115620004e657620004e56200027a565b5b620004f487828801620003fc565b9450506020620005078782880162000491565b93505060406200051a8782880162000371565b92505060606200052d8782880162000371565b91505092959194509250565b7f4e487b7100000000000000000000000000000000000000000000000000000000600052602260045260246000fd5b600060028204905060018216806200058157607f821691505b6020821081141562000598576200059762000539565b5b50919050565b611efe80620005ae6000396000f3fe608060405234801561001057600080fd5b506004361061018e5760003560e01c80636fd5ae15116100de578063a457c2d711610097578063a9059cbb11610071578063a9059cbb1461044f578063dd62ed3e1461047f578063eac989f8146104af578063f79237c4146104cd5761018e565b8063a457c2d7146103f9578063a5985e8c14610429578063a694fc3a146104335761018e565b80636fd5ae151461034957806370a08231146103535780637754305c1461038357806393e9a084146103a15780639498103b146103bf57806395d89b41146103db5761018e565b80632af4eb231161014b5780633712090a116101255780633712090a146102c357806339509351146102df5780634b8339131461030f5780635fdc1dc61461032b5761018e565b80632af4eb231461026b5780632e17de7814610289578063313ce567146102a55761018e565b806306fdde0314610193578063095e9593146101b1578063095ea7b3146101cf57806314b42c77146101ff57806318160ddd1461021d57806323b872dd1461023b575b600080fd5b61019b6104fd565b6040516101a891906112f1565b60405180910390f35b6101b961058f565b6040516101c6919061132c565b60405180910390f35b6101e960048036038101906101e491906113e5565b610595565b6040516101f69190611440565b60405180910390f35b6102076105b8565b604051610214919061132c565b60405180910390f35b6102256105c2565b604051610232919061132c565b60405180910390f35b6102556004803603810190610250919061145b565b6105cc565b6040516102629190611440565b60405180910390f35b6102736105fb565b604051610280919061132c565b60405180910390f35b6102a3600480360381019061029e91906114ae565b610601565b005b6102ad610705565b6040516102ba91906114f7565b60405180910390f35b6102dd60048036038101906102d891906114ae565b61070e565b005b6102f960048036038101906102f491906113e5565b610719565b6040516103069190611440565b60405180910390f35b6103296004803603810190610324919061165a565b610750565b005b61033361076a565b604051610340919061132c565b60405180910390f35b610351610770565b005b61036d600480360381019061036891906116a3565b6107cd565b60405161037a919061132c565b60405180910390f35b61038b610815565b604051610398919061132c565b60405180910390f35b6103a961081f565b6040516103b6919061132c565b60405180910390f35b6103d960048036038101906103d491906116d0565b610825565b005b6103e361084c565b6040516103f091906112f1565b60405180910390f35b610413600480360381019061040e91906113e5565b6108de565b6040516104209190611440565b60405180910390f35b610431610955565b005b61044d600480360381019061044891906114ae565b610957565b005b610469600480360381019061046491906113e5565b610aea565b6040516104769190611440565b60405180910390f35b61049960048036038101906104949190611710565b610b0d565b6040516104a6919061132c565b60405180910390f35b6104b7610b94565b6040516104c4919061132c565b60405180910390f35b6104e760048036038101906104e291906114ae565b610b9a565b6040516104f4919061132c565b60405180910390f35b60606003805461050c9061177f565b80601f01602080910402602001604051908101604052809291908181526020018280546105389061177f565b80156105855780601f1061055a57610100808354040283529160200191610585565b820191906000526020600020905b81548152906001019060200180831161056857829003601f168201915b5050505050905090565b60075481565b6000806105a0610bbe565b90506105ad818585610bc6565b600191505092915050565b6000600754905090565b6000600254905090565b6000806105d7610bbe565b90506105e4858285610d91565b6105ef858585610e1d565b60019150509392505050565b60065481565b61060961109e565b600d60009054906101000a900473ffffffffffffffffffffffffffffffffffffffff1673ffffffffffffffffffffffffffffffffffffffff166323b872dd3033846040518463ffffffff1660e01b8152600401610668939291906117c0565b6020604051808303816000875af1158015610687573d6000803e3d6000fd5b505050506040513d601f19601f820116820180604052508101906106ab9190611823565b5080600f60003373ffffffffffffffffffffffffffffffffffffffff1673ffffffffffffffffffffffffffffffffffffffff16815260200190815260200160002060008282546106fb919061187f565b9250508190555050565b60006012905090565b61071661109e565b50565b600080610724610bbe565b90506107458185856107368589610b0d565b61074091906118b3565b610bc6565b600191505092915050565b80600a90805190602001906107669291906111ee565b5050565b60095481565b61077861109e565b600a6007548154811061078e5761078d611909565b5b9060005260206000200154600660008282546107aa919061187f565b925050819055506001600760008282546107c491906118b3565b92505081905550565b60008060008373ffffffffffffffffffffffffffffffffffffffff1673ffffffffffffffffffffffffffffffffffffffff168152602001908152602001600020549050919050565b6000600554905090565b60085481565b81600a828154811061083a57610839611909565b5b90600052602060002001819055505050565b60606004805461085b9061177f565b80601f01602080910402602001604051908101604052809291908181526020018280546108879061177f565b80156108d45780601f106108a9576101008083540402835291602001916108d4565b820191906000526020600020905b8154815290600101906020018083116108b757829003601f168201915b5050505050905090565b6000806108e9610bbe565b905060006108f78286610b0d565b90508381101561093c576040517f08c379a0000000000000000000000000000000000000000000000000000000008152600401610933906119aa565b60405180910390fd5b6109498286868403610bc6565b60019250505092915050565b565b61095f61109e565b600c5481600f60003373ffffffffffffffffffffffffffffffffffffffff1673ffffffffffffffffffffffffffffffffffffffff168152602001908152602001600020546109ad91906118b3565b11156109ee576040517f08c379a00000000000000000000000000000000000000000000000000000000081526004016109e590611a3c565b60405180910390fd5b80600f60003373ffffffffffffffffffffffffffffffffffffffff1673ffffffffffffffffffffffffffffffffffffffff1681526020019081526020016000206000828254610a3d91906118b3565b92505081905550600d60009054906101000a900473ffffffffffffffffffffffffffffffffffffffff1673ffffffffffffffffffffffffffffffffffffffff166323b872dd3330846040518463ffffffff1660e01b8152600401610aa3939291906117c0565b6020604051808303816000875af1158015610ac2573d6000803e3d6000fd5b505050506040513d601f19601f82011682018060405250810190610ae69190611823565b5050565b600080610af5610bbe565b9050610b02818585610e1d565b600191505092915050565b6000600160008473ffffffffffffffffffffffffffffffffffffffff1673ffffffffffffffffffffffffffffffffffffffff16815260200190815260200160002060008373ffffffffffffffffffffffffffffffffffffffff1673ffffffffffffffffffffffffffffffffffffffff16815260200190815260200160002054905092915050565b60055481565b600a8181548110610baa57600080fd5b906000526020600020016000915090505481565b600033905090565b600073ffffffffffffffffffffffffffffffffffffffff168373ffffffffffffffffffffffffffffffffffffffff161415610c36576040517f08c379a0000000000000000000000000000000000000000000000000000000008152600401610c2d90611ace565b60405180910390fd5b600073ffffffffffffffffffffffffffffffffffffffff168273ffffffffffffffffffffffffffffffffffffffff161415610ca6576040517f08c379a0000000000000000000000000000000000000000000000000000000008152600401610c9d90611b60565b60405180910390fd5b80600160008573ffffffffffffffffffffffffffffffffffffffff1673ffffffffffffffffffffffffffffffffffffffff16815260200190815260200160002060008473ffffffffffffffffffffffffffffffffffffffff1673ffffffffffffffffffffffffffffffffffffffff168152602001908152602001600020819055508173ffffffffffffffffffffffffffffffffffffffff168373ffffffffffffffffffffffffffffffffffffffff167f8c5be1e5ebec7d5bd14f71427d1e84f3dd0314c0f7b2291e5b200ac8c7c3b92583604051610d84919061132c565b60405180910390a3505050565b6000610d9d8484610b0d565b90507fffffffffffffffffffffffffffffffffffffffffffffffffffffffffffffffff8114610e175781811015610e09576040517f08c379a0000000000000000000000000000000000000000000000000000000008152600401610e0090611bcc565b60405180910390fd5b610e168484848403610bc6565b5b50505050565b600073ffffffffffffffffffffffffffffffffffffffff168373ffffffffffffffffffffffffffffffffffffffff161415610e8d576040517f08c379a0000000000000000000000000000000000000000000000000000000008152600401610e8490611c5e565b60405180910390fd5b600073ffffffffffffffffffffffffffffffffffffffff168273ffffffffffffffffffffffffffffffffffffffff161415610efd576040517f08c379a0000000000000000000000000000000000000000000000000000000008152600401610ef490611cf0565b60405180910390fd5b610f08838383611151565b60008060008573ffffffffffffffffffffffffffffffffffffffff1673ffffffffffffffffffffffffffffffffffffffff16815260200190815260200160002054905081811015610f8e576040517f08c379a0000000000000000000000000000000000000000000000000000000008152600401610f8590611d82565b60405180910390fd5b8181036000808673ffffffffffffffffffffffffffffffffffffffff1673ffffffffffffffffffffffffffffffffffffffff16815260200190815260200160002081905550816000808573ffffffffffffffffffffffffffffffffffffffff1673ffffffffffffffffffffffffffffffffffffffff168152602001908152602001600020600082825461102191906118b3565b925050819055508273ffffffffffffffffffffffffffffffffffffffff168473ffffffffffffffffffffffffffffffffffffffff167fddf252ad1be2c89b69c2b068fc378daa952ba7f163c4a11628f55a4df523b3ef84604051611085919061132c565b60405180910390a36110988484846111e9565b50505050565b6000600854426110ae919061187f565b9050612710600c546110c09190611da2565b612710600b54836110d19190611da2565b600f60003373ffffffffffffffffffffffffffffffffffffffff1673ffffffffffffffffffffffffffffffffffffffff1681526020019081526020016000205461111b9190611da2565b6111259190611da2565b61112f9190611e2b565b6006600082825461114091906118b3565b925050819055504260088190555050565b60011515600e60008573ffffffffffffffffffffffffffffffffffffffff1673ffffffffffffffffffffffffffffffffffffffff16815260200190815260200160002060009054906101000a900460ff161515146111e4576040517f08c379a00000000000000000000000000000000000000000000000000000000081526004016111db90611ea8565b60405180910390fd5b505050565b505050565b82805482825590600052602060002090810192821561122a579160200282015b8281111561122957825182559160200191906001019061120e565b5b509050611237919061123b565b5090565b5b8082111561125457600081600090555060010161123c565b5090565b600081519050919050565b600082825260208201905092915050565b60005b83811015611292578082015181840152602081019050611277565b838111156112a1576000848401525b50505050565b6000601f19601f8301169050919050565b60006112c382611258565b6112cd8185611263565b93506112dd818560208601611274565b6112e6816112a7565b840191505092915050565b6000602082019050818103600083015261130b81846112b8565b905092915050565b6000819050919050565b61132681611313565b82525050565b6000602082019050611341600083018461131d565b92915050565b6000604051905090565b600080fd5b600080fd5b600073ffffffffffffffffffffffffffffffffffffffff82169050919050565b60006113868261135b565b9050919050565b6113968161137b565b81146113a157600080fd5b50565b6000813590506113b38161138d565b92915050565b6113c281611313565b81146113cd57600080fd5b50565b6000813590506113df816113b9565b92915050565b600080604083850312156113fc576113fb611351565b5b600061140a858286016113a4565b925050602061141b858286016113d0565b9150509250929050565b60008115159050919050565b61143a81611425565b82525050565b60006020820190506114556000830184611431565b92915050565b60008060006060848603121561147457611473611351565b5b6000611482868287016113a4565b9350506020611493868287016113a4565b92505060406114a4868287016113d0565b9150509250925092565b6000602082840312156114c4576114c3611351565b5b60006114d2848285016113d0565b91505092915050565b600060ff82169050919050565b6114f1816114db565b82525050565b600060208201905061150c60008301846114e8565b92915050565b600080fd5b7f4e487b7100000000000000000000000000000000000000000000000000000000600052604160045260246000fd5b61154f826112a7565b810181811067ffffffffffffffff8211171561156e5761156d611517565b5b80604052505050565b6000611581611347565b905061158d8282611546565b919050565b600067ffffffffffffffff8211156115ad576115ac611517565b5b602082029050602081019050919050565b600080fd5b60006115d66115d184611592565b611577565b905080838252602082019050602084028301858111156115f9576115f86115be565b5b835b81811015611622578061160e88826113d0565b8452602084019350506020810190506115fb565b5050509392505050565b600082601f83011261164157611640611512565b5b81356116518482602086016115c3565b91505092915050565b6000602082840312156116705761166f611351565b5b600082013567ffffffffffffffff81111561168e5761168d611356565b5b61169a8482850161162c565b91505092915050565b6000602082840312156116b9576116b8611351565b5b60006116c7848285016113a4565b91505092915050565b600080604083850312156116e7576116e6611351565b5b60006116f5858286016113d0565b9250506020611706858286016113d0565b9150509250929050565b6000806040838503121561172757611726611351565b5b6000611735858286016113a4565b9250506020611746858286016113a4565b9150509250929050565b7f4e487b7100000000000000000000000000000000000000000000000000000000600052602260045260246000fd5b6000600282049050600182168061179757607f821691505b602082108114156117ab576117aa611750565b5b50919050565b6117ba8161137b565b82525050565b60006060820190506117d560008301866117b1565b6117e260208301856117b1565b6117ef604083018461131d565b949350505050565b61180081611425565b811461180b57600080fd5b50565b60008151905061181d816117f7565b92915050565b60006020828403121561183957611838611351565b5b60006118478482850161180e565b91505092915050565b7f4e487b7100000000000000000000000000000000000000000000000000000000600052601160045260246000fd5b600061188a82611313565b915061189583611313565b9250828210156118a8576118a7611850565b5b828203905092915050565b60006118be82611313565b91506118c983611313565b9250827fffffffffffffffffffffffffffffffffffffffffffffffffffffffffffffffff038211156118fe576118fd611850565b5b828201905092915050565b7f4e487b7100000000000000000000000000000000000000000000000000000000600052603260045260246000fd5b7f45524332303a2064656372656173656420616c6c6f77616e63652062656c6f7760008201527f207a65726f000000000000000000000000000000000000000000000000000000602082015250565b6000611994602583611263565b915061199f82611938565b604082019050919050565b600060208201905081810360008301526119c381611987565b9050919050565b7f536f7272792074686174206578636565647320746865206d6178207374616b6960008201527f6e6720616d6f756e740000000000000000000000000000000000000000000000602082015250565b6000611a26602983611263565b9150611a31826119ca565b604082019050919050565b60006020820190508181036000830152611a5581611a19565b9050919050565b7f45524332303a20617070726f76652066726f6d20746865207a65726f2061646460008201527f7265737300000000000000000000000000000000000000000000000000000000602082015250565b6000611ab8602483611263565b9150611ac382611a5c565b604082019050919050565b60006020820190508181036000830152611ae781611aab565b9050919050565b7f45524332303a20617070726f766520746f20746865207a65726f20616464726560008201527f7373000000000000000000000000000000000000000000000000000000000000602082015250565b6000611b4a602283611263565b9150611b5582611aee565b604082019050919050565b60006020820190508181036000830152611b7981611b3d565b9050919050565b7f45524332303a20696e73756666696369656e7420616c6c6f77616e6365000000600082015250565b6000611bb6601d83611263565b9150611bc182611b80565b602082019050919050565b60006020820190508181036000830152611be581611ba9565b9050919050565b7f45524332303a207472616e736665722066726f6d20746865207a65726f20616460008201527f6472657373000000000000000000000000000000000000000000000000000000602082015250565b6000611c48602583611263565b9150611c5382611bec565b604082019050919050565b60006020820190508181036000830152611c7781611c3b565b9050919050565b7f45524332303a207472616e7366657220746f20746865207a65726f206164647260008201527f6573730000000000000000000000000000000000000000000000000000000000602082015250565b6000611cda602383611263565b9150611ce582611c7e565b604082019050919050565b60006020820190508181036000830152611d0981611ccd565b9050919050565b7f45524332303a207472616e7366657220616d6f756e742065786365656473206260008201527f616c616e63650000000000000000000000000000000000000000000000000000602082015250565b6000611d6c602683611263565b9150611d7782611d10565b604082019050919050565b60006020820190508181036000830152611d9b81611d5f565b9050919050565b6000611dad82611313565b9150611db883611313565b9250817fffffffffffffffffffffffffffffffffffffffffffffffffffffffffffffffff0483118215151615611df157611df0611850565b5b828202905092915050565b7f4e487b7100000000000000000000000000000000000000000000000000000000600052601260045260246000fd5b6000611e3682611313565b9150611e4183611313565b925082611e5157611e50611dfc565b5b828204905092915050565b7f53656e646572206d7573742062652077686974656c6973746564000000000000600082015250565b6000611e92601a83611263565b9150611e9d82611e5c565b602082019050919050565b60006020820190508181036000830152611ec181611e85565b905091905056fea2646970667358221220930f6f23fdfdec96059c1496385c89f4fbd396c253f15824033a7450664fea5e64736f6c634300080a0033",
  "linkReferences": {},
  "deployedLinkReferences": {}
}