{
  "_format": "hh-sol-artifact-1",
  "contractName": "Core",
  "sourceName": "contracts/legacy/Core.sol",
  "abi": [
    {
      "inputs": [
        {
          "internalType": "string",
          "name": "baseUri_",
          "type": "string"
        },
        {
          "internalType": "contract IReadMetadata",
          "name": "registry_",
          "type": "address"
        }
      ],
      "stateMutability": "nonpayable",
      "type": "constructor"
    },
    {
      "anonymous": false,
      "inputs": [
        {
          "indexed": true,
          "internalType": "address",
          "name": "account",
          "type": "address"
        },
        {
          "indexed": true,
          "internalType": "address",
          "name": "operator",
          "type": "address"
        },
        {
          "indexed": false,
          "internalType": "bool",
          "name": "approved",
          "type": "bool"
        }
      ],
      "name": "ApprovalForAll",
      "type": "event"
    },
    {
      "anonymous": false,
      "inputs": [
        {
          "indexed": true,
          "internalType": "address",
          "name": "previousOwner",
          "type": "address"
        },
        {
          "indexed": true,
          "internalType": "address",
          "name": "newOwner",
          "type": "address"
        }
      ],
      "name": "OwnershipTransferred",
      "type": "event"
    },
    {
      "anonymous": false,
      "inputs": [
        {
          "indexed": true,
          "internalType": "address",
          "name": "operator",
          "type": "address"
        },
        {
          "indexed": true,
          "internalType": "address",
          "name": "from",
          "type": "address"
        },
        {
          "indexed": true,
          "internalType": "address",
          "name": "to",
          "type": "address"
        },
        {
          "indexed": false,
          "internalType": "uint256[]",
          "name": "ids",
          "type": "uint256[]"
        },
        {
          "indexed": false,
          "internalType": "uint256[]",
          "name": "values",
          "type": "uint256[]"
        }
      ],
      "name": "TransferBatch",
      "type": "event"
    },
    {
      "anonymous": false,
      "inputs": [
        {
          "indexed": true,
          "internalType": "address",
          "name": "operator",
          "type": "address"
        },
        {
          "indexed": true,
          "internalType": "address",
          "name": "from",
          "type": "address"
        },
        {
          "indexed": true,
          "internalType": "address",
          "name": "to",
          "type": "address"
        },
        {
          "indexed": false,
          "internalType": "uint256",
          "name": "id",
          "type": "uint256"
        },
        {
          "indexed": false,
          "internalType": "uint256",
          "name": "value",
          "type": "uint256"
        }
      ],
      "name": "TransferSingle",
      "type": "event"
    },
    {
      "anonymous": false,
      "inputs": [
        {
          "indexed": false,
          "internalType": "string",
          "name": "value",
          "type": "string"
        },
        {
          "indexed": true,
          "internalType": "uint256",
          "name": "id",
          "type": "uint256"
        }
      ],
      "name": "URI",
      "type": "event"
    },
    {
      "anonymous": false,
      "inputs": [
        {
          "indexed": true,
          "internalType": "contract IMintValidator",
          "name": "validator",
          "type": "address"
        },
        {
          "indexed": true,
          "internalType": "bool",
          "name": "active",
          "type": "bool"
        }
      ],
      "name": "Validator",
      "type": "event"
    },
    {
      "inputs": [
        {
          "internalType": "contract IMintValidator",
          "name": "_validator",
          "type": "address"
        },
        {
          "internalType": "uint256[]",
          "name": "ids",
          "type": "uint256[]"
        }
      ],
      "name": "addValidator",
      "outputs": [],
      "stateMutability": "nonpayable",
      "type": "function"
    },
    {
      "inputs": [
        {
          "internalType": "address",
          "name": "account",
          "type": "address"
        },
        {
          "internalType": "uint256",
          "name": "id",
          "type": "uint256"
        }
      ],
      "name": "balanceOf",
      "outputs": [
        {
          "internalType": "uint256",
          "name": "",
          "type": "uint256"
        }
      ],
      "stateMutability": "view",
      "type": "function"
    },
    {
      "inputs": [
        {
          "internalType": "address[]",
          "name": "accounts",
          "type": "address[]"
        },
        {
          "internalType": "uint256[]",
          "name": "ids",
          "type": "uint256[]"
        }
      ],
      "name": "balanceOfBatch",
      "outputs": [
        {
          "internalType": "uint256[]",
          "name": "",
          "type": "uint256[]"
        }
      ],
      "stateMutability": "view",
      "type": "function"
    },
    {
      "inputs": [
        {
          "internalType": "address",
          "name": "account",
          "type": "address"
        },
        {
          "internalType": "uint256",
          "name": "id",
          "type": "uint256"
        },
        {
          "internalType": "uint256",
          "name": "value",
          "type": "uint256"
        }
      ],
      "name": "burn",
      "outputs": [],
      "stateMutability": "nonpayable",
      "type": "function"
    },
    {
      "inputs": [
        {
          "internalType": "address",
          "name": "account",
          "type": "address"
        },
        {
          "internalType": "uint256[]",
          "name": "ids",
          "type": "uint256[]"
        },
        {
          "internalType": "uint256[]",
          "name": "values",
          "type": "uint256[]"
        }
      ],
      "name": "burnBatch",
      "outputs": [],
      "stateMutability": "nonpayable",
      "type": "function"
    },
    {
      "inputs": [
        {
          "internalType": "uint256",
          "name": "",
          "type": "uint256"
        }
      ],
      "name": "idToValidator",
      "outputs": [
        {
          "internalType": "address",
          "name": "",
          "type": "address"
        }
      ],
      "stateMutability": "view",
      "type": "function"
    },
    {
      "inputs": [
        {
          "internalType": "address",
          "name": "account",
          "type": "address"
        },
        {
          "internalType": "address",
          "name": "operator",
          "type": "address"
        }
      ],
      "name": "isApprovedForAll",
      "outputs": [
        {
          "internalType": "bool",
          "name": "",
          "type": "bool"
        }
      ],
      "stateMutability": "view",
      "type": "function"
    },
    {
      "inputs": [
        {
          "internalType": "contract IMintValidator",
          "name": "",
          "type": "address"
        }
      ],
      "name": "isValidator",
      "outputs": [
        {
          "internalType": "bool",
          "name": "",
          "type": "bool"
        }
      ],
      "stateMutability": "view",
      "type": "function"
    },
    {
      "inputs": [
        {
          "internalType": "address",
          "name": "_to",
          "type": "address"
        },
        {
          "internalType": "uint256[]",
          "name": "_ids",
          "type": "uint256[]"
        },
        {
          "internalType": "uint256[]",
          "name": "_amounts",
          "type": "uint256[]"
        },
        {
          "internalType": "bytes",
          "name": "_data",
          "type": "bytes"
        }
      ],
      "name": "mintBatch",
      "outputs": [],
      "stateMutability": "nonpayable",
      "type": "function"
    },
    {
      "inputs": [
        {
          "internalType": "address",
          "name": "recipient",
          "type": "address"
        },
        {
          "internalType": "uint256[]",
          "name": "_ids",
          "type": "uint256[]"
        },
        {
          "internalType": "uint256[]",
          "name": "_requestedAmounts",
          "type": "uint256[]"
        },
        {
          "internalType": "bytes",
          "name": "_data",
          "type": "bytes"
        }
      ],
      "name": "modularMintCallback",
      "outputs": [],
      "stateMutability": "nonpayable",
      "type": "function"
    },
    {
      "inputs": [
        {
          "internalType": "uint256",
          "name": "_dropId",
          "type": "uint256"
        },
        {
          "internalType": "address",
          "name": "_to",
          "type": "address"
        },
        {
          "internalType": "uint256[]",
          "name": "_requestedAmounts",
          "type": "uint256[]"
        },
        {
          "internalType": "bytes",
          "name": "_data",
          "type": "bytes"
        },
        {
          "internalType": "contract IMintValidator",
          "name": "_validator",
          "type": "address"
        },
        {
          "internalType": "string",
          "name": "_metadata",
          "type": "string"
        }
      ],
      "name": "modularMintInit",
      "outputs": [],
      "stateMutability": "nonpayable",
      "type": "function"
    },
    {
      "inputs": [],
      "name": "owner",
      "outputs": [
        {
          "internalType": "address",
          "name": "",
          "type": "address"
        }
      ],
      "stateMutability": "view",
      "type": "function"
    },
    {
      "inputs": [
        {
          "internalType": "uint256",
          "name": "",
          "type": "uint256"
        }
      ],
      "name": "quantityMinted",
      "outputs": [
        {
          "internalType": "uint256",
          "name": "",
          "type": "uint256"
        }
      ],
      "stateMutability": "view",
      "type": "function"
    },
    {
      "inputs": [
        {
          "internalType": "contract IMintValidator",
          "name": "_validator",
          "type": "address"
        }
      ],
      "name": "removeValidator",
      "outputs": [],
      "stateMutability": "nonpayable",
      "type": "function"
    },
    {
      "inputs": [],
      "name": "renounceOwnership",
      "outputs": [],
      "stateMutability": "nonpayable",
      "type": "function"
    },
    {
      "inputs": [
        {
          "internalType": "address",
          "name": "from",
          "type": "address"
        },
        {
          "internalType": "address",
          "name": "to",
          "type": "address"
        },
        {
          "internalType": "uint256[]",
          "name": "ids",
          "type": "uint256[]"
        },
        {
          "internalType": "uint256[]",
          "name": "amounts",
          "type": "uint256[]"
        },
        {
          "internalType": "bytes",
          "name": "data",
          "type": "bytes"
        }
      ],
      "name": "safeBatchTransferFrom",
      "outputs": [],
      "stateMutability": "nonpayable",
      "type": "function"
    },
    {
      "inputs": [
        {
          "internalType": "address",
          "name": "from",
          "type": "address"
        },
        {
          "internalType": "address",
          "name": "to",
          "type": "address"
        },
        {
          "internalType": "uint256",
          "name": "id",
          "type": "uint256"
        },
        {
          "internalType": "uint256",
          "name": "amount",
          "type": "uint256"
        },
        {
          "internalType": "bytes",
          "name": "data",
          "type": "bytes"
        }
      ],
      "name": "safeTransferFrom",
      "outputs": [],
      "stateMutability": "nonpayable",
      "type": "function"
    },
    {
      "inputs": [
        {
          "internalType": "address",
          "name": "operator",
          "type": "address"
        },
        {
          "internalType": "bool",
          "name": "approved",
          "type": "bool"
        }
      ],
      "name": "setApprovalForAll",
      "outputs": [],
      "stateMutability": "nonpayable",
      "type": "function"
    },
    {
      "inputs": [
        {
          "internalType": "string",
          "name": "_newBaseUri",
          "type": "string"
        }
      ],
      "name": "setBaseURI",
      "outputs": [],
      "stateMutability": "nonpayable",
      "type": "function"
    },
    {
      "inputs": [
        {
          "internalType": "contract IReadMetadata",
          "name": "registry_",
          "type": "address"
        }
      ],
      "name": "setNewRegistry",
      "outputs": [],
      "stateMutability": "nonpayable",
      "type": "function"
    },
    {
      "inputs": [
        {
          "internalType": "bytes4",
          "name": "interfaceId",
          "type": "bytes4"
        }
      ],
      "name": "supportsInterface",
      "outputs": [
        {
          "internalType": "bool",
          "name": "",
          "type": "bool"
        }
      ],
      "stateMutability": "view",
      "type": "function"
    },
    {
      "inputs": [
        {
          "internalType": "address",
          "name": "newOwner",
          "type": "address"
        }
      ],
      "name": "transferOwnership",
      "outputs": [],
      "stateMutability": "nonpayable",
      "type": "function"
    },
    {
      "inputs": [
        {
          "internalType": "contract IMintValidator",
          "name": "_oldValidator",
          "type": "address"
        },
        {
          "internalType": "contract IMintValidator",
          "name": "_newValidator",
          "type": "address"
        }
      ],
      "name": "upgradeValidator",
      "outputs": [],
      "stateMutability": "nonpayable",
      "type": "function"
    },
    {
      "inputs": [
        {
          "internalType": "uint256",
          "name": "_id",
          "type": "uint256"
        }
      ],
      "name": "uri",
      "outputs": [
        {
          "internalType": "string",
          "name": "",
          "type": "string"
        }
      ],
      "stateMutability": "view",
      "type": "function"
    },
    {
      "inputs": [
        {
          "internalType": "contract IMintValidator",
          "name": "",
          "type": "address"
        },
        {
          "internalType": "uint256",
          "name": "",
          "type": "uint256"
        }
      ],
      "name": "validatorToIds",
      "outputs": [
        {
          "internalType": "uint256",
          "name": "",
          "type": "uint256"
        }
      ],
      "stateMutability": "view",
      "type": "function"
    }
  ],
  "bytecode": "0x60806040523480156200001157600080fd5b50604051620058e9380380620058e983398181016040528101906200003791906200047c565b816200004981620000cc60201b60201c565b506200006a6200005e620000e860201b60201c565b620000f060201b60201c565b80600960006101000a81548173ffffffffffffffffffffffffffffffffffffffff021916908373ffffffffffffffffffffffffffffffffffffffff1602179055508160089080519060200190620000c3929190620001b6565b50505062000547565b8060029080519060200190620000e4929190620001b6565b5050565b600033905090565b6000600360009054906101000a900473ffffffffffffffffffffffffffffffffffffffff16905081600360006101000a81548173ffffffffffffffffffffffffffffffffffffffff021916908373ffffffffffffffffffffffffffffffffffffffff1602179055508173ffffffffffffffffffffffffffffffffffffffff168173ffffffffffffffffffffffffffffffffffffffff167f8be0079c531659141344cd1fd0a4f28419497f9722a3daafe3b4186f6b6457e060405160405180910390a35050565b828054620001c49062000511565b90600052602060002090601f016020900481019282620001e8576000855562000234565b82601f106200020357805160ff191683800117855562000234565b8280016001018555821562000234579182015b828111156200023357825182559160200191906001019062000216565b5b50905062000243919062000247565b5090565b5b808211156200026257600081600090555060010162000248565b5090565b6000604051905090565b600080fd5b600080fd5b600080fd5b600080fd5b6000601f19601f8301169050919050565b7f4e487b7100000000000000000000000000000000000000000000000000000000600052604160045260246000fd5b620002cf8262000284565b810181811067ffffffffffffffff82111715620002f157620002f062000295565b5b80604052505050565b60006200030662000266565b9050620003148282620002c4565b919050565b600067ffffffffffffffff82111562000337576200033662000295565b5b620003428262000284565b9050602081019050919050565b60005b838110156200036f57808201518184015260208101905062000352565b838111156200037f576000848401525b50505050565b60006200039c620003968462000319565b620002fa565b905082815260208101848484011115620003bb57620003ba6200027f565b5b620003c88482856200034f565b509392505050565b600082601f830112620003e857620003e76200027a565b5b8151620003fa84826020860162000385565b91505092915050565b600073ffffffffffffffffffffffffffffffffffffffff82169050919050565b6000620004308262000403565b9050919050565b6000620004448262000423565b9050919050565b620004568162000437565b81146200046257600080fd5b50565b60008151905062000476816200044b565b92915050565b6000806040838503121562000496576200049562000270565b5b600083015167ffffffffffffffff811115620004b757620004b662000275565b5b620004c585828601620003d0565b9250506020620004d88582860162000465565b9150509250929050565b7f4e487b7100000000000000000000000000000000000000000000000000000000600052602260045260246000fd5b600060028204905060018216806200052a57607f821691505b60208210811415620005415762000540620004e2565b5b50919050565b61539280620005576000396000f3fe608060405234801561001057600080fd5b50600436106101725760003560e01c806378d2bc5c116100de578063c18ceffe11610097578063f2fde38b11610071578063f2fde38b1461043f578063f5298aca1461045b578063facd743b14610477578063fee7835c146104a757610172565b8063c18ceffe146103d7578063e985e9c5146103f3578063f242432a1461042357610172565b806378d2bc5c146103195780638a8bdf58146103495780638da5cb5b14610365578063934eddf814610383578063a22cb4651461039f578063b4912207146103bb57610172565b80634e1273f4116101305780634e1273f41461025b57806355f804b31461028b5780636b20c454146102a7578063715018a6146102c3578063720153d2146102cd57806372d79f4b146102fd57610172565b8062fdd58e1461017757806301ffc9a7146101a75780630e89341c146101d75780631f7fdffa146102075780632eb2c2d61461022357806340a141ff1461023f575b600080fd5b610191600480360381019061018c919061333e565b6104d7565b60405161019e919061338d565b60405180910390f35b6101c160048036038101906101bc9190613400565b6105a0565b6040516101ce9190613448565b60405180910390f35b6101f160048036038101906101ec9190613463565b610682565b6040516101fe9190613529565b60405180910390f35b610221600480360381019061021c9190613748565b61074e565b005b61023d60048036038101906102389190613803565b6107e6565b005b61025960048036038101906102549190613910565b610887565b005b61027560048036038101906102709190613a00565b610b57565b6040516102829190613b36565b60405180910390f35b6102a560048036038101906102a09190613bb3565b610c70565b005b6102c160048036038101906102bc9190613c00565b610d3d565b005b6102cb610dda565b005b6102e760048036038101906102e29190613c8b565b610e62565b6040516102f4919061338d565b60405180910390f35b61031760048036038101906103129190613ccb565b610e93565b005b610333600480360381019061032e9190613463565b61118d565b6040516103409190613d36565b60405180910390f35b610363600480360381019061035e9190613d51565b6111c0565b005b61036d6112ca565b60405161037a9190613d36565b60405180910390f35b61039d60048036038101906103989190613ee4565b6112f4565b005b6103b960048036038101906103b49190613fd9565b6115c9565b005b6103d560048036038101906103d09190614057565b6115df565b005b6103f160048036038101906103ec9190614084565b61169f565b005b61040d600480360381019061040891906140c4565b611a0e565b60405161041a9190613448565b60405180910390f35b61043d60048036038101906104389190614104565b611aa2565b005b6104596004803603810190610454919061419b565b611b43565b005b610475600480360381019061047091906141c8565b611c3b565b005b610491600480360381019061048c9190613910565b611cd8565b60405161049e9190613448565b60405180910390f35b6104c160048036038101906104bc9190613463565b611cf8565b6040516104ce919061338d565b60405180910390f35b60008073ffffffffffffffffffffffffffffffffffffffff168373ffffffffffffffffffffffffffffffffffffffff161415610548576040517f08c379a000000000000000000000000000000000000000000000000000000000815260040161053f9061428d565b60405180910390fd5b60008083815260200190815260200160002060008473ffffffffffffffffffffffffffffffffffffffff1673ffffffffffffffffffffffffffffffffffffffff16815260200190815260200160002054905092915050565b60007fd9b67a26000000000000000000000000000000000000000000000000000000007bffffffffffffffffffffffffffffffffffffffffffffffffffffffff1916827bffffffffffffffffffffffffffffffffffffffffffffffffffffffff1916148061066b57507f0e89341c000000000000000000000000000000000000000000000000000000007bffffffffffffffffffffffffffffffffffffffffffffffffffffffff1916827bffffffffffffffffffffffffffffffffffffffffffffffffffffffff1916145b8061067b575061067a82611d10565b5b9050919050565b60606008600960009054906101000a900473ffffffffffffffffffffffffffffffffffffffff1673ffffffffffffffffffffffffffffffffffffffff16639507d39a846040518263ffffffff1660e01b81526004016106e1919061338d565b600060405180830381865afa1580156106fe573d6000803e3d6000fd5b505050506040513d6000823e3d601f19601f82011682018060405250810190610727919061434e565b6040516020016107389291906144c8565b6040516020818303038152906040529050919050565b610756611d7a565b73ffffffffffffffffffffffffffffffffffffffff166107746112ca565b73ffffffffffffffffffffffffffffffffffffffff16146107ca576040517f08c379a00000000000000000000000000000000000000000000000000000000081526004016107c190614538565b60405180910390fd5b6107d684848484611d82565b6107e08383611faf565b50505050565b6107ee611d7a565b73ffffffffffffffffffffffffffffffffffffffff168573ffffffffffffffffffffffffffffffffffffffff16148061083457506108338561082e611d7a565b611a0e565b5b610873576040517f08c379a000000000000000000000000000000000000000000000000000000000815260040161086a906145ca565b60405180910390fd5b6108808585858585612075565b5050505050565b61088f611d7a565b73ffffffffffffffffffffffffffffffffffffffff166108ad6112ca565b73ffffffffffffffffffffffffffffffffffffffff1614610903576040517f08c379a00000000000000000000000000000000000000000000000000000000081526004016108fa90614538565b60405180910390fd5b6000600460008373ffffffffffffffffffffffffffffffffffffffff1673ffffffffffffffffffffffffffffffffffffffff16815260200190815260200160002060009054906101000a900460ff16905080610994576040517f08c379a000000000000000000000000000000000000000000000000000000000815260040161098b90614636565b60405180910390fd5b6000600560008473ffffffffffffffffffffffffffffffffffffffff1673ffffffffffffffffffffffffffffffffffffffff168152602001908152602001600020805480602002602001604051908101604052809291908181526020018280548015610a1f57602002820191906000526020600020905b815481526020019060010190808311610a0b575b5050505050905060005b8151811015610ab257600060066000848481518110610a4b57610a4a614656565b5b6020026020010151815260200190815260200160002060006101000a81548173ffffffffffffffffffffffffffffffffffffffff021916908373ffffffffffffffffffffffffffffffffffffffff1602179055508080610aaa906146b4565b915050610a29565b506000600460008573ffffffffffffffffffffffffffffffffffffffff1673ffffffffffffffffffffffffffffffffffffffff16815260200190815260200160002060006101000a81548160ff021916908315150217905550811515158373ffffffffffffffffffffffffffffffffffffffff167f648ff21ba22ed8487e4c065c2a1053d7dc6e9cd9aee40b08f378a93c2f44a67960405160405180910390a3505050565b60608151835114610b9d576040517f08c379a0000000000000000000000000000000000000000000000000000000008152600401610b949061476f565b60405180910390fd5b6000835167ffffffffffffffff811115610bba57610bb9613550565b5b604051908082528060200260200182016040528015610be85781602001602082028036833780820191505090505b50905060005b8451811015610c6557610c35858281518110610c0d57610c0c614656565b5b6020026020010151858381518110610c2857610c27614656565b5b60200260200101516104d7565b828281518110610c4857610c47614656565b5b60200260200101818152505080610c5e906146b4565b9050610bee565b508091505092915050565b610c78611d7a565b73ffffffffffffffffffffffffffffffffffffffff16610c966112ca565b73ffffffffffffffffffffffffffffffffffffffff1614610cec576040517f08c379a0000000000000000000000000000000000000000000000000000000008152600401610ce390614538565b60405180910390fd5b610d3982828080601f016020809104026020016040519081016040528093929190818152602001838380828437600081840152601f19601f82011690508083019250505050505050612397565b5050565b610d45611d7a565b73ffffffffffffffffffffffffffffffffffffffff168373ffffffffffffffffffffffffffffffffffffffff161480610d8b5750610d8a83610d85611d7a565b611a0e565b5b610dca576040517f08c379a0000000000000000000000000000000000000000000000000000000008152600401610dc190614801565b60405180910390fd5b610dd58383836123b1565b505050565b610de2611d7a565b73ffffffffffffffffffffffffffffffffffffffff16610e006112ca565b73ffffffffffffffffffffffffffffffffffffffff1614610e56576040517f08c379a0000000000000000000000000000000000000000000000000000000008152600401610e4d90614538565b60405180910390fd5b610e606000612680565b565b60056020528160005260406000208181548110610e7e57600080fd5b90600052602060002001600091509150505481565b610e9b611d7a565b73ffffffffffffffffffffffffffffffffffffffff16610eb96112ca565b73ffffffffffffffffffffffffffffffffffffffff1614610f0f576040517f08c379a0000000000000000000000000000000000000000000000000000000008152600401610f0690614538565b60405180910390fd5b6000600460008473ffffffffffffffffffffffffffffffffffffffff1673ffffffffffffffffffffffffffffffffffffffff16815260200190815260200160002060009054906101000a900460ff1690508015610fa1576040517f08c379a0000000000000000000000000000000000000000000000000000000008152600401610f989061486d565b60405180910390fd5b60005b82518110156110e857600073ffffffffffffffffffffffffffffffffffffffff1660066000858481518110610fdc57610fdb614656565b5b6020026020010151815260200190815260200160002060009054906101000a900473ffffffffffffffffffffffffffffffffffffffff1673ffffffffffffffffffffffffffffffffffffffff1614611069576040517f08c379a0000000000000000000000000000000000000000000000000000000008152600401611060906148d9565b60405180910390fd5b836006600085848151811061108157611080614656565b5b6020026020010151815260200190815260200160002060006101000a81548173ffffffffffffffffffffffffffffffffffffffff021916908373ffffffffffffffffffffffffffffffffffffffff16021790555080806110e0906146b4565b915050610fa4565b506001600460008573ffffffffffffffffffffffffffffffffffffffff1673ffffffffffffffffffffffffffffffffffffffff16815260200190815260200160002060006101000a81548160ff021916908315150217905550801515158373ffffffffffffffffffffffffffffffffffffffff167f648ff21ba22ed8487e4c065c2a1053d7dc6e9cd9aee40b08f378a93c2f44a67960405160405180910390a3505050565b60066020528060005260406000206000915054906101000a900473ffffffffffffffffffffffffffffffffffffffff1681565b600460008473ffffffffffffffffffffffffffffffffffffffff1673ffffffffffffffffffffffffffffffffffffffff16815260200190815260200160002060009054906101000a900460ff1661124c576040517f08c379a000000000000000000000000000000000000000000000000000000000815260040161124390614945565b60405180910390fd5b8273ffffffffffffffffffffffffffffffffffffffff166362749f0587898886868a6040518763ffffffff1660e01b815260040161128f969594939291906149e7565b600060405180830381600087803b1580156112a957600080fd5b505af11580156112bd573d6000803e3d6000fd5b5050505050505050505050565b6000600360009054906101000a900473ffffffffffffffffffffffffffffffffffffffff16905090565b6000600460003373ffffffffffffffffffffffffffffffffffffffff1673ffffffffffffffffffffffffffffffffffffffff16815260200190815260200160002060009054906101000a900460ff16905080611385576040517f08c379a000000000000000000000000000000000000000000000000000000000815260040161137c90614636565b60405180910390fd5b60005b87879050811015611460573373ffffffffffffffffffffffffffffffffffffffff16600660008a8a858181106113c1576113c0614656565b5b90506020020135815260200190815260200160002060009054906101000a900473ffffffffffffffffffffffffffffffffffffffff1673ffffffffffffffffffffffffffffffffffffffff161461144d576040517f08c379a000000000000000000000000000000000000000000000000000000000815260040161144490614a9d565b60405180910390fd5b8080611458906146b4565b915050611388565b5061153388888880806020026020016040519081016040528093929190818152602001838360200280828437600081840152601f19601f82011690508083019250505050505050878780806020026020016040519081016040528093929190818152602001838360200280828437600081840152601f19601f8201169050808301925050505050505086868080601f016020809104026020016040519081016040528093929190818152602001838380828437600081840152601f19601f82011690508083019250505050505050611d82565b6115bf878780806020026020016040519081016040528093929190818152602001838360200280828437600081840152601f19601f82011690508083019250505050505050868680806020026020016040519081016040528093929190818152602001838360200280828437600081840152601f19601f82011690508083019250505050505050611faf565b5050505050505050565b6115db6115d4611d7a565b8383612746565b5050565b6115e7611d7a565b73ffffffffffffffffffffffffffffffffffffffff166116056112ca565b73ffffffffffffffffffffffffffffffffffffffff161461165b576040517f08c379a000000000000000000000000000000000000000000000000000000000815260040161165290614538565b60405180910390fd5b80600960006101000a81548173ffffffffffffffffffffffffffffffffffffffff021916908373ffffffffffffffffffffffffffffffffffffffff16021790555050565b6116a7611d7a565b73ffffffffffffffffffffffffffffffffffffffff166116c56112ca565b73ffffffffffffffffffffffffffffffffffffffff161461171b576040517f08c379a000000000000000000000000000000000000000000000000000000000815260040161171290614538565b60405180910390fd5b6000600460008473ffffffffffffffffffffffffffffffffffffffff1673ffffffffffffffffffffffffffffffffffffffff16815260200190815260200160002060009054906101000a900460ff169050806117ac576040517f08c379a00000000000000000000000000000000000000000000000000000000081526004016117a390614636565b60405180910390fd5b6000600560008573ffffffffffffffffffffffffffffffffffffffff1673ffffffffffffffffffffffffffffffffffffffff16815260200190815260200160002080548060200260200160405190810160405280929190818152602001828054801561183757602002820191906000526020600020905b815481526020019060010190808311611823575b5050505050905060005b81518110156118c957836006600084848151811061186257611861614656565b5b6020026020010151815260200190815260200160002060006101000a81548173ffffffffffffffffffffffffffffffffffffffff021916908373ffffffffffffffffffffffffffffffffffffffff16021790555080806118c1906146b4565b915050611841565b506000600460008673ffffffffffffffffffffffffffffffffffffffff1673ffffffffffffffffffffffffffffffffffffffff16815260200190815260200160002060006101000a81548160ff021916908315150217905550811515158473ffffffffffffffffffffffffffffffffffffffff167f648ff21ba22ed8487e4c065c2a1053d7dc6e9cd9aee40b08f378a93c2f44a67960405160405180910390a36001600460008573ffffffffffffffffffffffffffffffffffffffff1673ffffffffffffffffffffffffffffffffffffffff16815260200190815260200160002060006101000a81548160ff021916908315150217905550811515158373ffffffffffffffffffffffffffffffffffffffff167f648ff21ba22ed8487e4c065c2a1053d7dc6e9cd9aee40b08f378a93c2f44a67960405160405180910390a350505050565b6000600160008473ffffffffffffffffffffffffffffffffffffffff1673ffffffffffffffffffffffffffffffffffffffff16815260200190815260200160002060008373ffffffffffffffffffffffffffffffffffffffff1673ffffffffffffffffffffffffffffffffffffffff16815260200190815260200160002060009054906101000a900460ff16905092915050565b611aaa611d7a565b73ffffffffffffffffffffffffffffffffffffffff168573ffffffffffffffffffffffffffffffffffffffff161480611af05750611aef85611aea611d7a565b611a0e565b5b611b2f576040517f08c379a0000000000000000000000000000000000000000000000000000000008152600401611b2690614801565b60405180910390fd5b611b3c85858585856128b3565b5050505050565b611b4b611d7a565b73ffffffffffffffffffffffffffffffffffffffff16611b696112ca565b73ffffffffffffffffffffffffffffffffffffffff1614611bbf576040517f08c379a0000000000000000000000000000000000000000000000000000000008152600401611bb690614538565b60405180910390fd5b600073ffffffffffffffffffffffffffffffffffffffff168173ffffffffffffffffffffffffffffffffffffffff161415611c2f576040517f08c379a0000000000000000000000000000000000000000000000000000000008152600401611c2690614b2f565b60405180910390fd5b611c3881612680565b50565b611c43611d7a565b73ffffffffffffffffffffffffffffffffffffffff168373ffffffffffffffffffffffffffffffffffffffff161480611c895750611c8883611c83611d7a565b611a0e565b5b611cc8576040517f08c379a0000000000000000000000000000000000000000000000000000000008152600401611cbf90614801565b60405180910390fd5b611cd3838383612b4f565b505050565b60046020528060005260406000206000915054906101000a900460ff1681565b60076020528060005260406000206000915090505481565b60007f01ffc9a7000000000000000000000000000000000000000000000000000000007bffffffffffffffffffffffffffffffffffffffffffffffffffffffff1916827bffffffffffffffffffffffffffffffffffffffffffffffffffffffff1916149050919050565b600033905090565b600073ffffffffffffffffffffffffffffffffffffffff168473ffffffffffffffffffffffffffffffffffffffff161415611df2576040517f08c379a0000000000000000000000000000000000000000000000000000000008152600401611de990614bc1565b60405180910390fd5b8151835114611e36576040517f08c379a0000000000000000000000000000000000000000000000000000000008152600401611e2d90614c53565b60405180910390fd5b6000611e40611d7a565b9050611e5181600087878787612d96565b60005b8451811015611f0a57838181518110611e7057611e6f614656565b5b6020026020010151600080878481518110611e8e57611e8d614656565b5b6020026020010151815260200190815260200160002060008873ffffffffffffffffffffffffffffffffffffffff1673ffffffffffffffffffffffffffffffffffffffff1681526020019081526020016000206000828254611ef09190614c73565b925050819055508080611f02906146b4565b915050611e54565b508473ffffffffffffffffffffffffffffffffffffffff16600073ffffffffffffffffffffffffffffffffffffffff168273ffffffffffffffffffffffffffffffffffffffff167f4a39dc06d4c0dbc64b70af90fd698a233a518aa5d07e595d983b8c0526c8f7fb8787604051611f82929190614cc9565b60405180910390a4611f9981600087878787612d9e565b611fa881600087878787612da6565b5050505050565b8051825114611ff3576040517f08c379a0000000000000000000000000000000000000000000000000000000008152600401611fea90614d4c565b60405180910390fd5b60005b82518110156120705781818151811061201257612011614656565b5b60200260200101516007600085848151811061203157612030614656565b5b6020026020010151815260200190815260200160002060008282546120569190614c73565b925050819055508080612068906146b4565b915050611ff6565b505050565b81518351146120b9576040517f08c379a00000000000000000000000000000000000000000000000000000000081526004016120b090614c53565b60405180910390fd5b600073ffffffffffffffffffffffffffffffffffffffff168473ffffffffffffffffffffffffffffffffffffffff161415612129576040517f08c379a000000000000000000000000000000000000000000000000000000000815260040161212090614dde565b60405180910390fd5b6000612133611d7a565b9050612143818787878787612d96565b60005b84518110156122f457600085828151811061216457612163614656565b5b60200260200101519050600085838151811061218357612182614656565b5b60200260200101519050600080600084815260200190815260200160002060008b73ffffffffffffffffffffffffffffffffffffffff1673ffffffffffffffffffffffffffffffffffffffff16815260200190815260200160002054905081811015612224576040517f08c379a000000000000000000000000000000000000000000000000000000000815260040161221b90614e70565b60405180910390fd5b81810360008085815260200190815260200160002060008c73ffffffffffffffffffffffffffffffffffffffff1673ffffffffffffffffffffffffffffffffffffffff168152602001908152602001600020819055508160008085815260200190815260200160002060008b73ffffffffffffffffffffffffffffffffffffffff1673ffffffffffffffffffffffffffffffffffffffff16815260200190815260200160002060008282546122d99190614c73565b92505081905550505050806122ed906146b4565b9050612146565b508473ffffffffffffffffffffffffffffffffffffffff168673ffffffffffffffffffffffffffffffffffffffff168273ffffffffffffffffffffffffffffffffffffffff167f4a39dc06d4c0dbc64b70af90fd698a233a518aa5d07e595d983b8c0526c8f7fb878760405161236b929190614cc9565b60405180910390a4612381818787878787612d9e565b61238f818787878787612da6565b505050505050565b80600290805190602001906123ad9291906131f3565b5050565b600073ffffffffffffffffffffffffffffffffffffffff168373ffffffffffffffffffffffffffffffffffffffff161415612421576040517f08c379a000000000000000000000000000000000000000000000000000000000815260040161241890614f02565b60405180910390fd5b8051825114612465576040517f08c379a000000000000000000000000000000000000000000000000000000000815260040161245c90614c53565b60405180910390fd5b600061246f611d7a565b905061248f81856000868660405180602001604052806000815250612d96565b60005b83518110156125dc5760008482815181106124b0576124af614656565b5b6020026020010151905060008483815181106124cf576124ce614656565b5b60200260200101519050600080600084815260200190815260200160002060008973ffffffffffffffffffffffffffffffffffffffff1673ffffffffffffffffffffffffffffffffffffffff16815260200190815260200160002054905081811015612570576040517f08c379a000000000000000000000000000000000000000000000000000000000815260040161256790614f94565b60405180910390fd5b81810360008085815260200190815260200160002060008a73ffffffffffffffffffffffffffffffffffffffff1673ffffffffffffffffffffffffffffffffffffffff1681526020019081526020016000208190555050505080806125d4906146b4565b915050612492565b50600073ffffffffffffffffffffffffffffffffffffffff168473ffffffffffffffffffffffffffffffffffffffff168273ffffffffffffffffffffffffffffffffffffffff167f4a39dc06d4c0dbc64b70af90fd698a233a518aa5d07e595d983b8c0526c8f7fb8686604051612654929190614cc9565b60405180910390a461267a81856000868660405180602001604052806000815250612d9e565b50505050565b6000600360009054906101000a900473ffffffffffffffffffffffffffffffffffffffff16905081600360006101000a81548173ffffffffffffffffffffffffffffffffffffffff021916908373ffffffffffffffffffffffffffffffffffffffff1602179055508173ffffffffffffffffffffffffffffffffffffffff168173ffffffffffffffffffffffffffffffffffffffff167f8be0079c531659141344cd1fd0a4f28419497f9722a3daafe3b4186f6b6457e060405160405180910390a35050565b8173ffffffffffffffffffffffffffffffffffffffff168373ffffffffffffffffffffffffffffffffffffffff1614156127b5576040517f08c379a00000000000000000000000000000000000000000000000000000000081526004016127ac90615026565b60405180910390fd5b80600160008573ffffffffffffffffffffffffffffffffffffffff1673ffffffffffffffffffffffffffffffffffffffff16815260200190815260200160002060008473ffffffffffffffffffffffffffffffffffffffff1673ffffffffffffffffffffffffffffffffffffffff16815260200190815260200160002060006101000a81548160ff0219169083151502179055508173ffffffffffffffffffffffffffffffffffffffff168373ffffffffffffffffffffffffffffffffffffffff167f17307eab39ab6107e8899845ad3d59bd9653f200f220920489ca2b5937696c31836040516128a69190613448565b60405180910390a3505050565b600073ffffffffffffffffffffffffffffffffffffffff168473ffffffffffffffffffffffffffffffffffffffff161415612923576040517f08c379a000000000000000000000000000000000000000000000000000000000815260040161291a90614dde565b60405180910390fd5b600061292d611d7a565b9050600061293a85612f7e565b9050600061294785612f7e565b9050612957838989858589612d96565b600080600088815260200190815260200160002060008a73ffffffffffffffffffffffffffffffffffffffff1673ffffffffffffffffffffffffffffffffffffffff168152602001908152602001600020549050858110156129ee576040517f08c379a00000000000000000000000000000000000000000000000000000000081526004016129e590614e70565b60405180910390fd5b85810360008089815260200190815260200160002060008b73ffffffffffffffffffffffffffffffffffffffff1673ffffffffffffffffffffffffffffffffffffffff168152602001908152602001600020819055508560008089815260200190815260200160002060008a73ffffffffffffffffffffffffffffffffffffffff1673ffffffffffffffffffffffffffffffffffffffff1681526020019081526020016000206000828254612aa39190614c73565b925050819055508773ffffffffffffffffffffffffffffffffffffffff168973ffffffffffffffffffffffffffffffffffffffff168573ffffffffffffffffffffffffffffffffffffffff167fc3d58168c5ae7397731d063d5bbf3d657854427343f4c083240f7aacaa2d0f628a8a604051612b20929190615046565b60405180910390a4612b36848a8a86868a612d9e565b612b44848a8a8a8a8a612ff8565b505050505050505050565b600073ffffffffffffffffffffffffffffffffffffffff168373ffffffffffffffffffffffffffffffffffffffff161415612bbf576040517f08c379a0000000000000000000000000000000000000000000000000000000008152600401612bb690614f02565b60405180910390fd5b6000612bc9611d7a565b90506000612bd684612f7e565b90506000612be384612f7e565b9050612c0383876000858560405180602001604052806000815250612d96565b600080600087815260200190815260200160002060008873ffffffffffffffffffffffffffffffffffffffff1673ffffffffffffffffffffffffffffffffffffffff16815260200190815260200160002054905084811015612c9a576040517f08c379a0000000000000000000000000000000000000000000000000000000008152600401612c9190614f94565b60405180910390fd5b84810360008088815260200190815260200160002060008973ffffffffffffffffffffffffffffffffffffffff1673ffffffffffffffffffffffffffffffffffffffff16815260200190815260200160002081905550600073ffffffffffffffffffffffffffffffffffffffff168773ffffffffffffffffffffffffffffffffffffffff168573ffffffffffffffffffffffffffffffffffffffff167fc3d58168c5ae7397731d063d5bbf3d657854427343f4c083240f7aacaa2d0f628989604051612d67929190615046565b60405180910390a4612d8d84886000868660405180602001604052806000815250612d9e565b50505050505050565b505050505050565b505050505050565b612dc58473ffffffffffffffffffffffffffffffffffffffff166131d0565b15612f76578373ffffffffffffffffffffffffffffffffffffffff1663bc197c8187878686866040518663ffffffff1660e01b8152600401612e0b95949392919061506f565b6020604051808303816000875af1925050508015612e4757506040513d601f19601f82011682018060405250810190612e4491906150ec565b60015b612eed57612e53615126565b806308c379a01415612eb05750612e68615148565b80612e735750612eb2565b806040517f08c379a0000000000000000000000000000000000000000000000000000000008152600401612ea79190613529565b60405180910390fd5b505b6040517f08c379a0000000000000000000000000000000000000000000000000000000008152600401612ee490615250565b60405180910390fd5b63bc197c8160e01b7bffffffffffffffffffffffffffffffffffffffffffffffffffffffff1916817bffffffffffffffffffffffffffffffffffffffffffffffffffffffff191614612f74576040517f08c379a0000000000000000000000000000000000000000000000000000000008152600401612f6b906152e2565b60405180910390fd5b505b505050505050565b60606000600167ffffffffffffffff811115612f9d57612f9c613550565b5b604051908082528060200260200182016040528015612fcb5781602001602082028036833780820191505090505b5090508281600081518110612fe357612fe2614656565b5b60200260200101818152505080915050919050565b6130178473ffffffffffffffffffffffffffffffffffffffff166131d0565b156131c8578373ffffffffffffffffffffffffffffffffffffffff1663f23a6e6187878686866040518663ffffffff1660e01b815260040161305d959493929190615302565b6020604051808303816000875af192505050801561309957506040513d601f19601f8201168201806040525081019061309691906150ec565b60015b61313f576130a5615126565b806308c379a0141561310257506130ba615148565b806130c55750613104565b806040517f08c379a00000000000000000000000000000000000000000000000000000000081526004016130f99190613529565b60405180910390fd5b505b6040517f08c379a000000000000000000000000000000000000000000000000000000000815260040161313690615250565b60405180910390fd5b63f23a6e6160e01b7bffffffffffffffffffffffffffffffffffffffffffffffffffffffff1916817bffffffffffffffffffffffffffffffffffffffffffffffffffffffff1916146131c6576040517f08c379a00000000000000000000000000000000000000000000000000000000081526004016131bd906152e2565b60405180910390fd5b505b505050505050565b6000808273ffffffffffffffffffffffffffffffffffffffff163b119050919050565b8280546131ff906143c6565b90600052602060002090601f0160209004810192826132215760008555613268565b82601f1061323a57805160ff1916838001178555613268565b82800160010185558215613268579182015b8281111561326757825182559160200191906001019061324c565b5b5090506132759190613279565b5090565b5b8082111561329257600081600090555060010161327a565b5090565b6000604051905090565b600080fd5b600080fd5b600073ffffffffffffffffffffffffffffffffffffffff82169050919050565b60006132d5826132aa565b9050919050565b6132e5816132ca565b81146132f057600080fd5b50565b600081359050613302816132dc565b92915050565b6000819050919050565b61331b81613308565b811461332657600080fd5b50565b60008135905061333881613312565b92915050565b60008060408385031215613355576133546132a0565b5b6000613363858286016132f3565b925050602061337485828601613329565b9150509250929050565b61338781613308565b82525050565b60006020820190506133a2600083018461337e565b92915050565b60007fffffffff0000000000000000000000000000000000000000000000000000000082169050919050565b6133dd816133a8565b81146133e857600080fd5b50565b6000813590506133fa816133d4565b92915050565b600060208284031215613416576134156132a0565b5b6000613424848285016133eb565b91505092915050565b60008115159050919050565b6134428161342d565b82525050565b600060208201905061345d6000830184613439565b92915050565b600060208284031215613479576134786132a0565b5b600061348784828501613329565b91505092915050565b600081519050919050565b600082825260208201905092915050565b60005b838110156134ca5780820151818401526020810190506134af565b838111156134d9576000848401525b50505050565b6000601f19601f8301169050919050565b60006134fb82613490565b613505818561349b565b93506135158185602086016134ac565b61351e816134df565b840191505092915050565b6000602082019050818103600083015261354381846134f0565b905092915050565b600080fd5b7f4e487b7100000000000000000000000000000000000000000000000000000000600052604160045260246000fd5b613588826134df565b810181811067ffffffffffffffff821117156135a7576135a6613550565b5b80604052505050565b60006135ba613296565b90506135c6828261357f565b919050565b600067ffffffffffffffff8211156135e6576135e5613550565b5b602082029050602081019050919050565b600080fd5b600061360f61360a846135cb565b6135b0565b90508083825260208201905060208402830185811115613632576136316135f7565b5b835b8181101561365b57806136478882613329565b845260208401935050602081019050613634565b5050509392505050565b600082601f83011261367a5761367961354b565b5b813561368a8482602086016135fc565b91505092915050565b600080fd5b600067ffffffffffffffff8211156136b3576136b2613550565b5b6136bc826134df565b9050602081019050919050565b82818337600083830152505050565b60006136eb6136e684613698565b6135b0565b90508281526020810184848401111561370757613706613693565b5b6137128482856136c9565b509392505050565b600082601f83011261372f5761372e61354b565b5b813561373f8482602086016136d8565b91505092915050565b60008060008060808587031215613762576137616132a0565b5b6000613770878288016132f3565b945050602085013567ffffffffffffffff811115613791576137906132a5565b5b61379d87828801613665565b935050604085013567ffffffffffffffff8111156137be576137bd6132a5565b5b6137ca87828801613665565b925050606085013567ffffffffffffffff8111156137eb576137ea6132a5565b5b6137f78782880161371a565b91505092959194509250565b600080600080600060a0868803121561381f5761381e6132a0565b5b600061382d888289016132f3565b955050602061383e888289016132f3565b945050604086013567ffffffffffffffff81111561385f5761385e6132a5565b5b61386b88828901613665565b935050606086013567ffffffffffffffff81111561388c5761388b6132a5565b5b61389888828901613665565b925050608086013567ffffffffffffffff8111156138b9576138b86132a5565b5b6138c58882890161371a565b9150509295509295909350565b60006138dd826132ca565b9050919050565b6138ed816138d2565b81146138f857600080fd5b50565b60008135905061390a816138e4565b92915050565b600060208284031215613926576139256132a0565b5b6000613934848285016138fb565b91505092915050565b600067ffffffffffffffff82111561395857613957613550565b5b602082029050602081019050919050565b600061397c6139778461393d565b6135b0565b9050808382526020820190506020840283018581111561399f5761399e6135f7565b5b835b818110156139c857806139b488826132f3565b8452602084019350506020810190506139a1565b5050509392505050565b600082601f8301126139e7576139e661354b565b5b81356139f7848260208601613969565b91505092915050565b60008060408385031215613a1757613a166132a0565b5b600083013567ffffffffffffffff811115613a3557613a346132a5565b5b613a41858286016139d2565b925050602083013567ffffffffffffffff811115613a6257613a616132a5565b5b613a6e85828601613665565b9150509250929050565b600081519050919050565b600082825260208201905092915050565b6000819050602082019050919050565b613aad81613308565b82525050565b6000613abf8383613aa4565b60208301905092915050565b6000602082019050919050565b6000613ae382613a78565b613aed8185613a83565b9350613af883613a94565b8060005b83811015613b29578151613b108882613ab3565b9750613b1b83613acb565b925050600181019050613afc565b5085935050505092915050565b60006020820190508181036000830152613b508184613ad8565b905092915050565b600080fd5b60008083601f840112613b7357613b7261354b565b5b8235905067ffffffffffffffff811115613b9057613b8f613b58565b5b602083019150836001820283011115613bac57613bab6135f7565b5b9250929050565b60008060208385031215613bca57613bc96132a0565b5b600083013567ffffffffffffffff811115613be857613be76132a5565b5b613bf485828601613b5d565b92509250509250929050565b600080600060608486031215613c1957613c186132a0565b5b6000613c27868287016132f3565b935050602084013567ffffffffffffffff811115613c4857613c476132a5565b5b613c5486828701613665565b925050604084013567ffffffffffffffff811115613c7557613c746132a5565b5b613c8186828701613665565b9150509250925092565b60008060408385031215613ca257613ca16132a0565b5b6000613cb0858286016138fb565b9250506020613cc185828601613329565b9150509250929050565b60008060408385031215613ce257613ce16132a0565b5b6000613cf0858286016138fb565b925050602083013567ffffffffffffffff811115613d1157613d106132a5565b5b613d1d85828601613665565b9150509250929050565b613d30816132ca565b82525050565b6000602082019050613d4b6000830184613d27565b92915050565b600080600080600080600060c0888a031215613d7057613d6f6132a0565b5b6000613d7e8a828b01613329565b9750506020613d8f8a828b016132f3565b965050604088013567ffffffffffffffff811115613db057613daf6132a5565b5b613dbc8a828b01613665565b955050606088013567ffffffffffffffff811115613ddd57613ddc6132a5565b5b613de98a828b0161371a565b9450506080613dfa8a828b016138fb565b93505060a088013567ffffffffffffffff811115613e1b57613e1a6132a5565b5b613e278a828b01613b5d565b925092505092959891949750929550565b60008083601f840112613e4e57613e4d61354b565b5b8235905067ffffffffffffffff811115613e6b57613e6a613b58565b5b602083019150836020820283011115613e8757613e866135f7565b5b9250929050565b60008083601f840112613ea457613ea361354b565b5b8235905067ffffffffffffffff811115613ec157613ec0613b58565b5b602083019150836001820283011115613edd57613edc6135f7565b5b9250929050565b60008060008060008060006080888a031215613f0357613f026132a0565b5b6000613f118a828b016132f3565b975050602088013567ffffffffffffffff811115613f3257613f316132a5565b5b613f3e8a828b01613e38565b9650965050604088013567ffffffffffffffff811115613f6157613f606132a5565b5b613f6d8a828b01613e38565b9450945050606088013567ffffffffffffffff811115613f9057613f8f6132a5565b5b613f9c8a828b01613e8e565b925092505092959891949750929550565b613fb68161342d565b8114613fc157600080fd5b50565b600081359050613fd381613fad565b92915050565b60008060408385031215613ff057613fef6132a0565b5b6000613ffe858286016132f3565b925050602061400f85828601613fc4565b9150509250929050565b6000614024826132ca565b9050919050565b61403481614019565b811461403f57600080fd5b50565b6000813590506140518161402b565b92915050565b60006020828403121561406d5761406c6132a0565b5b600061407b84828501614042565b91505092915050565b6000806040838503121561409b5761409a6132a0565b5b60006140a9858286016138fb565b92505060206140ba858286016138fb565b9150509250929050565b600080604083850312156140db576140da6132a0565b5b60006140e9858286016132f3565b92505060206140fa858286016132f3565b9150509250929050565b600080600080600060a086880312156141205761411f6132a0565b5b600061412e888289016132f3565b955050602061413f888289016132f3565b945050604061415088828901613329565b935050606061416188828901613329565b925050608086013567ffffffffffffffff811115614182576141816132a5565b5b61418e8882890161371a565b9150509295509295909350565b6000602082840312156141b1576141b06132a0565b5b60006141bf848285016132f3565b91505092915050565b6000806000606084860312156141e1576141e06132a0565b5b60006141ef868287016132f3565b935050602061420086828701613329565b925050604061421186828701613329565b9150509250925092565b7f455243313135353a2062616c616e636520717565727920666f7220746865207a60008201527f65726f2061646472657373000000000000000000000000000000000000000000602082015250565b6000614277602b8361349b565b91506142828261421b565b604082019050919050565b600060208201905081810360008301526142a68161426a565b9050919050565b600067ffffffffffffffff8211156142c8576142c7613550565b5b6142d1826134df565b9050602081019050919050565b60006142f16142ec846142ad565b6135b0565b90508281526020810184848401111561430d5761430c613693565b5b6143188482856134ac565b509392505050565b600082601f8301126143355761433461354b565b5b81516143458482602086016142de565b91505092915050565b600060208284031215614364576143636132a0565b5b600082015167ffffffffffffffff811115614382576143816132a5565b5b61438e84828501614320565b91505092915050565b7f4e487b7100000000000000000000000000000000000000000000000000000000600052602260045260246000fd5b600060028204905060018216806143de57607f821691505b602082108114156143f2576143f1614397565b5b50919050565b600081905092915050565b60008190508160005260206000209050919050565b60008154614425816143c6565b61442f81866143f8565b9450600182166000811461444a576001811461445b5761448e565b60ff1983168652818601935061448e565b61446485614403565b60005b8381101561448657815481890152600182019150602081019050614467565b838801955050505b50505092915050565b60006144a282613490565b6144ac81856143f8565b93506144bc8185602086016134ac565b80840191505092915050565b60006144d48285614418565b91506144e08284614497565b91508190509392505050565b7f4f776e61626c653a2063616c6c6572206973206e6f7420746865206f776e6572600082015250565b600061452260208361349b565b915061452d826144ec565b602082019050919050565b6000602082019050818103600083015261455181614515565b9050919050565b7f455243313135353a207472616e736665722063616c6c6572206973206e6f742060008201527f6f776e6572206e6f7220617070726f7665640000000000000000000000000000602082015250565b60006145b460328361349b565b91506145bf82614558565b604082019050919050565b600060208201905081810360008301526145e3816145a7565b9050919050565b7f56414c494441544f525f494e4143544956450000000000000000000000000000600082015250565b600061462060128361349b565b915061462b826145ea565b602082019050919050565b6000602082019050818103600083015261464f81614613565b9050919050565b7f4e487b7100000000000000000000000000000000000000000000000000000000600052603260045260246000fd5b7f4e487b7100000000000000000000000000000000000000000000000000000000600052601160045260246000fd5b60006146bf82613308565b91507fffffffffffffffffffffffffffffffffffffffffffffffffffffffffffffffff8214156146f2576146f1614685565b5b600182019050919050565b7f455243313135353a206163636f756e747320616e6420696473206c656e67746860008201527f206d69736d617463680000000000000000000000000000000000000000000000602082015250565b600061475960298361349b565b9150614764826146fd565b604082019050919050565b600060208201905081810360008301526147888161474c565b9050919050565b7f455243313135353a2063616c6c6572206973206e6f74206f776e6572206e6f7260008201527f20617070726f7665640000000000000000000000000000000000000000000000602082015250565b60006147eb60298361349b565b91506147f68261478f565b604082019050919050565b6000602082019050818103600083015261481a816147de565b9050919050565b7f56414c494441544f525f41435449564500000000000000000000000000000000600082015250565b600061485760108361349b565b915061486282614821565b602082019050919050565b600060208201905081810360008301526148868161484a565b9050919050565b7f494e56414c49445f56414c494441544f525f4944530000000000000000000000600082015250565b60006148c360158361349b565b91506148ce8261488d565b602082019050919050565b600060208201905081810360008301526148f2816148b6565b9050919050565b7f4241445f56414c494441544f5200000000000000000000000000000000000000600082015250565b600061492f600d8361349b565b915061493a826148f9565b602082019050919050565b6000602082019050818103600083015261495e81614922565b9050919050565b6000614971838561349b565b935061497e8385846136c9565b614987836134df565b840190509392505050565b600081519050919050565b600082825260208201905092915050565b60006149b982614992565b6149c3818561499d565b93506149d38185602086016134ac565b6149dc816134df565b840191505092915050565b600060a0820190506149fc6000830189613d27565b614a09602083018861337e565b8181036040830152614a1b8187613ad8565b90508181036060830152614a30818587614965565b90508181036080830152614a4481846149ae565b9050979650505050505050565b7f494e56414c49445f4d494e540000000000000000000000000000000000000000600082015250565b6000614a87600c8361349b565b9150614a9282614a51565b602082019050919050565b60006020820190508181036000830152614ab681614a7a565b9050919050565b7f4f776e61626c653a206e6577206f776e657220697320746865207a65726f206160008201527f6464726573730000000000000000000000000000000000000000000000000000602082015250565b6000614b1960268361349b565b9150614b2482614abd565b604082019050919050565b60006020820190508181036000830152614b4881614b0c565b9050919050565b7f455243313135353a206d696e7420746f20746865207a65726f2061646472657360008201527f7300000000000000000000000000000000000000000000000000000000000000602082015250565b6000614bab60218361349b565b9150614bb682614b4f565b604082019050919050565b60006020820190508181036000830152614bda81614b9e565b9050919050565b7f455243313135353a2069647320616e6420616d6f756e7473206c656e6774682060008201527f6d69736d61746368000000000000000000000000000000000000000000000000602082015250565b6000614c3d60288361349b565b9150614c4882614be1565b604082019050919050565b60006020820190508181036000830152614c6c81614c30565b9050919050565b6000614c7e82613308565b9150614c8983613308565b9250827fffffffffffffffffffffffffffffffffffffffffffffffffffffffffffffffff03821115614cbe57614cbd614685565b5b828201905092915050565b60006040820190508181036000830152614ce38185613ad8565b90508181036020830152614cf78184613ad8565b90509392505050565b7f4d494e545f5155414e544954595f4d49534d4154434800000000000000000000600082015250565b6000614d3660168361349b565b9150614d4182614d00565b602082019050919050565b60006020820190508181036000830152614d6581614d29565b9050919050565b7f455243313135353a207472616e7366657220746f20746865207a65726f20616460008201527f6472657373000000000000000000000000000000000000000000000000000000602082015250565b6000614dc860258361349b565b9150614dd382614d6c565b604082019050919050565b60006020820190508181036000830152614df781614dbb565b9050919050565b7f455243313135353a20696e73756666696369656e742062616c616e636520666f60008201527f72207472616e7366657200000000000000000000000000000000000000000000602082015250565b6000614e5a602a8361349b565b9150614e6582614dfe565b604082019050919050565b60006020820190508181036000830152614e8981614e4d565b9050919050565b7f455243313135353a206275726e2066726f6d20746865207a65726f206164647260008201527f6573730000000000000000000000000000000000000000000000000000000000602082015250565b6000614eec60238361349b565b9150614ef782614e90565b604082019050919050565b60006020820190508181036000830152614f1b81614edf565b9050919050565b7f455243313135353a206275726e20616d6f756e7420657863656564732062616c60008201527f616e636500000000000000000000000000000000000000000000000000000000602082015250565b6000614f7e60248361349b565b9150614f8982614f22565b604082019050919050565b60006020820190508181036000830152614fad81614f71565b9050919050565b7f455243313135353a2073657474696e6720617070726f76616c2073746174757360008201527f20666f722073656c660000000000000000000000000000000000000000000000602082015250565b600061501060298361349b565b915061501b82614fb4565b604082019050919050565b6000602082019050818103600083015261503f81615003565b9050919050565b600060408201905061505b600083018561337e565b615068602083018461337e565b9392505050565b600060a0820190506150846000830188613d27565b6150916020830187613d27565b81810360408301526150a38186613ad8565b905081810360608301526150b78185613ad8565b905081810360808301526150cb81846149ae565b90509695505050505050565b6000815190506150e6816133d4565b92915050565b600060208284031215615102576151016132a0565b5b6000615110848285016150d7565b91505092915050565b60008160e01c9050919050565b600060033d11156151455760046000803e615142600051615119565b90505b90565b600060443d1015615158576151db565b615160613296565b60043d036004823e80513d602482011167ffffffffffffffff821117156151885750506151db565b808201805167ffffffffffffffff8111156151a657505050506151db565b80602083010160043d0385018111156151c35750505050506151db565b6151d28260200185018661357f565b82955050505050505b90565b7f455243313135353a207472616e7366657220746f206e6f6e204552433131353560008201527f526563656976657220696d706c656d656e746572000000000000000000000000602082015250565b600061523a60348361349b565b9150615245826151de565b604082019050919050565b600060208201905081810360008301526152698161522d565b9050919050565b7f455243313135353a204552433131353552656365697665722072656a6563746560008201527f6420746f6b656e73000000000000000000000000000000000000000000000000602082015250565b60006152cc60288361349b565b91506152d782615270565b604082019050919050565b600060208201905081810360008301526152fb816152bf565b9050919050565b600060a0820190506153176000830188613d27565b6153246020830187613d27565b615331604083018661337e565b61533e606083018561337e565b818103608083015261535081846149ae565b9050969550505050505056fea2646970667358221220149081fd601a6bec0853d89d84099979728dbaa1e878ead3d3a685323a02d2cf64736f6c634300080a0033",
  "linkReferences": {},
  "deployedLinkReferences": {}
}