{
  "_format": "hh-sol-artifact-1",
  "contractName": "Collectible",
  "sourceName": "contracts/legacy/Collectible.sol",
  "abi": [
    {
      "constant": true,
      "inputs": [
        {
          "name": "_owner",
          "type": "address"
        },
        {
          "name": "_id",
          "type": "uint256"
        }
      ],
      "name": "balanceOf",
      "outputs": [
        {
          "name": "",
          "type": "uint256"
        }
      ],
      "payable": false,
      "stateMutability": "view",
      "type": "function"
    },
    {
      "constant": true,
      "inputs": [
        {
          "name": "_interfaceId",
          "type": "bytes4"
        }
      ],
      "name": "supportsInterface",
      "outputs": [
        {
          "name": "",
          "type": "bool"
        }
      ],
      "payable": false,
      "stateMutability": "view",
      "type": "function"
    },
    {
      "constant": true,
      "inputs": [
        {
          "name": "",
          "type": "uint256"
        }
      ],
      "name": "maxIndex",
      "outputs": [
        {
          "name": "",
          "type": "uint256"
        }
      ],
      "payable": false,
      "stateMutability": "view",
      "type": "function"
    },
    {
      "constant": true,
      "inputs": [
        {
          "name": "_id",
          "type": "uint256"
        }
      ],
      "name": "uri",
      "outputs": [
        {
          "name": "",
          "type": "string"
        }
      ],
      "payable": false,
      "stateMutability": "view",
      "type": "function"
    },
    {
      "constant": false,
      "inputs": [
        {
          "name": "_from",
          "type": "address"
        },
        {
          "name": "_to",
          "type": "address"
        },
        {
          "name": "_ids",
          "type": "uint256[]"
        },
        {
          "name": "_values",
          "type": "uint256[]"
        },
        {
          "name": "_data",
          "type": "bytes"
        }
      ],
      "name": "safeBatchTransferFrom",
      "outputs": [],
      "payable": false,
      "stateMutability": "nonpayable",
      "type": "function"
    },
    {
      "constant": false,
      "inputs": [
        {
          "name": "_artistProofs",
          "type": "uint256"
        },
        {
          "name": "_uri",
          "type": "string"
        },
        {
          "name": "_isNF",
          "type": "bool"
        },
        {
          "name": "_to",
          "type": "address[]"
        }
      ],
      "name": "create",
      "outputs": [
        {
          "name": "_type",
          "type": "uint256"
        }
      ],
      "payable": false,
      "stateMutability": "nonpayable",
      "type": "function"
    },
    {
      "constant": false,
      "inputs": [
        {
          "name": "_id",
          "type": "uint256"
        },
        {
          "name": "_to",
          "type": "address[]"
        },
        {
          "name": "_quantities",
          "type": "uint256[]"
        }
      ],
      "name": "mintFungibles",
      "outputs": [],
      "payable": false,
      "stateMutability": "nonpayable",
      "type": "function"
    },
    {
      "constant": true,
      "inputs": [
        {
          "name": "_owners",
          "type": "address[]"
        },
        {
          "name": "_ids",
          "type": "uint256[]"
        }
      ],
      "name": "balanceOfBatch",
      "outputs": [
        {
          "name": "",
          "type": "uint256[]"
        }
      ],
      "payable": false,
      "stateMutability": "view",
      "type": "function"
    },
    {
      "constant": true,
      "inputs": [
        {
          "name": "_id",
          "type": "uint256"
        }
      ],
      "name": "ownerOf",
      "outputs": [
        {
          "name": "",
          "type": "address"
        }
      ],
      "payable": false,
      "stateMutability": "view",
      "type": "function"
    },
    {
      "constant": false,
      "inputs": [
        {
          "name": "_uriId",
          "type": "string"
        },
        {
          "name": "_id",
          "type": "uint256"
        }
      ],
      "name": "setURI",
      "outputs": [],
      "payable": false,
      "stateMutability": "nonpayable",
      "type": "function"
    },
    {
      "constant": false,
      "inputs": [
        {
          "name": "_newBaseMetadataURI",
          "type": "string"
        }
      ],
      "name": "setBaseMetadataURI",
      "outputs": [],
      "payable": false,
      "stateMutability": "nonpayable",
      "type": "function"
    },
    {
      "constant": true,
      "inputs": [],
      "name": "owner",
      "outputs": [
        {
          "name": "",
          "type": "address"
        }
      ],
      "payable": false,
      "stateMutability": "view",
      "type": "function"
    },
    {
      "constant": true,
      "inputs": [
        {
          "name": "",
          "type": "uint256"
        }
      ],
      "name": "nfOwners",
      "outputs": [
        {
          "name": "",
          "type": "address"
        }
      ],
      "payable": false,
      "stateMutability": "view",
      "type": "function"
    },
    {
      "constant": true,
      "inputs": [
        {
          "name": "",
          "type": "uint256"
        }
      ],
      "name": "proofs",
      "outputs": [
        {
          "name": "",
          "type": "uint256"
        }
      ],
      "payable": false,
      "stateMutability": "view",
      "type": "function"
    },
    {
      "constant": false,
      "inputs": [
        {
          "name": "_type",
          "type": "uint256"
        },
        {
          "name": "_editions",
          "type": "uint256"
        },
        {
          "name": "_uriId",
          "type": "string"
        },
        {
          "name": "_to",
          "type": "address[]"
        }
      ],
      "name": "mint",
      "outputs": [],
      "payable": false,
      "stateMutability": "nonpayable",
      "type": "function"
    },
    {
      "constant": false,
      "inputs": [
        {
          "name": "_operator",
          "type": "address"
        },
        {
          "name": "_approved",
          "type": "bool"
        }
      ],
      "name": "setApprovalForAll",
      "outputs": [],
      "payable": false,
      "stateMutability": "nonpayable",
      "type": "function"
    },
    {
      "constant": true,
      "inputs": [],
      "name": "nonce",
      "outputs": [
        {
          "name": "",
          "type": "uint256"
        }
      ],
      "payable": false,
      "stateMutability": "view",
      "type": "function"
    },
    {
      "constant": true,
      "inputs": [
        {
          "name": "",
          "type": "uint256"
        }
      ],
      "name": "creators",
      "outputs": [
        {
          "name": "",
          "type": "address"
        }
      ],
      "payable": false,
      "stateMutability": "view",
      "type": "function"
    },
    {
      "constant": true,
      "inputs": [
        {
          "name": "_owner",
          "type": "address"
        },
        {
          "name": "_operator",
          "type": "address"
        }
      ],
      "name": "isApprovedForAll",
      "outputs": [
        {
          "name": "",
          "type": "bool"
        }
      ],
      "payable": false,
      "stateMutability": "view",
      "type": "function"
    },
    {
      "constant": false,
      "inputs": [
        {
          "name": "_from",
          "type": "address"
        },
        {
          "name": "_to",
          "type": "address"
        },
        {
          "name": "_id",
          "type": "uint256"
        },
        {
          "name": "_value",
          "type": "uint256"
        },
        {
          "name": "_data",
          "type": "bytes"
        }
      ],
      "name": "safeTransferFrom",
      "outputs": [],
      "payable": false,
      "stateMutability": "nonpayable",
      "type": "function"
    },
    {
      "inputs": [],
      "payable": false,
      "stateMutability": "nonpayable",
      "type": "constructor"
    },
    {
      "anonymous": false,
      "inputs": [
        {
          "indexed": true,
          "name": "_creator",
          "type": "address"
        },
        {
          "indexed": true,
          "name": "_type",
          "type": "uint256"
        },
        {
          "indexed": false,
          "name": "_proofCount",
          "type": "uint256"
        }
      ],
      "name": "NewCollectible",
      "type": "event"
    },
    {
      "anonymous": false,
      "inputs": [
        {
          "indexed": false,
          "name": "_type",
          "type": "uint256"
        },
        {
          "indexed": false,
          "name": "_maxSubType",
          "type": "uint256"
        },
        {
          "indexed": false,
          "name": "_generation",
          "type": "uint256"
        },
        {
          "indexed": false,
          "name": "_uriId",
          "type": "string"
        }
      ],
      "name": "Generation",
      "type": "event"
    },
    {
      "anonymous": false,
      "inputs": [
        {
          "indexed": true,
          "name": "_operator",
          "type": "address"
        },
        {
          "indexed": true,
          "name": "_from",
          "type": "address"
        },
        {
          "indexed": true,
          "name": "_to",
          "type": "address"
        },
        {
          "indexed": false,
          "name": "_id",
          "type": "uint256"
        },
        {
          "indexed": false,
          "name": "_value",
          "type": "uint256"
        }
      ],
      "name": "TransferSingle",
      "type": "event"
    },
    {
      "anonymous": false,
      "inputs": [
        {
          "indexed": true,
          "name": "_operator",
          "type": "address"
        },
        {
          "indexed": true,
          "name": "_from",
          "type": "address"
        },
        {
          "indexed": true,
          "name": "_to",
          "type": "address"
        },
        {
          "indexed": false,
          "name": "_ids",
          "type": "uint256[]"
        },
        {
          "indexed": false,
          "name": "_values",
          "type": "uint256[]"
        }
      ],
      "name": "TransferBatch",
      "type": "event"
    },
    {
      "anonymous": false,
      "inputs": [
        {
          "indexed": true,
          "name": "_owner",
          "type": "address"
        },
        {
          "indexed": true,
          "name": "_operator",
          "type": "address"
        },
        {
          "indexed": false,
          "name": "_approved",
          "type": "bool"
        }
      ],
      "name": "ApprovalForAll",
      "type": "event"
    },
    {
      "anonymous": false,
      "inputs": [
        {
          "indexed": false,
          "name": "_value",
          "type": "string"
        },
        {
          "indexed": true,
          "name": "_id",
          "type": "uint256"
        }
      ],
      "name": "URI",
      "type": "event"
    }
  ],
  "bytecode": "0x608060405234801561001057600080fd5b5033600360006101000a81548173ffffffffffffffffffffffffffffffffffffffff021916908373ffffffffffffffffffffffffffffffffffffffff160217905550613e40806100616000396000f3fe608060405234801561001057600080fd5b506004361061012b5760003560e01c80637e518ec8116100ad578063a22cb46511610071578063a22cb46514610abe578063affed0e014610b0e578063cd53d08e14610b2c578063e985e9c514610b9a578063f242432a14610c165761012b565b80637e518ec8146108275780638da5cb5b146108e257806395d817bc1461092c5780639ddaf5aa1461099a578063a0401777146109dc5761012b565b806331822c30116100f457806331822c30146104435780633d7d20a41461053b5780634e1273f4146106135780636352211e1461073657806367db3b8f146107a45761012b565b8062fdd58e1461013057806301ffc9a71461019257806308d7d469146101f75780630e89341c146102395780632eb2c2d6146102e0575b600080fd5b61017c6004803603604081101561014657600080fd5b81019080803573ffffffffffffffffffffffffffffffffffffffff16906020019092919080359060200190929190505050610ce3565b6040518082815260200191505060405180910390f35b6101dd600480360360208110156101a857600080fd5b8101908080357bffffffffffffffffffffffffffffffffffffffffffffffffffffffff19169060200190929190505050610dc6565b604051808215151515815260200191505060405180910390f35b6102236004803603602081101561020d57600080fd5b8101908080359060200190929190505050610e2f565b6040518082815260200191505060405180910390f35b6102656004803603602081101561024f57600080fd5b8101908080359060200190929190505050610e47565b6040518080602001828103825283818151815260200191508051906020019080838360005b838110156102a557808201518184015260208101905061028a565b50505050905090810190601f1680156102d25780820380516001836020036101000a031916815260200191505b509250505060405180910390f35b610441600480360360a08110156102f657600080fd5b81019080803573ffffffffffffffffffffffffffffffffffffffff169060200190929190803573ffffffffffffffffffffffffffffffffffffffff1690602001909291908035906020019064010000000081111561035357600080fd5b82018360208201111561036557600080fd5b8035906020019184602083028401116401000000008311171561038757600080fd5b9091929391929390803590602001906401000000008111156103a857600080fd5b8201836020820111156103ba57600080fd5b803590602001918460208302840111640100000000831117156103dc57600080fd5b9091929391929390803590602001906401000000008111156103fd57600080fd5b82018360208201111561040f57600080fd5b8035906020019184600183028401116401000000008311171561043157600080fd5b909192939192939050505061107d565b005b6105256004803603608081101561045957600080fd5b81019080803590602001909291908035906020019064010000000081111561048057600080fd5b82018360208201111561049257600080fd5b803590602001918460018302840111640100000000831117156104b457600080fd5b9091929391929390803515159060200190929190803590602001906401000000008111156104e157600080fd5b8201836020820111156104f357600080fd5b8035906020019184602083028401116401000000008311171561051557600080fd5b9091929391929390505050611799565b6040518082815260200191505060405180910390f35b6106116004803603606081101561055157600080fd5b81019080803590602001909291908035906020019064010000000081111561057857600080fd5b82018360208201111561058a57600080fd5b803590602001918460208302840111640100000000831117156105ac57600080fd5b9091929391929390803590602001906401000000008111156105cd57600080fd5b8201836020820111156105df57600080fd5b8035906020019184602083028401116401000000008311171561060157600080fd5b9091929391929390505050611d85565b005b6106df6004803603604081101561062957600080fd5b810190808035906020019064010000000081111561064657600080fd5b82018360208201111561065857600080fd5b8035906020019184602083028401116401000000008311171561067a57600080fd5b90919293919293908035906020019064010000000081111561069b57600080fd5b8201836020820111156106ad57600080fd5b803590602001918460208302840111640100000000831117156106cf57600080fd5b909192939192939050505061205b565b6040518080602001828103825283818151815260200191508051906020019060200280838360005b83811015610722578082015181840152602081019050610707565b505050509050019250505060405180910390f35b6107626004803603602081101561074c57600080fd5b810190808035906020019092919050505061224e565b604051808273ffffffffffffffffffffffffffffffffffffffff1673ffffffffffffffffffffffffffffffffffffffff16815260200191505060405180910390f35b610825600480360360408110156107ba57600080fd5b81019080803590602001906401000000008111156107d757600080fd5b8201836020820111156107e957600080fd5b8035906020019184600183028401116401000000008311171561080b57600080fd5b90919293919293908035906020019092919050505061228b565b005b6108e06004803603602081101561083d57600080fd5b810190808035906020019064010000000081111561085a57600080fd5b82018360208201111561086c57600080fd5b8035906020019184600183028401116401000000008311171561088e57600080fd5b91908080601f016020809104026020016040519081016040528093929190818152602001838380828437600081840152601f19601f8201169050808301925050505050505091929192905050506124b2565b005b6108ea612591565b604051808273ffffffffffffffffffffffffffffffffffffffff1673ffffffffffffffffffffffffffffffffffffffff16815260200191505060405180910390f35b6109586004803603602081101561094257600080fd5b81019080803590602001909291905050506125bb565b604051808273ffffffffffffffffffffffffffffffffffffffff1673ffffffffffffffffffffffffffffffffffffffff16815260200191505060405180910390f35b6109c6600480360360208110156109b057600080fd5b81019080803590602001909291905050506125ee565b6040518082815260200191505060405180910390f35b610abc600480360360808110156109f257600080fd5b81019080803590602001909291908035906020019092919080359060200190640100000000811115610a2357600080fd5b820183602082011115610a3557600080fd5b80359060200191846001830284011164010000000083111715610a5757600080fd5b909192939192939080359060200190640100000000811115610a7857600080fd5b820183602082011115610a8a57600080fd5b80359060200191846020830284011164010000000083111715610aac57600080fd5b9091929391929390505050612606565b005b610b0c60048036036040811015610ad457600080fd5b81019080803573ffffffffffffffffffffffffffffffffffffffff169060200190929190803515159060200190929190505050612e16565b005b610b16612f17565b6040518082815260200191505060405180910390f35b610b5860048036036020811015610b4257600080fd5b8101908080359060200190929190505050612f1d565b604051808273ffffffffffffffffffffffffffffffffffffffff1673ffffffffffffffffffffffffffffffffffffffff16815260200191505060405180910390f35b610bfc60048036036040811015610bb057600080fd5b81019080803573ffffffffffffffffffffffffffffffffffffffff169060200190929190803573ffffffffffffffffffffffffffffffffffffffff169060200190929190505050612f50565b604051808215151515815260200191505060405180910390f35b610ce1600480360360a0811015610c2c57600080fd5b81019080803573ffffffffffffffffffffffffffffffffffffffff169060200190929190803573ffffffffffffffffffffffffffffffffffffffff169060200190929190803590602001909291908035906020019092919080359060200190640100000000811115610c9d57600080fd5b820183602082011115610caf57600080fd5b80359060200191846001830284011164010000000083111715610cd157600080fd5b9091929391929390505050612fe4565b005b6000610cee82613550565b15610d6d578273ffffffffffffffffffffffffffffffffffffffff166002600084815260200190815260200160002060009054906101000a900473ffffffffffffffffffffffffffffffffffffffff1673ffffffffffffffffffffffffffffffffffffffff1614610d60576000610d63565b60015b60ff169050610dc0565b60008083815260200190815260200160002060008473ffffffffffffffffffffffffffffffffffffffff1673ffffffffffffffffffffffffffffffffffffffff1681526020019081526020016000205490505b92915050565b6000630e89341c60e01b7bffffffffffffffffffffffffffffffffffffffffffffffffffffffff1916827bffffffffffffffffffffffffffffffffffffffffffffffffffffffff19161415610e1e5760019050610e2a565b610e27826135bf565b90505b919050565b60076020528060005260406000206000915090505481565b6060610e5282613670565b1515610ea9576040517f08c379a0000000000000000000000000000000000000000000000000000000008152600401808060200182810382526025815260200180613db76025913960400191505060405180910390fd5b6000600a600060407fffffffffffffffffffffffffffffffffffffffffffffffffffffffffffffffff901b8516815260200190815260200160002080546001816001161561010002031660029004905014151515610f6f576040517f08c379a000000000000000000000000000000000000000000000000000000000815260040180806020018281038252600f8152602001807f4e4f4e4558495354454e545f555249000000000000000000000000000000000081525060200191505060405180910390fd5b6004600a600060407fffffffffffffffffffffffffffffffffffffffffffffffffffffffffffffffff901b8516815260200190815260200160002060405160200180838054600181600116156101000203166002900480156110085780601f10610fe6576101008083540402835291820191611008565b820191906000526020600020905b815481529060010190602001808311610ff4575b5050828054600181600116156101000203166002900480156110615780601f1061103f576101008083540402835291820191611061565b820191906000526020600020905b81548152906001019060200180831161104d575b5050925050506040516020818303038152906040529050919050565b600073ffffffffffffffffffffffffffffffffffffffff168773ffffffffffffffffffffffffffffffffffffffff1614151515611122576040517f08c379a000000000000000000000000000000000000000000000000000000000815260040180806020018281038252601b8152602001807f63616e6e6f742073656e6420746f207a65726f2061646472657373000000000081525060200191505060405180910390fd5b838390508686905014151561119f576040517f08c379a00000000000000000000000000000000000000000000000000000000081526004018080602001828103825260178152602001807f4172726179206c656e677468206d757374206d6174636800000000000000000081525060200191505060405180910390fd5b3373ffffffffffffffffffffffffffffffffffffffff168873ffffffffffffffffffffffffffffffffffffffff161480611266575060011515600160008a73ffffffffffffffffffffffffffffffffffffffff1673ffffffffffffffffffffffffffffffffffffffff16815260200190815260200160002060003373ffffffffffffffffffffffffffffffffffffffff1673ffffffffffffffffffffffffffffffffffffffff16815260200190815260200160002060009054906101000a900460ff161515145b15156112bd576040517f08c379a000000000000000000000000000000000000000000000000000000000815260040180806020018281038252602f815260200180613d4a602f913960400191505060405180910390fd5b60008090505b868690508110156115b357600087878381811015156112de57fe5b905060200201359050600086868481811015156112f757fe5b905060200201359050611309826136dc565b1561143b578a73ffffffffffffffffffffffffffffffffffffffff166002600084815260200190815260200160002060009054906101000a900473ffffffffffffffffffffffffffffffffffffffff1673ffffffffffffffffffffffffffffffffffffffff161415156113e4576040517f08c379a000000000000000000000000000000000000000000000000000000000815260040180806020018281038252600e8152602001807f46524f4d5f4e4f545f4f574e455200000000000000000000000000000000000081525060200191505060405180910390fd5b896002600084815260200190815260200160002060006101000a81548173ffffffffffffffffffffffffffffffffffffffff021916908373ffffffffffffffffffffffffffffffffffffffff1602179055506115a6565b61149d8160008085815260200190815260200160002060008e73ffffffffffffffffffffffffffffffffffffffff1673ffffffffffffffffffffffffffffffffffffffff1681526020019081526020016000205461370a90919063ffffffff16565b60008084815260200190815260200160002060008d73ffffffffffffffffffffffffffffffffffffffff1673ffffffffffffffffffffffffffffffffffffffff1681526020019081526020016000208190555061155260008084815260200190815260200160002060008c73ffffffffffffffffffffffffffffffffffffffff1673ffffffffffffffffffffffffffffffffffffffff168152602001908152602001600020548261372390919063ffffffff16565b60008084815260200190815260200160002060008c73ffffffffffffffffffffffffffffffffffffffff1673ffffffffffffffffffffffffffffffffffffffff168152602001908152602001600020819055505b50508060010190506112c3565b508673ffffffffffffffffffffffffffffffffffffffff168873ffffffffffffffffffffffffffffffffffffffff163373ffffffffffffffffffffffffffffffffffffffff167f4a39dc06d4c0dbc64b70af90fd698a233a518aa5d07e595d983b8c0526c8f7fb898989896040518080602001806020018381038352878782818152602001925060200280828437600081840152601f19601f8201169050808301925050508381038252858582818152602001925060200280828437600081840152601f19601f820116905080830192505050965050505050505060405180910390a46116b58773ffffffffffffffffffffffffffffffffffffffff1661373f565b1561178f5761178e338989898980806020026020016040519081016040528093929190818152602001838360200280828437600081840152601f19601f82011690508083019250505050505050888880806020026020016040519081016040528093929190818152602001838360200280828437600081840152601f19601f8201169050808301925050505050505087878080601f016020809104026020016040519081016040528093929190818152602001838380828437600081840152601f19601f82011690508083019250505050505050613752565b5b5050505050505050565b60003373ffffffffffffffffffffffffffffffffffffffff16600360009054906101000a900473ffffffffffffffffffffffffffffffffffffffff1673ffffffffffffffffffffffffffffffffffffffff16141515611860576040517f08c379a00000000000000000000000000000000000000000000000000000000081526004018080602001828103825260058152602001807f4f574e455200000000000000000000000000000000000000000000000000000081525060200191505060405180910390fd5b6080600560008154600101919050819055901b905083156118a1577f8000000000000000000000000000000000000000000000000000000000000000811790505b336006600083815260200190815260200160002060006101000a81548173ffffffffffffffffffffffffffffffffffffffff021916908373ffffffffffffffffffffffffffffffffffffffff1602179055508660086000838152602001908152602001600020819055508585600a6000848152602001908152602001600020919061192d929190613c24565b506000808484905011156119ba5787848490501415156119b5576040517f08c379a00000000000000000000000000000000000000000000000000000000081526004018080602001828103825260118152602001807f544f5f50524f4f465f4d49534d4154434800000000000000000000000000000081525060200191505060405180910390fd5b600190505b813373ffffffffffffffffffffffffffffffffffffffff167f280ed71d9038841cf9e3d9383a6a67d35a813fa8332adbf9582c1b8c0e1d82808a6040518082815260200191505060405180910390a36060600488886040516020018084805460018160011615610100020316600290048015611a6d5780601f10611a4b576101008083540402835291820191611a6d565b820191906000526020600020905b815481529060010190602001808311611a59575b50508383808284378083019250505093505050506040516020818303038152906040529050827f6bb7ff708619ba0610cba295a58592e0451dee2622938c8755667688daf3529b826040518080602001828103825283818151815260200191508051906020019080838360005b83811015611af5578082015181840152602081019050611ada565b50505050905090810190601f168015611b225780820380516001836020036101000a031916815260200191505b509250505060405180910390a26000600190505b8981111515611cfc5760003390508315611b7b578686600184038181101515611b5b57fe5b9050602002013573ffffffffffffffffffffffffffffffffffffffff1690505b60008286179050816002600083815260200190815260200160002060006101000a81548173ffffffffffffffffffffffffffffffffffffffff021916908373ffffffffffffffffffffffffffffffffffffffff160217905550336006600083815260200190815260200160002060006101000a81548173ffffffffffffffffffffffffffffffffffffffff021916908373ffffffffffffffffffffffffffffffffffffffff1602179055508173ffffffffffffffffffffffffffffffffffffffff16600073ffffffffffffffffffffffffffffffffffffffff163373ffffffffffffffffffffffffffffffffffffffff167fc3d58168c5ae7397731d063d5bbf3d657854427343f4c083240f7aacaa2d0f62846001604051808381526020018281526020019250505060405180910390a4611ccb8273ffffffffffffffffffffffffffffffffffffffff1661373f565b15611cef57611cee333384846001604051806020016040528060008152506139e5565b5b5050806001019050611b36565b507f333affa0d9ed22375a02a338908ff03accdf40288b21d2c431ab40edc14acf13838a60008b8b60405180868152602001858152602001848152602001806020018281038252848482818152602001925080828437600081840152601f19601f820116905080830192505050965050505050505060405180910390a150509695505050505050565b843373ffffffffffffffffffffffffffffffffffffffff166006600083815260200190815260200160002060009054906101000a900473ffffffffffffffffffffffffffffffffffffffff1673ffffffffffffffffffffffffffffffffffffffff16141515611e5c576040517f08c379a00000000000000000000000000000000000000000000000000000000081526004018080602001828103825260078152602001807f43524541544f520000000000000000000000000000000000000000000000000081525060200191505060405180910390fd5b611e6586613bf6565b1515611e7057600080fd5b60008090505b858590508110156120525760008686838181101515611e9157fe5b9050602002013573ffffffffffffffffffffffffffffffffffffffff16905060008585848181101515611ec057fe5b905060200201359050611f2b6000808b815260200190815260200160002060008473ffffffffffffffffffffffffffffffffffffffff1673ffffffffffffffffffffffffffffffffffffffff168152602001908152602001600020548261372390919063ffffffff16565b6000808b815260200190815260200160002060008473ffffffffffffffffffffffffffffffffffffffff1673ffffffffffffffffffffffffffffffffffffffff168152602001908152602001600020819055508173ffffffffffffffffffffffffffffffffffffffff16600073ffffffffffffffffffffffffffffffffffffffff163373ffffffffffffffffffffffffffffffffffffffff167fc3d58168c5ae7397731d063d5bbf3d657854427343f4c083240f7aacaa2d0f628c85604051808381526020018281526020019250505060405180910390a46120228273ffffffffffffffffffffffffffffffffffffffff1661373f565b15612045576120443333848c85604051806020016040528060008152506139e5565b5b5050806001019050611e76565b50505050505050565b6060828290508585905014151561207157600080fd5b6060858590506040519080825280602002602001820160405280156120a55781602001602082028038833980820191505090505b50905060008090505b8686905081101561224157600085858381811015156120c957fe5b9050602002013590506120db81613550565b1561219e5787878381811015156120ee57fe5b9050602002013573ffffffffffffffffffffffffffffffffffffffff1673ffffffffffffffffffffffffffffffffffffffff166002600083815260200190815260200160002060009054906101000a900473ffffffffffffffffffffffffffffffffffffffff1673ffffffffffffffffffffffffffffffffffffffff161461217757600061217a565b60015b60ff16838381518110151561218b57fe5b9060200190602002018181525050612235565b600080828152602001908152602001600020600089898581811015156121c057fe5b9050602002013573ffffffffffffffffffffffffffffffffffffffff1673ffffffffffffffffffffffffffffffffffffffff1673ffffffffffffffffffffffffffffffffffffffff16815260200190815260200160002054838381518110151561222657fe5b90602001906020020181815250505b508060010190506120ae565b5080915050949350505050565b60006002600083815260200190815260200160002060009054906101000a900473ffffffffffffffffffffffffffffffffffffffff169050919050565b803373ffffffffffffffffffffffffffffffffffffffff166006600083815260200190815260200160002060009054906101000a900473ffffffffffffffffffffffffffffffffffffffff1673ffffffffffffffffffffffffffffffffffffffff16141515612362576040517f08c379a00000000000000000000000000000000000000000000000000000000081526004018080602001828103825260078152602001807f43524541544f520000000000000000000000000000000000000000000000000081525060200191505060405180910390fd5b60606004858560405160200180848054600181600116156101000203166002900480156123c65780601f106123a45761010080835404028352918201916123c6565b820191906000526020600020905b8154815290600101906020018083116123b2575b505083838082843780830192505050935050505060405160208183030381529060405290508484600a6000868152602001908152602001600020919061240d929190613c24565b50827f6bb7ff708619ba0610cba295a58592e0451dee2622938c8755667688daf3529b826040518080602001828103825283818151815260200191508051906020019080838360005b83811015612471578082015181840152602081019050612456565b50505050905090810190601f16801561249e5780820380516001836020036101000a031916815260200191505b509250505060405180910390a25050505050565b3373ffffffffffffffffffffffffffffffffffffffff16600360009054906101000a900473ffffffffffffffffffffffffffffffffffffffff1673ffffffffffffffffffffffffffffffffffffffff16141515612577576040517f08c379a00000000000000000000000000000000000000000000000000000000081526004018080602001828103825260058152602001807f4f574e455200000000000000000000000000000000000000000000000000000081525060200191505060405180910390fd5b806004908051906020019061258d929190613ca4565b5050565b6000600360009054906101000a900473ffffffffffffffffffffffffffffffffffffffff16905090565b60026020528060005260406000206000915054906101000a900473ffffffffffffffffffffffffffffffffffffffff1681565b60086020528060005260406000206000915090505481565b857f800000000000000000000000000000000000000000000000000000000000000080821614801561266c575060007fffffffffffffffffffffffffffffffffffffffffffffffffffffffffffffffff6fffffffffffffffffffffffffffffffff168216145b15156126e0576040517f08c379a00000000000000000000000000000000000000000000000000000000081526004018080602001828103825260088152602001807f4e4f545f5459504500000000000000000000000000000000000000000000000081525060200191505060405180910390fd5b863373ffffffffffffffffffffffffffffffffffffffff166006600083815260200190815260200160002060009054906101000a900473ffffffffffffffffffffffffffffffffffffffff1673ffffffffffffffffffffffffffffffffffffffff161415156127b7576040517f08c379a00000000000000000000000000000000000000000000000000000000081526004018080602001828103825260078152602001807f43524541544f520000000000000000000000000000000000000000000000000081525060200191505060405180910390fd5b6000600480546001816001161561010002031660029004905014151515612846576040517f08c379a000000000000000000000000000000000000000000000000000000000815260040180806020018281038252600e8152602001807f5552495f424153455f554e53455400000000000000000000000000000000000081525060200191505060405180910390fd5b6000808585905011156128d25787858590501415156128cd576040517f08c379a00000000000000000000000000000000000000000000000000000000081526004018080602001828103825260138152602001807f544f5f45444954494f4e5f4d49534d415443480000000000000000000000000081525060200191505060405180910390fd5b600190505b60606004888860405160200180848054600181600116156101000203166002900480156129365780601f10612914576101008083540402835291820191612936565b820191906000526020600020905b815481529060010190602001808311612922575b5050838380828437808301925050509350505050604051602081830303815290604052905060006129846001600760008e81526020019081526020016000205461372390919063ffffffff16565b90506129ac600760008d8152602001908152602001600020548b61372390919063ffffffff16565b600760008d815260200190815260200160002081905550600080600090505b8b811015612d585760006040828501901b9050808e179250336006600085815260200190815260200160002060006101000a81548173ffffffffffffffffffffffffffffffffffffffff021916908373ffffffffffffffffffffffffffffffffffffffff1602179055506000600184019050600073ffffffffffffffffffffffffffffffffffffffff166002600083815260200190815260200160002060009054906101000a900473ffffffffffffffffffffffffffffffffffffffff1673ffffffffffffffffffffffffffffffffffffffff16141515612b14576040517f08c379a000000000000000000000000000000000000000000000000000000000815260040180806020018281038252600c8152602001807f544f4b454e5f455849535453000000000000000000000000000000000000000081525060200191505060405180910390fd5b8c8c600a60008781526020019081526020016000209190612b36929190613c24565b50837f6bb7ff708619ba0610cba295a58592e0451dee2622938c8755667688daf3529b876040518080602001828103825283818151815260200191508051906020019080838360005b83811015612b9a578082015181840152602081019050612b7f565b50505050905090810190601f168015612bc75780820380516001836020036101000a031916815260200191505b509250505060405180910390a260003390508715612c0d578b8b858181101515612bed57fe5b9050602002013573ffffffffffffffffffffffffffffffffffffffff1690505b806002600084815260200190815260200160002060006101000a81548173ffffffffffffffffffffffffffffffffffffffff021916908373ffffffffffffffffffffffffffffffffffffffff1602179055508073ffffffffffffffffffffffffffffffffffffffff16600073ffffffffffffffffffffffffffffffffffffffff163373ffffffffffffffffffffffffffffffffffffffff167fc3d58168c5ae7397731d063d5bbf3d657854427343f4c083240f7aacaa2d0f62856001604051808381526020018281526020019250505060405180910390a4612d26600360009054906101000a900473ffffffffffffffffffffffffffffffffffffffff1673ffffffffffffffffffffffffffffffffffffffff1661373f565b15612d4a57612d49333383856001604051806020016040528060008152506139e5565b5b5050508060010190506129cb565b5060006001600960008f8152602001908152602001600020540190507f333affa0d9ed22375a02a338908ff03accdf40288b21d2c431ab40edc14acf138d83838e8e60405180868152602001858152602001848152602001806020018281038252848482818152602001925080828437600081840152601f19601f820116905080830192505050965050505050505060405180910390a180600960008f81526020019081526020016000208190555050505050505050505050505050565b80600160003373ffffffffffffffffffffffffffffffffffffffff1673ffffffffffffffffffffffffffffffffffffffff16815260200190815260200160002060008473ffffffffffffffffffffffffffffffffffffffff1673ffffffffffffffffffffffffffffffffffffffff16815260200190815260200160002060006101000a81548160ff0219169083151502179055508173ffffffffffffffffffffffffffffffffffffffff163373ffffffffffffffffffffffffffffffffffffffff167f17307eab39ab6107e8899845ad3d59bd9653f200f220920489ca2b5937696c3183604051808215151515815260200191505060405180910390a35050565b60055481565b60066020528060005260406000206000915054906101000a900473ffffffffffffffffffffffffffffffffffffffff1681565b6000600160008473ffffffffffffffffffffffffffffffffffffffff1673ffffffffffffffffffffffffffffffffffffffff16815260200190815260200160002060008373ffffffffffffffffffffffffffffffffffffffff1673ffffffffffffffffffffffffffffffffffffffff16815260200190815260200160002060009054906101000a900460ff16905092915050565b600073ffffffffffffffffffffffffffffffffffffffff168573ffffffffffffffffffffffffffffffffffffffff1614151515613089576040517f08c379a000000000000000000000000000000000000000000000000000000000815260040180806020018281038252601b8152602001807f63616e6e6f742073656e6420746f207a65726f2061646472657373000000000081525060200191505060405180910390fd5b3373ffffffffffffffffffffffffffffffffffffffff168673ffffffffffffffffffffffffffffffffffffffff161480613150575060011515600160008873ffffffffffffffffffffffffffffffffffffffff1673ffffffffffffffffffffffffffffffffffffffff16815260200190815260200160002060003373ffffffffffffffffffffffffffffffffffffffff1673ffffffffffffffffffffffffffffffffffffffff16815260200190815260200160002060009054906101000a900460ff161515145b15156131a7576040517f08c379a000000000000000000000000000000000000000000000000000000000815260040180806020018281038252602f815260200180613d4a602f913960400191505060405180910390fd5b6131b0846136dc565b156132e2578573ffffffffffffffffffffffffffffffffffffffff166002600086815260200190815260200160002060009054906101000a900473ffffffffffffffffffffffffffffffffffffffff1673ffffffffffffffffffffffffffffffffffffffff1614151561328b576040517f08c379a000000000000000000000000000000000000000000000000000000000815260040180806020018281038252600e8152602001807f46524f4d5f4e4f545f4f574e455200000000000000000000000000000000000081525060200191505060405180910390fd5b846002600086815260200190815260200160002060006101000a81548173ffffffffffffffffffffffffffffffffffffffff021916908373ffffffffffffffffffffffffffffffffffffffff16021790555061344d565b6133448360008087815260200190815260200160002060008973ffffffffffffffffffffffffffffffffffffffff1673ffffffffffffffffffffffffffffffffffffffff1681526020019081526020016000205461370a90919063ffffffff16565b60008086815260200190815260200160002060008873ffffffffffffffffffffffffffffffffffffffff1673ffffffffffffffffffffffffffffffffffffffff168152602001908152602001600020819055506133f98360008087815260200190815260200160002060008873ffffffffffffffffffffffffffffffffffffffff1673ffffffffffffffffffffffffffffffffffffffff1681526020019081526020016000205461372390919063ffffffff16565b60008086815260200190815260200160002060008773ffffffffffffffffffffffffffffffffffffffff1673ffffffffffffffffffffffffffffffffffffffff168152602001908152602001600020819055505b8473ffffffffffffffffffffffffffffffffffffffff168673ffffffffffffffffffffffffffffffffffffffff163373ffffffffffffffffffffffffffffffffffffffff167fc3d58168c5ae7397731d063d5bbf3d657854427343f4c083240f7aacaa2d0f628787604051808381526020018281526020019250505060405180910390a46134f08573ffffffffffffffffffffffffffffffffffffffff1661373f565b1561354857613547338787878787878080601f016020809104026020016040519081016040528093929190818152602001838380828437600081840152601f19601f820116905080830192505050505050506139e5565b5b505050505050565b60007f80000000000000000000000000000000000000000000000000000000000000008083161480156135b8575060007fffffffffffffffffffffffffffffffffffffffffffffffffffffffffffffffff6fffffffffffffffffffffffffffffffff16831614155b9050919050565b60006301ffc9a760e01b7bffffffffffffffffffffffffffffffffffffffffffffffffffffffff1916827bffffffffffffffffffffffffffffffffffffffffffffffffffffffff19161480613658575063d9b67a2660e01b7bffffffffffffffffffffffffffffffffffffffffffffffffffffffff1916827bffffffffffffffffffffffffffffffffffffffffffffffffffffffff1916145b15613666576001905061366b565b600090505b919050565b60008073ffffffffffffffffffffffffffffffffffffffff166002600084815260200190815260200160002060009054906101000a900473ffffffffffffffffffffffffffffffffffffffff1673ffffffffffffffffffffffffffffffffffffffff1614159050919050565b60007f8000000000000000000000000000000000000000000000000000000000000000808316149050919050565b600082821115151561371857fe5b818303905092915050565b6000818301905082811015151561373657fe5b80905092915050565b600080823b905060008111915050919050565b63bc197c8160e01b7bffffffffffffffffffffffffffffffffffffffffffffffffffffffff19168473ffffffffffffffffffffffffffffffffffffffff1663bc197c8188888787876040518663ffffffff1660e01b8152600401808673ffffffffffffffffffffffffffffffffffffffff1673ffffffffffffffffffffffffffffffffffffffff1681526020018573ffffffffffffffffffffffffffffffffffffffff1673ffffffffffffffffffffffffffffffffffffffff168152602001806020018060200180602001848103845287818151815260200191508051906020019060200280838360005b8381101561385857808201518184015260208101905061383d565b50505050905001848103835286818151815260200191508051906020019060200280838360005b8381101561389a57808201518184015260208101905061387f565b50505050905001848103825285818151815260200191508051906020019080838360005b838110156138d95780820151818401526020810190506138be565b50505050905090810190601f1680156139065780820380516001836020036101000a031916815260200191505b5098505050505050505050602060405180830381600087803b15801561392b57600080fd5b505af115801561393f573d6000803e3d6000fd5b505050506040513d602081101561395557600080fd5b81019080805190602001909291905050507bffffffffffffffffffffffffffffffffffffffffffffffffffffffff19161415156139dd576040517f08c379a000000000000000000000000000000000000000000000000000000000815260040180806020018281038252603e815260200180613d79603e913960400191505060405180910390fd5b505050505050565b63f23a6e6160e01b7bffffffffffffffffffffffffffffffffffffffffffffffffffffffff19168473ffffffffffffffffffffffffffffffffffffffff1663f23a6e6188888787876040518663ffffffff1660e01b8152600401808673ffffffffffffffffffffffffffffffffffffffff1673ffffffffffffffffffffffffffffffffffffffff1681526020018573ffffffffffffffffffffffffffffffffffffffff1673ffffffffffffffffffffffffffffffffffffffff16815260200184815260200183815260200180602001828103825283818151815260200191508051906020019080838360005b83811015613aec578082015181840152602081019050613ad1565b50505050905090810190601f168015613b195780820380516001836020036101000a031916815260200191505b509650505050505050602060405180830381600087803b158015613b3c57600080fd5b505af1158015613b50573d6000803e3d6000fd5b505050506040513d6020811015613b6657600080fd5b81019080805190602001909291905050507bffffffffffffffffffffffffffffffffffffffffffffffffffffffff1916141515613bee576040517f08c379a0000000000000000000000000000000000000000000000000000000008152600401808060200182810382526039815260200180613ddc6039913960400191505060405180910390fd5b505050505050565b6000807f80000000000000000000000000000000000000000000000000000000000000008316149050919050565b828054600181600116156101000203166002900490600052602060002090601f016020900481019282601f10613c6557803560ff1916838001178555613c93565b82800160010185558215613c93579182015b82811115613c92578235825591602001919060010190613c77565b5b509050613ca09190613d24565b5090565b828054600181600116156101000203166002900490600052602060002090601f016020900481019282601f10613ce557805160ff1916838001178555613d13565b82800160010185558215613d13579182015b82811115613d12578251825591602001919060010190613cf7565b5b509050613d209190613d24565b5090565b613d4691905b80821115613d42576000816000905550600101613d2a565b5090565b9056fe4e656564206f70657261746f7220617070726f76616c20666f7220337264207061727479207472616e73666572732e636f6e74726163742072657475726e656420616e20756e6b6e6f776e2076616c75652066726f6d206f6e45524331313535426174636852656365697665644552433732315472616461626c65237572693a204e4f4e4558495354454e545f544f4b454e636f6e74726163742072657475726e656420616e20756e6b6e6f776e2076616c75652066726f6d206f6e455243313135355265636569766564a165627a7a723058200ad8de908f4912987eb226513136345b65bf4d064c1ea4536a5380ca8f2416e80029",
  "linkReferences": {},
  "deployedLinkReferences": {}
}