{
  "_format": "hh-sol-artifact-1",
  "contractName": "AggregateValidator",
  "sourceName": "contracts/validators/AggregateValidator.sol",
  "abi": [
    {
      "inputs": [
        {
          "internalType": "contract IFabricator",
          "name": "_core",
          "type": "address"
        },
        {
          "internalType": "uint256",
          "name": "id_",
          "type": "uint256"
        },
        {
          "internalType": "uint256",
          "name": "_supply",
          "type": "uint256"
        },
        {
          "internalType": "contract Authority",
          "name": "authority",
          "type": "address"
        }
      ],
      "stateMutability": "nonpayable",
      "type": "constructor"
    },
    {
      "anonymous": false,
      "inputs": [
        {
          "indexed": true,
          "internalType": "address",
          "name": "user",
          "type": "address"
        },
        {
          "indexed": true,
          "internalType": "contract Authority",
          "name": "newAuthority",
          "type": "address"
        }
      ],
      "name": "AuthorityUpdated",
      "type": "event"
    },
    {
      "anonymous": false,
      "inputs": [
        {
          "indexed": true,
          "internalType": "address",
          "name": "user",
          "type": "address"
        },
        {
          "indexed": true,
          "internalType": "address",
          "name": "newOwner",
          "type": "address"
        }
      ],
      "name": "OwnerUpdated",
      "type": "event"
    },
    {
      "inputs": [],
      "name": "authority",
      "outputs": [
        {
          "internalType": "contract Authority",
          "name": "",
          "type": "address"
        }
      ],
      "stateMutability": "view",
      "type": "function"
    },
    {
      "inputs": [],
      "name": "core",
      "outputs": [
        {
          "internalType": "contract IFabricator",
          "name": "",
          "type": "address"
        }
      ],
      "stateMutability": "view",
      "type": "function"
    },
    {
      "inputs": [
        {
          "internalType": "address",
          "name": "recipient",
          "type": "address"
        },
        {
          "internalType": "uint256[]",
          "name": "_ids",
          "type": "uint256[]"
        },
        {
          "internalType": "uint256[]",
          "name": "_requestedAmounts",
          "type": "uint256[]"
        },
        {
          "internalType": "bytes",
          "name": "_data",
          "type": "bytes"
        }
      ],
      "name": "modularMintCallback",
      "outputs": [],
      "stateMutability": "nonpayable",
      "type": "function"
    },
    {
      "inputs": [
        {
          "internalType": "uint256",
          "name": "limit",
          "type": "uint256"
        }
      ],
      "name": "newLimit",
      "outputs": [],
      "stateMutability": "nonpayable",
      "type": "function"
    },
    {
      "inputs": [
        {
          "internalType": "uint256",
          "name": "supply",
          "type": "uint256"
        }
      ],
      "name": "newSupply",
      "outputs": [],
      "stateMutability": "nonpayable",
      "type": "function"
    },
    {
      "inputs": [],
      "name": "owner",
      "outputs": [
        {
          "internalType": "address",
          "name": "",
          "type": "address"
        }
      ],
      "stateMutability": "view",
      "type": "function"
    },
    {
      "inputs": [],
      "name": "perTxLimit",
      "outputs": [
        {
          "internalType": "uint256",
          "name": "",
          "type": "uint256"
        }
      ],
      "stateMutability": "view",
      "type": "function"
    },
    {
      "inputs": [
        {
          "internalType": "contract Authority",
          "name": "newAuthority",
          "type": "address"
        }
      ],
      "name": "setAuthority",
      "outputs": [],
      "stateMutability": "nonpayable",
      "type": "function"
    },
    {
      "inputs": [
        {
          "internalType": "address",
          "name": "newOwner",
          "type": "address"
        }
      ],
      "name": "setOwner",
      "outputs": [],
      "stateMutability": "nonpayable",
      "type": "function"
    },
    {
      "inputs": [],
      "name": "totalMinted",
      "outputs": [
        {
          "internalType": "uint256",
          "name": "",
          "type": "uint256"
        }
      ],
      "stateMutability": "view",
      "type": "function"
    },
    {
      "inputs": [],
      "name": "totalSupply",
      "outputs": [
        {
          "internalType": "uint256",
          "name": "",
          "type": "uint256"
        }
      ],
      "stateMutability": "view",
      "type": "function"
    },
    {
      "inputs": [
        {
          "internalType": "address",
          "name": "",
          "type": "address"
        },
        {
          "internalType": "uint256",
          "name": "",
          "type": "uint256"
        },
        {
          "internalType": "uint256[]",
          "name": "",
          "type": "uint256[]"
        },
        {
          "internalType": "string",
          "name": "",
          "type": "string"
        },
        {
          "internalType": "bytes",
          "name": "",
          "type": "bytes"
        }
      ],
      "name": "validate",
      "outputs": [],
      "stateMutability": "nonpayable",
      "type": "function"
    }
  ],
  "bytecode": "0x60a06040523480156200001157600080fd5b5060405162001810380380620018108339818101604052810190620000379190620002d1565b3381816000806101000a81548173ffffffffffffffffffffffffffffffffffffffff021916908373ffffffffffffffffffffffffffffffffffffffff16021790555080600160006101000a81548173ffffffffffffffffffffffffffffffffffffffff021916908373ffffffffffffffffffffffffffffffffffffffff1602179055508173ffffffffffffffffffffffffffffffffffffffff163373ffffffffffffffffffffffffffffffffffffffff167f8292fce18fa69edf4db7b94ea2e58241df0ae57f97e0a6c9b29067028bf92d7660405160405180910390a38073ffffffffffffffffffffffffffffffffffffffff163373ffffffffffffffffffffffffffffffffffffffff167fa3396fd7f6e0a21b50e5089d2da70d5ac0a3bbbd1f617a93f134b7638998019860405160405180910390a35050826080818152505083600260006101000a81548173ffffffffffffffffffffffffffffffffffffffff021916908373ffffffffffffffffffffffffffffffffffffffff160217905550816003819055506003546005819055505050505062000343565b600080fd5b600073ffffffffffffffffffffffffffffffffffffffff82169050919050565b60006200020582620001d8565b9050919050565b60006200021982620001f8565b9050919050565b6200022b816200020c565b81146200023757600080fd5b50565b6000815190506200024b8162000220565b92915050565b6000819050919050565b620002668162000251565b81146200027257600080fd5b50565b60008151905062000286816200025b565b92915050565b60006200029982620001f8565b9050919050565b620002ab816200028c565b8114620002b757600080fd5b50565b600081519050620002cb81620002a0565b92915050565b60008060008060808587031215620002ee57620002ed620001d3565b5b6000620002fe878288016200023a565b9450506020620003118782880162000275565b9350506040620003248782880162000275565b92505060606200033787828801620002ba565b91505092959194509250565b6080516114b46200035c600039600050506114b46000f3fe608060405234801561001057600080fd5b50600436106100b45760003560e01c8063a2309ff811610071578063a2309ff814610165578063bf7e214f14610183578063ce190d57146101a1578063de954170146101bd578063df772941146101d9578063f2f4eb26146101f7576100b4565b806313af4035146100b957806318160ddd146100d557806362749f05146100f35780637a9e5e4b1461010f5780638da5cb5b1461012b578063934eddf814610149575b600080fd5b6100d360048036038101906100ce91906109c9565b610215565b005b6100dd61031f565b6040516100ea9190610a0f565b60405180910390f35b61010d60048036038101906101089190610c52565b610325565b005b61012960048036038101906101249190610d68565b610360565b005b610133610521565b6040516101409190610da4565b60405180910390f35b610163600480360381019061015e9190610e82565b610545565b005b61016d61064b565b60405161017a9190610a0f565b60405180910390f35b61018b610651565b6040516101989190610f9c565b60405180910390f35b6101bb60048036038101906101b69190610fb7565b610677565b005b6101d760048036038101906101d29190610fb7565b610732565b005b6101e16107ed565b6040516101ee9190610a0f565b60405180910390f35b6101ff6107f3565b60405161020c9190611005565b60405180910390f35b610243336000357fffffffff0000000000000000000000000000000000000000000000000000000016610819565b610282576040517f08c379a00000000000000000000000000000000000000000000000000000000081526004016102799061107d565b60405180910390fd5b806000806101000a81548173ffffffffffffffffffffffffffffffffffffffff021916908373ffffffffffffffffffffffffffffffffffffffff1602179055508073ffffffffffffffffffffffffffffffffffffffff163373ffffffffffffffffffffffffffffffffffffffff167f8292fce18fa69edf4db7b94ea2e58241df0ae57f97e0a6c9b29067028bf92d7660405160405180910390a350565b60035481565b6040517f08c379a0000000000000000000000000000000000000000000000000000000008152600401610357906110e9565b60405180910390fd5b60008054906101000a900473ffffffffffffffffffffffffffffffffffffffff1673ffffffffffffffffffffffffffffffffffffffff163373ffffffffffffffffffffffffffffffffffffffff16148061047a5750600160009054906101000a900473ffffffffffffffffffffffffffffffffffffffff1673ffffffffffffffffffffffffffffffffffffffff1663b700961333306000357fffffffff00000000000000000000000000000000000000000000000000000000166040518463ffffffff1660e01b815260040161043893929190611144565b602060405180830381865afa158015610455573d6000803e3d6000fd5b505050506040513d601f19601f8201168201806040525081019061047991906111b3565b5b61048357600080fd5b80600160006101000a81548173ffffffffffffffffffffffffffffffffffffffff021916908373ffffffffffffffffffffffffffffffffffffffff1602179055508073ffffffffffffffffffffffffffffffffffffffff163373ffffffffffffffffffffffffffffffffffffffff167fa3396fd7f6e0a21b50e5089d2da70d5ac0a3bbbd1f617a93f134b7638998019860405160405180910390a350565b60008054906101000a900473ffffffffffffffffffffffffffffffffffffffff1681565b610573336000357fffffffff0000000000000000000000000000000000000000000000000000000016610819565b6105b2576040517f08c379a00000000000000000000000000000000000000000000000000000000081526004016105a99061107d565b60405180910390fd5b600260009054906101000a900473ffffffffffffffffffffffffffffffffffffffff1673ffffffffffffffffffffffffffffffffffffffff1663934eddf8858585856040518563ffffffff1660e01b81526004016106139493929190611326565b600060405180830381600087803b15801561062d57600080fd5b505af1158015610641573d6000803e3d6000fd5b5050505050505050565b60045481565b600160009054906101000a900473ffffffffffffffffffffffffffffffffffffffff1681565b6106a5336000357fffffffff0000000000000000000000000000000000000000000000000000000016610819565b6106e4576040517f08c379a00000000000000000000000000000000000000000000000000000000081526004016106db9061107d565b60405180910390fd5b6003548110610728576040517f08c379a000000000000000000000000000000000000000000000000000000000815260040161071f906113cc565b60405180910390fd5b8060058190555050565b610760336000357fffffffff0000000000000000000000000000000000000000000000000000000016610819565b61079f576040517f08c379a00000000000000000000000000000000000000000000000000000000081526004016107969061107d565b60405180910390fd5b60035481106107e3576040517f08c379a00000000000000000000000000000000000000000000000000000000081526004016107da9061145e565b60405180910390fd5b8060038190555050565b60055481565b600260009054906101000a900473ffffffffffffffffffffffffffffffffffffffff1681565b600080600160009054906101000a900473ffffffffffffffffffffffffffffffffffffffff169050600073ffffffffffffffffffffffffffffffffffffffff168173ffffffffffffffffffffffffffffffffffffffff16141580156108f857508073ffffffffffffffffffffffffffffffffffffffff1663b70096138530866040518463ffffffff1660e01b81526004016108b693929190611144565b602060405180830381865afa1580156108d3573d6000803e3d6000fd5b505050506040513d601f19601f820116820180604052508101906108f791906111b3565b5b8061094e575060008054906101000a900473ffffffffffffffffffffffffffffffffffffffff1673ffffffffffffffffffffffffffffffffffffffff168473ffffffffffffffffffffffffffffffffffffffff16145b91505092915050565b6000604051905090565b600080fd5b600080fd5b600073ffffffffffffffffffffffffffffffffffffffff82169050919050565b60006109968261096b565b9050919050565b6109a68161098b565b81146109b157600080fd5b50565b6000813590506109c38161099d565b92915050565b6000602082840312156109df576109de610961565b5b60006109ed848285016109b4565b91505092915050565b6000819050919050565b610a09816109f6565b82525050565b6000602082019050610a246000830184610a00565b92915050565b610a33816109f6565b8114610a3e57600080fd5b50565b600081359050610a5081610a2a565b92915050565b600080fd5b600080fd5b600080fd5b60008083601f840112610a7b57610a7a610a56565b5b8235905067ffffffffffffffff811115610a9857610a97610a5b565b5b602083019150836020820283011115610ab457610ab3610a60565b5b9250929050565b60008083601f840112610ad157610ad0610a56565b5b8235905067ffffffffffffffff811115610aee57610aed610a5b565b5b602083019150836001820283011115610b0a57610b09610a60565b5b9250929050565b600080fd5b6000601f19601f8301169050919050565b7f4e487b7100000000000000000000000000000000000000000000000000000000600052604160045260246000fd5b610b5f82610b16565b810181811067ffffffffffffffff82111715610b7e57610b7d610b27565b5b80604052505050565b6000610b91610957565b9050610b9d8282610b56565b919050565b600067ffffffffffffffff821115610bbd57610bbc610b27565b5b610bc682610b16565b9050602081019050919050565b82818337600083830152505050565b6000610bf5610bf084610ba2565b610b87565b905082815260208101848484011115610c1157610c10610b11565b5b610c1c848285610bd3565b509392505050565b600082601f830112610c3957610c38610a56565b5b8135610c49848260208601610be2565b91505092915050565b600080600080600080600060a0888a031215610c7157610c70610961565b5b6000610c7f8a828b016109b4565b9750506020610c908a828b01610a41565b965050604088013567ffffffffffffffff811115610cb157610cb0610966565b5b610cbd8a828b01610a65565b9550955050606088013567ffffffffffffffff811115610ce057610cdf610966565b5b610cec8a828b01610abb565b9350935050608088013567ffffffffffffffff811115610d0f57610d0e610966565b5b610d1b8a828b01610c24565b91505092959891949750929550565b6000610d358261098b565b9050919050565b610d4581610d2a565b8114610d5057600080fd5b50565b600081359050610d6281610d3c565b92915050565b600060208284031215610d7e57610d7d610961565b5b6000610d8c84828501610d53565b91505092915050565b610d9e8161098b565b82525050565b6000602082019050610db96000830184610d95565b92915050565b600067ffffffffffffffff821115610dda57610dd9610b27565b5b602082029050602081019050919050565b6000610dfe610df984610dbf565b610b87565b90508083825260208201905060208402830185811115610e2157610e20610a60565b5b835b81811015610e4a5780610e368882610a41565b845260208401935050602081019050610e23565b5050509392505050565b600082601f830112610e6957610e68610a56565b5b8135610e79848260208601610deb565b91505092915050565b60008060008060808587031215610e9c57610e9b610961565b5b6000610eaa878288016109b4565b945050602085013567ffffffffffffffff811115610ecb57610eca610966565b5b610ed787828801610e54565b935050604085013567ffffffffffffffff811115610ef857610ef7610966565b5b610f0487828801610e54565b925050606085013567ffffffffffffffff811115610f2557610f24610966565b5b610f3187828801610c24565b91505092959194509250565b6000819050919050565b6000610f62610f5d610f588461096b565b610f3d565b61096b565b9050919050565b6000610f7482610f47565b9050919050565b6000610f8682610f69565b9050919050565b610f9681610f7b565b82525050565b6000602082019050610fb16000830184610f8d565b92915050565b600060208284031215610fcd57610fcc610961565b5b6000610fdb84828501610a41565b91505092915050565b6000610fef82610f69565b9050919050565b610fff81610fe4565b82525050565b600060208201905061101a6000830184610ff6565b92915050565b600082825260208201905092915050565b7f554e415554484f52495a45440000000000000000000000000000000000000000600082015250565b6000611067600c83611020565b915061107282611031565b602082019050919050565b600060208201905081810360008301526110968161105a565b9050919050565b7f5573652070617961626c652076616c696461746f720000000000000000000000600082015250565b60006110d3601583611020565b91506110de8261109d565b602082019050919050565b60006020820190508181036000830152611102816110c6565b9050919050565b60007fffffffff0000000000000000000000000000000000000000000000000000000082169050919050565b61113e81611109565b82525050565b60006060820190506111596000830186610d95565b6111666020830185610d95565b6111736040830184611135565b949350505050565b60008115159050919050565b6111908161117b565b811461119b57600080fd5b50565b6000815190506111ad81611187565b92915050565b6000602082840312156111c9576111c8610961565b5b60006111d78482850161119e565b91505092915050565b600081519050919050565b600082825260208201905092915050565b6000819050602082019050919050565b611215816109f6565b82525050565b6000611227838361120c565b60208301905092915050565b6000602082019050919050565b600061124b826111e0565b61125581856111eb565b9350611260836111fc565b8060005b83811015611291578151611278888261121b565b975061128383611233565b925050600181019050611264565b5085935050505092915050565b600081519050919050565b600082825260208201905092915050565b60005b838110156112d85780820151818401526020810190506112bd565b838111156112e7576000848401525b50505050565b60006112f88261129e565b61130281856112a9565b93506113128185602086016112ba565b61131b81610b16565b840191505092915050565b600060808201905061133b6000830187610d95565b818103602083015261134d8186611240565b905081810360408301526113618185611240565b9050818103606083015261137581846112ed565b905095945050505050565b7f4c696d6974206d75737420626520756e64657220737570706c7920746f74616c600082015250565b60006113b6602083611020565b91506113c182611380565b602082019050919050565b600060208201905081810360008301526113e5816113a9565b9050919050565b7f537570706c79206d75737420626520756e64657220737570706c7920746f746160008201527f6c00000000000000000000000000000000000000000000000000000000000000602082015250565b6000611448602183611020565b9150611453826113ec565b604082019050919050565b600060208201905081810360008301526114778161143b565b905091905056fea2646970667358221220b52e0ca707e7b61dccbf369364adf36b5fbc7fa512b3ca1e7f0f36b2580b406164736f6c634300080a0033",
  "linkReferences": {},
  "deployedLinkReferences": {}
}