{
  "_format": "hh-sol-artifact-1",
  "contractName": "PaymentValidator",
  "sourceName": "contracts/legacy/Paymentvalidator.sol",
  "abi": [
    {
      "inputs": [
        {
          "internalType": "contract IFabricator",
          "name": "_core",
          "type": "address"
        },
        {
          "internalType": "uint256",
          "name": "id_",
          "type": "uint256"
        },
        {
          "internalType": "uint256",
          "name": "cost_",
          "type": "uint256"
        },
        {
          "internalType": "uint256",
          "name": "_supply",
          "type": "uint256"
        }
      ],
      "stateMutability": "nonpayable",
      "type": "constructor"
    },
    {
      "anonymous": false,
      "inputs": [
        {
          "indexed": true,
          "internalType": "address",
          "name": "previousOwner",
          "type": "address"
        },
        {
          "indexed": true,
          "internalType": "address",
          "name": "newOwner",
          "type": "address"
        }
      ],
      "name": "OwnershipTransferred",
      "type": "event"
    },
    {
      "inputs": [
        {
          "internalType": "address",
          "name": "target",
          "type": "address"
        }
      ],
      "name": "collectAllEth",
      "outputs": [],
      "stateMutability": "nonpayable",
      "type": "function"
    },
    {
      "inputs": [
        {
          "internalType": "address",
          "name": "target",
          "type": "address"
        },
        {
          "internalType": "uint256",
          "name": "value",
          "type": "uint256"
        }
      ],
      "name": "collectEth",
      "outputs": [],
      "stateMutability": "nonpayable",
      "type": "function"
    },
    {
      "inputs": [],
      "name": "core",
      "outputs": [
        {
          "internalType": "contract IFabricator",
          "name": "",
          "type": "address"
        }
      ],
      "stateMutability": "view",
      "type": "function"
    },
    {
      "inputs": [
        {
          "internalType": "address",
          "name": "_recipient",
          "type": "address"
        },
        {
          "internalType": "uint256",
          "name": "_qty",
          "type": "uint256"
        }
      ],
      "name": "directSale",
      "outputs": [],
      "stateMutability": "payable",
      "type": "function"
    },
    {
      "inputs": [
        {
          "internalType": "uint256",
          "name": "limit",
          "type": "uint256"
        }
      ],
      "name": "newLimit",
      "outputs": [],
      "stateMutability": "nonpayable",
      "type": "function"
    },
    {
      "inputs": [],
      "name": "owner",
      "outputs": [
        {
          "internalType": "address",
          "name": "",
          "type": "address"
        }
      ],
      "stateMutability": "view",
      "type": "function"
    },
    {
      "inputs": [],
      "name": "perTxLimit",
      "outputs": [
        {
          "internalType": "uint256",
          "name": "",
          "type": "uint256"
        }
      ],
      "stateMutability": "view",
      "type": "function"
    },
    {
      "inputs": [],
      "name": "renounceOwnership",
      "outputs": [],
      "stateMutability": "nonpayable",
      "type": "function"
    },
    {
      "inputs": [],
      "name": "totalMinted",
      "outputs": [
        {
          "internalType": "uint256",
          "name": "",
          "type": "uint256"
        }
      ],
      "stateMutability": "view",
      "type": "function"
    },
    {
      "inputs": [],
      "name": "totalSupply",
      "outputs": [
        {
          "internalType": "uint256",
          "name": "",
          "type": "uint256"
        }
      ],
      "stateMutability": "view",
      "type": "function"
    },
    {
      "inputs": [
        {
          "internalType": "address",
          "name": "newOwner",
          "type": "address"
        }
      ],
      "name": "transferOwnership",
      "outputs": [],
      "stateMutability": "nonpayable",
      "type": "function"
    },
    {
      "inputs": [
        {
          "internalType": "address",
          "name": "",
          "type": "address"
        },
        {
          "internalType": "uint256",
          "name": "",
          "type": "uint256"
        },
        {
          "internalType": "uint256[]",
          "name": "",
          "type": "uint256[]"
        },
        {
          "internalType": "string",
          "name": "",
          "type": "string"
        },
        {
          "internalType": "bytes",
          "name": "",
          "type": "bytes"
        }
      ],
      "name": "validate",
      "outputs": [],
      "stateMutability": "nonpayable",
      "type": "function"
    }
  ],
  "bytecode": "0x60a06040523480156200001157600080fd5b50604051620017bf380380620017bf833981810160405281019062000037919062000246565b620000576200004b620000c160201b60201c565b620000c960201b60201c565b826080818152505083600160006101000a81548173ffffffffffffffffffffffffffffffffffffffff021916908373ffffffffffffffffffffffffffffffffffffffff160217905550816002819055508060038190555060035460058190555050505050620002b8565b600033905090565b60008060009054906101000a900473ffffffffffffffffffffffffffffffffffffffff169050816000806101000a81548173ffffffffffffffffffffffffffffffffffffffff021916908373ffffffffffffffffffffffffffffffffffffffff1602179055508173ffffffffffffffffffffffffffffffffffffffff168173ffffffffffffffffffffffffffffffffffffffff167f8be0079c531659141344cd1fd0a4f28419497f9722a3daafe3b4186f6b6457e060405160405180910390a35050565b600080fd5b600073ffffffffffffffffffffffffffffffffffffffff82169050919050565b6000620001bf8262000192565b9050919050565b6000620001d382620001b2565b9050919050565b620001e581620001c6565b8114620001f157600080fd5b50565b6000815190506200020581620001da565b92915050565b6000819050919050565b62000220816200020b565b81146200022c57600080fd5b50565b600081519050620002408162000215565b92915050565b600080600080608085870312156200026357620002626200018d565b5b60006200027387828801620001f4565b945050602062000286878288016200022f565b935050604062000299878288016200022f565b9250506060620002ac878288016200022f565b91505092959194509250565b6080516114eb620002d4600039600061081301526114eb6000f3fe6080604052600436106100a75760003560e01c8063a97c36eb11610064578063a97c36eb14610189578063ce190d57146101b2578063df772941146101db578063f2f4eb2614610206578063f2fde38b14610231578063ff03ad561461025a576100a7565b806318160ddd146100ac5780631ad3f077146100d757806362749f05146100f3578063715018a61461011c5780638da5cb5b14610133578063a2309ff81461015e575b600080fd5b3480156100b857600080fd5b506100c1610283565b6040516100ce9190610aa0565b60405180910390f35b6100f160048036038101906100ec9190610b59565b610289565b005b3480156100ff57600080fd5b5061011a60048036038101906101159190610d95565b610382565b005b34801561012857600080fd5b506101316103bd565b005b34801561013f57600080fd5b50610148610445565b6040516101559190610e7c565b60405180910390f35b34801561016a57600080fd5b5061017361046e565b6040516101809190610aa0565b60405180910390f35b34801561019557600080fd5b506101b060048036038101906101ab9190610e97565b610474565b005b3480156101be57600080fd5b506101d960048036038101906101d49190610ec4565b6104fd565b005b3480156101e757600080fd5b506101f06105c7565b6040516101fd9190610aa0565b60405180910390f35b34801561021257600080fd5b5061021b6105cd565b6040516102289190610f50565b60405180910390f35b34801561023d57600080fd5b5061025860048036038101906102539190610e97565b6105f3565b005b34801561026657600080fd5b50610281600480360381019061027c9190610b59565b6106eb565b005b60035481565b60006005548211156102d0576040517f08c379a00000000000000000000000000000000000000000000000000000000081526004016102c790610fc8565b60405180910390fd5b6004548201905060035481111561031c576040517f08c379a000000000000000000000000000000000000000000000000000000000815260040161031390610fc8565b60405180910390fd5b816002543461032b9190611017565b101561036c576040517f08c379a000000000000000000000000000000000000000000000000000000000815260040161036390611094565b60405180910390fd5b6103768383610775565b80600481905550505050565b6040517f08c379a00000000000000000000000000000000000000000000000000000000081526004016103b490611100565b60405180910390fd5b6103c561090a565b73ffffffffffffffffffffffffffffffffffffffff166103e3610445565b73ffffffffffffffffffffffffffffffffffffffff1614610439576040517f08c379a00000000000000000000000000000000000000000000000000000000081526004016104309061116c565b60405180910390fd5b6104436000610912565b565b60008060009054906101000a900473ffffffffffffffffffffffffffffffffffffffff16905090565b60045481565b61047c61090a565b73ffffffffffffffffffffffffffffffffffffffff1661049a610445565b73ffffffffffffffffffffffffffffffffffffffff16146104f0576040517f08c379a00000000000000000000000000000000000000000000000000000000081526004016104e79061116c565b60405180910390fd5b6104fa81476109d6565b50565b61050561090a565b73ffffffffffffffffffffffffffffffffffffffff16610523610445565b73ffffffffffffffffffffffffffffffffffffffff1614610579576040517f08c379a00000000000000000000000000000000000000000000000000000000081526004016105709061116c565b60405180910390fd5b60035481106105bd576040517f08c379a00000000000000000000000000000000000000000000000000000000081526004016105b4906111d8565b60405180910390fd5b8060058190555050565b60055481565b600160009054906101000a900473ffffffffffffffffffffffffffffffffffffffff1681565b6105fb61090a565b73ffffffffffffffffffffffffffffffffffffffff16610619610445565b73ffffffffffffffffffffffffffffffffffffffff161461066f576040517f08c379a00000000000000000000000000000000000000000000000000000000081526004016106669061116c565b60405180910390fd5b600073ffffffffffffffffffffffffffffffffffffffff168173ffffffffffffffffffffffffffffffffffffffff1614156106df576040517f08c379a00000000000000000000000000000000000000000000000000000000081526004016106d69061126a565b60405180910390fd5b6106e881610912565b50565b6106f361090a565b73ffffffffffffffffffffffffffffffffffffffff16610711610445565b73ffffffffffffffffffffffffffffffffffffffff1614610767576040517f08c379a000000000000000000000000000000000000000000000000000000000815260040161075e9061116c565b60405180910390fd5b61077182826109d6565b5050565b6000600167ffffffffffffffff81111561079257610791610c6a565b5b6040519080825280602002602001820160405280156107c05781602001602082028036833780820191505090505b5090506000600167ffffffffffffffff8111156107e0576107df610c6a565b5b60405190808252806020026020018201604052801561080e5781602001602082028036833780820191505090505b5090507f0000000000000000000000000000000000000000000000000000000000000000826000815181106108465761084561128a565b5b60200260200101818152505082816000815181106108675761086661128a565b5b602002602001018181525050600160009054906101000a900473ffffffffffffffffffffffffffffffffffffffff1673ffffffffffffffffffffffffffffffffffffffff1663934eddf88584846040518463ffffffff1660e01b81526004016108d2939291906113ae565b600060405180830381600087803b1580156108ec57600080fd5b505af1158015610900573d6000803e3d6000fd5b5050505050505050565b600033905090565b60008060009054906101000a900473ffffffffffffffffffffffffffffffffffffffff169050816000806101000a81548173ffffffffffffffffffffffffffffffffffffffff021916908373ffffffffffffffffffffffffffffffffffffffff1602179055508173ffffffffffffffffffffffffffffffffffffffff168173ffffffffffffffffffffffffffffffffffffffff167f8be0079c531659141344cd1fd0a4f28419497f9722a3daafe3b4186f6b6457e060405160405180910390a35050565b60008273ffffffffffffffffffffffffffffffffffffffff16826040516109fc90611434565b60006040518083038185875af1925050503d8060008114610a39576040519150601f19603f3d011682016040523d82523d6000602084013e610a3e565b606091505b5050905080610a82576040517f08c379a0000000000000000000000000000000000000000000000000000000008152600401610a7990611495565b60405180910390fd5b505050565b6000819050919050565b610a9a81610a87565b82525050565b6000602082019050610ab56000830184610a91565b92915050565b6000604051905090565b600080fd5b600080fd5b600073ffffffffffffffffffffffffffffffffffffffff82169050919050565b6000610afa82610acf565b9050919050565b610b0a81610aef565b8114610b1557600080fd5b50565b600081359050610b2781610b01565b92915050565b610b3681610a87565b8114610b4157600080fd5b50565b600081359050610b5381610b2d565b92915050565b60008060408385031215610b7057610b6f610ac5565b5b6000610b7e85828601610b18565b9250506020610b8f85828601610b44565b9150509250929050565b600080fd5b600080fd5b600080fd5b60008083601f840112610bbe57610bbd610b99565b5b8235905067ffffffffffffffff811115610bdb57610bda610b9e565b5b602083019150836020820283011115610bf757610bf6610ba3565b5b9250929050565b60008083601f840112610c1457610c13610b99565b5b8235905067ffffffffffffffff811115610c3157610c30610b9e565b5b602083019150836001820283011115610c4d57610c4c610ba3565b5b9250929050565b600080fd5b6000601f19601f8301169050919050565b7f4e487b7100000000000000000000000000000000000000000000000000000000600052604160045260246000fd5b610ca282610c59565b810181811067ffffffffffffffff82111715610cc157610cc0610c6a565b5b80604052505050565b6000610cd4610abb565b9050610ce08282610c99565b919050565b600067ffffffffffffffff821115610d0057610cff610c6a565b5b610d0982610c59565b9050602081019050919050565b82818337600083830152505050565b6000610d38610d3384610ce5565b610cca565b905082815260208101848484011115610d5457610d53610c54565b5b610d5f848285610d16565b509392505050565b600082601f830112610d7c57610d7b610b99565b5b8135610d8c848260208601610d25565b91505092915050565b600080600080600080600060a0888a031215610db457610db3610ac5565b5b6000610dc28a828b01610b18565b9750506020610dd38a828b01610b44565b965050604088013567ffffffffffffffff811115610df457610df3610aca565b5b610e008a828b01610ba8565b9550955050606088013567ffffffffffffffff811115610e2357610e22610aca565b5b610e2f8a828b01610bfe565b9350935050608088013567ffffffffffffffff811115610e5257610e51610aca565b5b610e5e8a828b01610d67565b91505092959891949750929550565b610e7681610aef565b82525050565b6000602082019050610e916000830184610e6d565b92915050565b600060208284031215610ead57610eac610ac5565b5b6000610ebb84828501610b18565b91505092915050565b600060208284031215610eda57610ed9610ac5565b5b6000610ee884828501610b44565b91505092915050565b6000819050919050565b6000610f16610f11610f0c84610acf565b610ef1565b610acf565b9050919050565b6000610f2882610efb565b9050919050565b6000610f3a82610f1d565b9050919050565b610f4a81610f2f565b82525050565b6000602082019050610f656000830184610f41565b92915050565b600082825260208201905092915050565b7f4e6f7420656e6f75676820737570706c79000000000000000000000000000000600082015250565b6000610fb2601183610f6b565b9150610fbd82610f7c565b602082019050919050565b60006020820190508181036000830152610fe181610fa5565b9050919050565b7f4e487b7100000000000000000000000000000000000000000000000000000000600052601260045260246000fd5b600061102282610a87565b915061102d83610a87565b92508261103d5761103c610fe8565b5b828204905092915050565b7f536f727279206e6f7420656e6f756768204554482070726f7669646564000000600082015250565b600061107e601d83610f6b565b915061108982611048565b602082019050919050565b600060208201905081810360008301526110ad81611071565b9050919050565b7f5573652070617961626c652076616c696461746f720000000000000000000000600082015250565b60006110ea601583610f6b565b91506110f5826110b4565b602082019050919050565b60006020820190508181036000830152611119816110dd565b9050919050565b7f4f776e61626c653a2063616c6c6572206973206e6f7420746865206f776e6572600082015250565b6000611156602083610f6b565b915061116182611120565b602082019050919050565b6000602082019050818103600083015261118581611149565b9050919050565b7f4c696d6974206d75737420626520756e64657220737570706c7920746f74616c600082015250565b60006111c2602083610f6b565b91506111cd8261118c565b602082019050919050565b600060208201905081810360008301526111f1816111b5565b9050919050565b7f4f776e61626c653a206e6577206f776e657220697320746865207a65726f206160008201527f6464726573730000000000000000000000000000000000000000000000000000602082015250565b6000611254602683610f6b565b915061125f826111f8565b604082019050919050565b6000602082019050818103600083015261128381611247565b9050919050565b7f4e487b7100000000000000000000000000000000000000000000000000000000600052603260045260246000fd5b600081519050919050565b600082825260208201905092915050565b6000819050602082019050919050565b6112ee81610a87565b82525050565b600061130083836112e5565b60208301905092915050565b6000602082019050919050565b6000611324826112b9565b61132e81856112c4565b9350611339836112d5565b8060005b8381101561136a57815161135188826112f4565b975061135c8361130c565b92505060018101905061133d565b5085935050505092915050565b600082825260208201905092915050565b50565b6000611398600083611377565b91506113a382611388565b600082019050919050565b60006080820190506113c36000830186610e6d565b81810360208301526113d58185611319565b905081810360408301526113e98184611319565b905081810360608301526113fc8161138b565b9050949350505050565b600081905092915050565b600061141e600083611406565b915061142982611388565b600082019050919050565b600061143f82611411565b9150819050919050565b7f5472616e73666572206661696c65642e00000000000000000000000000000000600082015250565b600061147f601083610f6b565b915061148a82611449565b602082019050919050565b600060208201905081810360008301526114ae81611472565b905091905056fea2646970667358221220e71be344a9ee9ade0f7002fbbb04bb54a902fb4ee4660670441e51ee2b687b1c64736f6c634300080a0033",
  "linkReferences": {},
  "deployedLinkReferences": {}
}